{"contracts/CarbonCredit.sol":{"CarbonCredit":{"abi":[{"inputs":[],"stateMutability":"nonpayable","type":"constructor"},{"inputs":[{"internalType":"address","name":"sender","type":"address"},{"internalType":"uint256","name":"tokenId","type":"uint256"},{"internalType":"address","name":"owner","type":"address"}],"name":"ERC721IncorrectOwner","type":"error"},{"inputs":[{"internalType":"address","name":"operator","type":"address"},{"internalType":"uint256","name":"tokenId","type":"uint256"}],"name":"ERC721InsufficientApproval","type":"error"},{"inputs":[{"internalType":"address","name":"approver","type":"address"}],"name":"ERC721InvalidApprover","type":"error"},{"inputs":[{"internalType":"address","name":"operator","type":"address"}],"name":"ERC721InvalidOperator","type":"error"},{"inputs":[{"internalType":"address","name":"owner","type":"address"}],"name":"ERC721InvalidOwner","type":"error"},{"inputs":[{"internalType":"address","name":"receiver","type":"address"}],"name":"ERC721InvalidReceiver","type":"error"},{"inputs":[{"internalType":"address","name":"sender","type":"address"}],"name":"ERC721InvalidSender","type":"error"},{"inputs":[{"internalType":"uint256","name":"tokenId","type":"uint256"}],"name":"ERC721NonexistentToken","type":"error"},{"inputs":[{"internalType":"address","name":"owner","type":"address"}],"name":"OwnableInvalidOwner","type":"error"},{"inputs":[{"internalType":"address","name":"account","type":"address"}],"name":"OwnableUnauthorizedAccount","type":"error"},{"anonymous":false,"inputs":[{"indexed":true,"internalType":"address","name":"owner","type":"address"},{"indexed":true,"internalType":"address","name":"approved","type":"address"},{"indexed":true,"internalType":"uint256","name":"tokenId","type":"uint256"}],"name":"Approval","type":"event"},{"anonymous":false,"inputs":[{"indexed":true,"internalType":"address","name":"owner","type":"address"},{"indexed":true,"internalType":"address","name":"operator","type":"address"},{"indexed":false,"internalType":"bool","name":"approved","type":"bool"}],"name":"ApprovalForAll","type":"event"},{"anonymous":false,"inputs":[{"indexed":true,"internalType":"uint256","name":"tokenId","type":"uint256"},{"indexed":true,"internalType":"address","name":"owner","type":"address"},{"indexed":false,"internalType":"uint256","name":"amount","type":"uint256"}],"name":"CreditMinted","type":"event"},{"anonymous":false,"inputs":[{"indexed":true,"internalType":"uint256","name":"tokenId","type":"uint256"}],"name":"CreditVerified","type":"event"},{"anonymous":false,"inputs":[{"indexed":true,"internalType":"address","name":"previousOwner","type":"address"},{"indexed":true,"internalType":"address","name":"newOwner","type":"address"}],"name":"OwnershipTransferred","type":"event"},{"anonymous":false,"inputs":[{"indexed":true,"internalType":"address","name":"from","type":"address"},{"indexed":true,"internalType":"address","name":"to","type":"address"},{"indexed":true,"internalType":"uint256","name":"tokenId","type":"uint256"}],"name":"Transfer","type":"event"},{"inputs":[{"internalType":"address","name":"to","type":"address"},{"internalType":"uint256","name":"tokenId","type":"uint256"}],"name":"approve","outputs":[],"stateMutability":"nonpayable","type":"function"},{"inputs":[{"internalType":"address","name":"owner","type":"address"}],"name":"balanceOf","outputs":[{"internalType":"uint256","name":"","type":"uint256"}],"stateMutability":"view","type":"function"},{"inputs":[{"internalType":"uint256","name":"","type":"uint256"}],"name":"credits","outputs":[{"internalType":"uint256","name":"amount","type":"uint256"},{"internalType":"string","name":"projectType","type":"string"},{"internalType":"uint256","name":"validUntil","type":"uint256"},{"internalType":"bool","name":"verified","type":"bool"},{"internalType":"string","name":"metadataURI","type":"string"}],"stateMutability":"view","type":"function"},{"inputs":[{"internalType":"uint256","name":"tokenId","type":"uint256"}],"name":"getApproved","outputs":[{"internalType":"address","name":"","type":"address"}],"stateMutability":"view","type":"function"},{"inputs":[{"internalType":"uint256","name":"tokenId","type":"uint256"}],"name":"getCreditDetails","outputs":[{"components":[{"internalType":"uint256","name":"amount","type":"uint256"},{"internalType":"string","name":"projectType","type":"string"},{"internalType":"uint256","name":"validUntil","type":"uint256"},{"internalType":"bool","name":"verified","type":"bool"},{"internalType":"string","name":"metadataURI","type":"string"}],"internalType":"struct CarbonCredit.Credit","name":"","type":"tuple"}],"stateMutability":"view","type":"function"},{"inputs":[{"internalType":"address","name":"owner","type":"address"},{"internalType":"address","name":"operator","type":"address"}],"name":"isApprovedForAll","outputs":[{"internalType":"bool","name":"","type":"bool"}],"stateMutability":"view","type":"function"},{"inputs":[{"internalType":"address","name":"recipient","type":"address"},{"internalType":"uint256","name":"amount","type":"uint256"},{"internalType":"string","name":"projectType","type":"string"},{"internalType":"uint256","name":"validityPeriod","type":"uint256"},{"internalType":"string","name":"metadataURI","type":"string"}],"name":"mintCredit","outputs":[{"internalType":"uint256","name":"","type":"uint256"}],"stateMutability":"nonpayable","type":"function"},{"inputs":[],"name":"name","outputs":[{"internalType":"string","name":"","type":"string"}],"stateMutability":"view","type":"function"},{"inputs":[],"name":"owner","outputs":[{"internalType":"address","name":"","type":"address"}],"stateMutability":"view","type":"function"},{"inputs":[{"internalType":"uint256","name":"tokenId","type":"uint256"}],"name":"ownerOf","outputs":[{"internalType":"address","name":"","type":"address"}],"stateMutability":"view","type":"function"},{"inputs":[],"name":"renounceOwnership","outputs":[],"stateMutability":"nonpayable","type":"function"},{"inputs":[{"internalType":"address","name":"from","type":"address"},{"internalType":"address","name":"to","type":"address"},{"internalType":"uint256","name":"tokenId","type":"uint256"}],"name":"safeTransferFrom","outputs":[],"stateMutability":"nonpayable","type":"function"},{"inputs":[{"internalType":"address","name":"from","type":"address"},{"internalType":"address","name":"to","type":"address"},{"internalType":"uint256","name":"tokenId","type":"uint256"},{"internalType":"bytes","name":"data","type":"bytes"}],"name":"safeTransferFrom","outputs":[],"stateMutability":"nonpayable","type":"function"},{"inputs":[{"internalType":"address","name":"operator","type":"address"},{"internalType":"bool","name":"approved","type":"bool"}],"name":"setApprovalForAll","outputs":[],"stateMutability":"nonpayable","type":"function"},{"inputs":[{"internalType":"bytes4","name":"interfaceId","type":"bytes4"}],"name":"supportsInterface","outputs":[{"internalType":"bool","name":"","type":"bool"}],"stateMutability":"view","type":"function"},{"inputs":[],"name":"symbol","outputs":[{"internalType":"string","name":"","type":"string"}],"stateMutability":"view","type":"function"},{"inputs":[{"internalType":"uint256","name":"tokenId","type":"uint256"}],"name":"tokenURI","outputs":[{"internalType":"string","name":"","type":"string"}],"stateMutability":"view","type":"function"},{"inputs":[{"internalType":"address","name":"from","type":"address"},{"internalType":"address","name":"to","type":"address"},{"internalType":"uint256","name":"tokenId","type":"uint256"}],"name":"transferFrom","outputs":[],"stateMutability":"nonpayable","type":"function"},{"inputs":[{"internalType":"address","name":"newOwner","type":"address"}],"name":"transferOwnership","outputs":[],"stateMutability":"nonpayable","type":"function"},{"inputs":[{"internalType":"uint256","name":"tokenId","type":"uint256"}],"name":"verifyCredit","outputs":[],"stateMutability":"nonpayable","type":"function"}],"evm":{"bytecode":{"linkReferences":{},"object":"60806040523462000026576200001462000110565b604051611ed5620004cf8239611ed590f35b600080fd5b634e487b7160e01b600052604160045260246000fd5b90601f01601f191681019081106001600160401b038211176200006357604052565b6200002b565b90620000806200007860405190565b928362000041565b565b6001600160401b0381116200006357602090601f01601f19160190565b90620000b5620000af8362000082565b62000069565b918252565b620000c6600d6200009f565b6c10d85c989bdb8810dc99591a5d609a1b602082015290565b620000e9620000ba565b90565b620000f860026200009f565b61434360f01b602082015290565b620000e9620000ec565b62000080336200011f620000df565b6200012962000106565b9162000178565b62000140620000e9620000e99290565b6001600160a01b031690565b620000e99062000130565b620001629062000140565b9052565b60208101929162000080919062000157565b916200018491620003e3565b6200019060006200014c565b6200019b8162000140565b620001a68362000140565b14620001b8575062000080906200046c565b620001de90620001c760405190565b631e4fbdf760e01b81529182916004830162000166565b0390fd5b634e487b7160e01b600052602260045260246000fd5b90600160028304921680156200021b575b60208310146200021557565b620001e2565b91607f169162000209565b9160001960089290920291821b911b5b9181191691161790565b620000e9620000e9620000e99290565b919062000265620000e96200026e9362000240565b90835462000226565b9055565b620000809160009162000250565b8181106200028c575050565b806200029c600060019362000272565b0162000280565b9190601f8111620002b357505050565b620002c76200008093600052602060002090565b906020601f840181900483019310620002eb575b6020601f90910104019062000280565b9091508190620002db565b9062000300815190565b906001600160401b03821162000063576200032882620003218554620001f8565b85620002a3565b602090601f831160011462000367576200026e9291600091836200035b575b5050600019600883021c1916906002021790565b01519050388062000347565b601f198316916200037d85600052602060002090565b9260005b818110620003be57509160029391856001969410620003a4575b50505002019055565b01516000196008601f8516021c191690553880806200039b565b9193602060018192878701518155019501920162000381565b906200008091620002f6565b90620003f562000080926000620003d7565b6001620003d7565b620000e99062000140565b620000e99054620003fd565b906001600160a01b039062000236565b620000e99062000140906001600160a01b031682565b620000e99062000424565b620000e9906200043a565b9062000464620000e96200026e9262000445565b825462000414565b62000478600662000408565b906200048681600662000450565b620004bd620004b67f8be0079c531659141344cd1fd0a4f28419497f9722a3daafe3b4186f6b6457e09362000445565b9162000445565b91620004c860405190565b600090a356fe6080604052600436101561001257600080fd5b60003560e01c806301ffc9a714610152578063036a1c221461014d57806306fdde0314610148578063081812fc14610143578063095ea7b31461013e578063099c84631461013957806314fe83f81461013457806323b872dd1461012f57806342842e0e1461012a5780636352211e1461012557806370a0823114610120578063715018a61461011b5780638da5cb5b1461011657806395d89b4114610111578063a22cb4651461010c578063b88d4fde14610107578063c87b56dd14610102578063e985e9c5146100fd578063f2fde38b146100f85763f85aafbd036101575761095c565b6108e4565b6108c8565b61088a565b61086e565b61077e565b61072b565b610706565b6106ee565b6106d3565b6106a4565b61068b565b610672565b61062a565b6105f8565b610534565b6104c0565b61048d565b610440565b610195565b600080fd5b6001600160e01b031981165b0361015757565b9050359061017c8261015c565b565b90602082820312610157576101929161016f565b90565b34610157576101c36101b06101ab36600461017e565b610b7a565b6040515b91829182901515815260200190565b0390f35b80610168565b9050359061017c826101c7565b9060208282031261015757610192916101cd565b6101926101926101929290565b90610205906101ee565b600052602052604060002090565b6101929081565b6101929054610213565b634e487b7160e01b600052602260045260246000fd5b906001600283049216801561025a575b602083101461025557565b610224565b91607f169161024a565b805460009392916102816102778361023a565b8085529360200190565b91600181169081156102d3575060011461029a57505050565b6102ad9192939450600052602060002090565b916000925b8184106102bf5750500190565b8054848401526020909301926001016102b2565b92949550505060ff1916825215156020020190565b9061019291610264565b634e487b7160e01b600052604160045260246000fd5b90601f01601f1916810190811067ffffffffffffffff82111761032a57604052565b6102f2565b9061017c6103499261034060405190565b938480926102e8565b0383610308565b61035b9060086101fb565b6103648161021a565b916103716001830161032f565b9161037e6002820161021a565b916101926004610392600385015460ff1690565b930161032f565b60005b8381106103ac5750506000910152565b818101518382015260200161039c565b6103dd6103e66020936103f0936103d1815190565b80835293849260200190565b95869101610399565b601f01601f191690565b0190565b919361042a6104226104339361019298969761041560a08801926000890152565b86820360208801526103bc565b956040850152565b15156060830152565b60808184039101526103bc565b34610157576101c361045b6104563660046101da565b610350565b9161046895939560405190565b958695866103f4565b600091031261015757565b6020808252610192929101906103bc565b346101575761049d366004610471565b6101c36104a8610c94565b6040519182918261047c565b6001600160a01b031690565b34610157576101c36104db6104d63660046101da565b610d8b565b604051918291826001600160a01b03909116815260200190565b6001600160a01b038116610168565b9050359061017c826104f5565b9190604083820312610157576101929061052b8185610504565b936020016101cd565b346101575761054d610547366004610511565b90610d80565b604051005b909182601f830112156101575781359167ffffffffffffffff831161015757602001926001830284011161015757565b60a081830312610157576105968282610504565b926105a483602084016101cd565b92604083013567ffffffffffffffff811161015757816105c5918501610552565b9290936105d583606083016101cd565b92608082013567ffffffffffffffff8111610157576105f49201610552565b9091565b34610157576101c361061a61060e366004610582565b95949094939193611bf8565b6040519182918290815260200190565b346101575761054d61063d3660046101da565b611dbd565b90916060828403126101575761019261065b8484610504565b936106698160208601610504565b936040016101cd565b346101575761054d610685366004610642565b91610e06565b346101575761054d61069e366004610642565b91610edb565b34610157576101c36104db6106ba3660046101da565b610c82565b906020828203126101575761019291610504565b34610157576101c361061a6106e93660046106bf565b610c01565b34610157576106fe366004610471565b61054d6109bb565b3461015757610716366004610471565b6101c36104db6006546001600160a01b031690565b346101575761073b366004610471565b6101c36104a8610c9e565b801515610168565b9050359061017c82610746565b919060408382031261015757610192906107758185610504565b9360200161074e565b346101575761054d61079136600461075b565b90610d9e565b9061017c6107a460405190565b9283610308565b67ffffffffffffffff811161032a57602090601f01601f19160190565b90826000939282370152565b909291926107e96107e4826107ab565b610797565b938185526020850190828401116101575761017c926107c8565b9080601f8301121561015757816020610192933591016107d4565b90608082820312610157576108338183610504565b926108418260208501610504565b9261084f83604083016101cd565b92606082013567ffffffffffffffff8111610157576101929201610803565b346101575761054d61088136600461081e565b92919091610eeb565b34610157576101c36104a86108a03660046101da565b610d2d565b919060408382031261015757610192906108bf8185610504565b93602001610504565b34610157576101c36101b06108de3660046108a5565b90610da9565b346101575761054d6108f73660046106bf565b610abc565b8051825261019291608061091f60a08301602085015184820360208601526103bc565b9261092f60408201516040850152565b60608181015115159084015201519060808184039101526103bc565b6020808252610192929101906108fc565b34610157576101c36109776109723660046101da565b611e77565b6040519182918261094b565b61098b6109c3565b61017c6109a9565b6104b46101926101929290565b61019290610993565b61017c6109b660006109a0565b610b1d565b61017c610983565b6006546001600160a01b031633906109e3825b916001600160a01b031690565b036109eb5750565b610a35906109f860405190565b9182917f118cdaa7000000000000000000000000000000000000000000000000000000008352600483016001600160a01b03909116815260200190565b0390fd5b61017c90610a456109c3565b610a4f60006109a0565b6001600160a01b0381166001600160a01b03831614610a72575061017c90610b1d565b610a3590610a7f60405190565b9182917f1e4fbdf7000000000000000000000000000000000000000000000000000000008352600483016001600160a01b03909116815260200190565b61017c90610a39565b906001600160a01b03905b9181191691161790565b6104b4610192610192926001600160a01b031690565b61019290610ada565b61019290610af0565b90610b12610192610b1992610af9565b8254610ac5565b9055565b6006546001600160a01b031690610b35816006610b02565b610b68610b627f8be0079c531659141344cd1fd0a4f28419497f9722a3daafe3b4186f6b6457e093610af9565b91610af9565b91610b7260405190565b80805b0390a3565b7f80ac58cd000000000000000000000000000000000000000000000000000000006001600160e01b0319821614908115610bc3575b8115610bb9575090565b61019291506116fd565b6001600160e01b031981167f5b5e139f00000000000000000000000000000000000000000000000000000000149150610baf565b9061020590610af9565b610c0b60006109a0565b6001600160a01b0381166001600160a01b03831614610c385750610c33610192916003610bf7565b61021a565b610a3590610c4560405190565b9182917f89c62b64000000000000000000000000000000000000000000000000000000008352600483016001600160a01b03909116815260200190565b61019290611445565b6101929061032f565b6101926000610c8b565b6101926001610c8b565b90610cb56107e4836107ab565b918252565b6101926000610ca8565b610192610cba565b6103f0610ce492602092610cde815190565b94859290565b93849101610399565b610cfb906101929392610ccc565b90610ccc565b610d21929161017c91610d1360405190565b948592602084019283610ced565b90810382520383610308565b610d3681611445565b50610d3f610d78565b8051600090610d54610d50836101ee565b9190565b11159050610d6e57610d6861019292611665565b90610d01565b5050610192610cc4565b610192610cc4565b61017c913391611207565b61019290610d9881611445565b50610f02565b61017c919033611387565b61019291610dc4610dc992610dbc600090565b506005610bf7565b610bf7565b5460ff1690565b6001600160a01b03909116815260608101939261017c929091604091610df7906020830152565b01906001600160a01b03169052565b90610e1160006109a0565b6001600160a01b0381166001600160a01b03831614610e915750610e3790833391610f47565b6001600160a01b0382166001600160a01b03821603610e5557505050565b610a3590610e6260405190565b9384937f64283d7b00000000000000000000000000000000000000000000000000000000855260048501610dd0565b610a3590610e9e60405190565b9182917f64a0ae92000000000000000000000000000000000000000000000000000000008352600483016001600160a01b03909116815260200190565b909161017c92610ee9610cc4565b925b9061017c939291610efd838383610e06565b6114ed565b610f1961019291610f11600090565b5060046101fb565b546001600160a01b031690565b9060001990610ad0565b90610f40610192610b19926101ee565b8254610f26565b90610fa5610f5482611093565b936000610f60816109a0565b91846001600160a01b0384166001600160a01b03831603611082575b50506001600160a01b0382166001600160a01b03871603611047575b506001600160a01b031690565b6001600160a01b03831603611017575b610fc982610fc48360026101fb565b610b02565b7fddf252ad1be2c89b69c2b068fc378daa952ba7f163c4a11628f55a4df523b3ef91611006611000610ffa86610af9565b92610af9565b926101ee565b9261101060405190565b600090a490565b61104261102460016101ee565b61103c611032856003610bf7565b916103f08361021a565b90610f30565b610fb5565b61105390828581611211565b61107c61106060016101ee565b61103c61106e886003610bf7565b916110788361021a565b0390565b38610f98565b61108c91886110c7565b3884610f7c565b610f19610192916110a2600090565b5060026101fb565b6001600160a01b03909116815260408101929161017c9160200152565b6110d96110d5848484611172565b1590565b6110e257505050565b6110f26109d66104b460006109a0565b0361113757610a358261110460405190565b9182917f7e2732890000000000000000000000000000000000000000000000000000000083526004830190815260200190565b610a3561114360405190565b9283927f177e802f000000000000000000000000000000000000000000000000000000008452600484016110aa565b906111806104b460006109a0565b6001600160a01b03821614159283611199575b50505090565b919250906001600160a01b0382166001600160a01b038416149283156111f3575b5082156111cc575b5050388080611193565b6111eb9192506111de6109d691610f02565b926001600160a01b031690565b1438806111c2565b6112009193508290610da9565b91386111ba565b909161017c926001925b92919091808115611348575b611233575b505090610fc461017c9260046101fb565b61123c83611445565b9161124a6104b460006109a0565b6001600160a01b03821614158061132c575b80611319575b6112cf575091610fc49161017c949361127e575b509192611222565b6112a87f8c5be1e5ebec7d5bd14f71427d1e84f3dd0314c0f7b2291e5b200ac8c7c3b92591610af9565b6112b185610af9565b906112bb846101ee565b926112c560405190565b600090a438611276565b610a35906112dc60405190565b9182917fa9fbf51f000000000000000000000000000000000000000000000000000000008352600483016001600160a01b03909116815260200190565b506113276110d58285610da9565b611262565b506001600160a01b0381166001600160a01b038416141561125c565b506113566104b460006109a0565b6001600160a01b038316141561121d565b9060ff90610ad0565b90611380610192610b1992151590565b8254611367565b6113946104b460006109a0565b6001600160a01b038316146113fb576113bb836113b684610dc4856005610bf7565b611370565b610b756113f16113eb7f17307eab39ab6107e8899845ad3d59bd9653f200f220920489ca2b5937696c3193610af9565b93610af9565b936101b460405190565b610a358261140860405190565b9182917f5b08ba18000000000000000000000000000000000000000000000000000000008352600483016001600160a01b03909116815260200190565b61144e81611093565b9061145c6104b460006109a0565b6001600160a01b0383161461146f575090565b610a359061110460405190565b9050519061017c8261015c565b90602082820312610157576101929161147c565b6001600160a01b039182168152911660208201526040810191909152608060608201819052610192929101906103bc565b3d156114e8576114dd3d610ca8565b903d6000602084013e565b606090565b9091823b93600094611501610d50876101ee565b1161150e575b5050505050565b906020916115528661152a61152588999a98610af9565b610af9565b9261155d63150b7a029161153b3390565b9661154560405190565b998a988997889660e01b90565b86526004860161149d565b03925af18491816115e8575b506115a25750506115786114ce565b91611587610d50611000855190565b0361159957610a3590610e9e60405190565b50805190602001fd5b9092506115d87f150b7a02000000000000000000000000000000000000000000000000000000005b916001600160e01b03191690565b03610e9157503880808080611507565b61160a91925060203d8111611611575b6116028183610308565b810190611489565b9038611569565b503d6115f8565b369037565b9061017c61163361162d84610ca8565b936107ab565b601f190160208401611618565b634e487b7160e01b600052601260045260246000fd5b8115611660570490565b611640565b61166e8161172a565b9061167e6001926103f0846101ee565b91806116898461161d565b936020018401905b61169b5750505090565b6116dc9060001901927f3031323334353637383961626364656600000000000000000000000000000000600a82061a84536116d6600a6101ee565b90611656565b90816116eb610d5060006101ee565b146116f857909181611691565b611193565b6117267f01ffc9a7000000000000000000000000000000000000000000000000000000006115ca565b1490565b61173460006101ee565b907a184f03e93ff9f4daa797ed6e38ed64bf6a1f01000000000000000061175a816101ee565b8210156118ac575b506d04ee2d6d415b85acef810000000061177b816101ee565b82101561188a575b50662386f26fc10000611795816101ee565b821015611868575b506305f5e1006117ac816101ee565b821015611846575b506127106117c1816101ee565b821015611824575b5060646117d5816101ee565b821015611802575b506117eb610d50600a6101ee565b10156117f45790565b610192906103f060016101ee565b61181d916116d6611812926101ee565b916103f060026101ee565b90386117dd565b61183f916116d6611834926101ee565b916103f060046101ee565b90386117c9565b611861916116d6611856926101ee565b916103f060086101ee565b90386117b4565b611883916116d6611878926101ee565b916103f060106101ee565b903861179d565b6118a5916116d661189a926101ee565b916103f060206101ee565b9038611783565b6118c7916116d66118bc926101ee565b916103f060406101ee565b9038611762565b90610192979695949392916118e16109c3565b611b24565b634e487b7160e01b600052601160045260246000fd5b600019811461190b5760010190565b6118e6565b9190820180921161190b57565b61019260a0610797565b6101929136916107d4565b9160001960089290920291821b911b610ad0565b9190611957610192610b19936101ee565b908354611932565b61017c91600091611946565b818110611976575050565b80611984600060019361195f565b0161196b565b9190601f811161199957505050565b6119ab61017c93600052602060002090565b906020601f8401819004830193106119cd575b6020601f90910104019061196b565b90915081906119be565b906119e0815190565b9067ffffffffffffffff821161032a57611a04826119fe855461023a565b8561198a565b602090601f8311600114611a3f57610b19929160009183611a34575b5050600019600883021c1916906002021790565b015190503880611a20565b601f19831691611a5485600052602060002090565b9260005b818110611a9257509160029391856001969410611a79575b50505002019055565b01516000196008601f8516021c19169055388080611a70565b91936020600181928787015181550195019201611a58565b9061017c916119d7565b61017c9190611ae190608090600490611acf8161103c875190565b611ae760018201611ae1602088015190565b90611aaa565b611af96002820161103c604088015190565b611b1360038201611b0d6060880151151590565b90611370565b0192015190565b9061017c91611ab4565b509395909491611b34600761021a565b96611b3e886118fc565b611b49906007610f30565b611b538887611c09565b611b5d9042611910565b600091611b6861191d565b95611b738985890152565b611b7c91611927565b6020860152604085015215156060840152611b9691611927565b6080820152611ba68460086101fb565b90611bb091611b1a565b7f3d33d1076da5ff846213366be62cdb31e30a7c72f55e923f3a76a7623330af12611bda846101ee565b91611be490610af9565b92611bee60405190565b908152602090a390565b6101929695949392919060006118ce565b61017c91611c15610cc4565b919061017c9291611c268282611c30565b610efd60006109a0565b90611c3b60006109a0565b916001600160a01b0383166001600160a01b03821614611cc457611c60918391610f47565b611c726001600160a01b0383166109d6565b03611c7a5750565b610a3590611c8760405190565b9182917f73c6ac6e000000000000000000000000000000000000000000000000000000008352600483016001600160a01b03909116815260200190565b610a3583610e9e60405190565b61017c90611cdd6109c3565b611d48565b15611ce957565b6040517f08c379a000000000000000000000000000000000000000000000000000000000815260206004820152601460248201527f546f6b656e20646f6573206e6f742065786973740000000000000000000000006044820152606490fd5b611d6b611d5482611093565b611d646109d66104b460006109a0565b1415611ce2565b611d8360016003611d7d8460086101fb565b01611370565b611dad7f4f4019213d198a6b2698d51c79895fa6c7e5a5c79e4f5c04f3285b44c24d18d6916101ee565b90611db760405190565b600090a2565b61017c90611cd1565b611dce61191d565b906000825260208080808086016060815201600081520160008152016060905250565b610192611dc6565b9061017c611e676004611e0a61191d565b94611e1b611e178261021a565b8752565b611e31611e2a6001830161032f565b6020880152565b611e47611e406002830161021a565b6040880152565b611e61611e58600383015460ff1690565b15156060880152565b0161032f565b6080840152565b61019290611df9565b611e9a61019291611e86611df1565b50611e93611d5482611093565b60086101fb565b611e6e56fea2646970667358221220946ec484bc8cc4f3183ba2f21bbfda047afe742dcb9ccbbdc782c7c0bd16d1bd64736f6c63430008140033","opcodes":"PUSH1 0x80 PUSH1 0x40 MSTORE CALLVALUE PUSH3 0x26 JUMPI PUSH3 0x14 PUSH3 0x110 JUMP JUMPDEST PUSH1 0x40 MLOAD PUSH2 0x1ED5 PUSH3 0x4CF DUP3 CODECOPY PUSH2 0x1ED5 SWAP1 RETURN JUMPDEST PUSH1 0x0 DUP1 REVERT JUMPDEST PUSH4 0x4E487B71 PUSH1 0xE0 SHL PUSH1 0x0 MSTORE PUSH1 0x41 PUSH1 0x4 MSTORE PUSH1 0x24 PUSH1 0x0 REVERT JUMPDEST SWAP1 PUSH1 0x1F ADD PUSH1 0x1F NOT AND DUP2 ADD SWAP1 DUP2 LT PUSH1 0x1 PUSH1 0x1 PUSH1 0x40 SHL SUB DUP3 GT OR PUSH3 0x63 JUMPI PUSH1 0x40 MSTORE JUMP JUMPDEST PUSH3 0x2B JUMP JUMPDEST SWAP1 PUSH3 0x80 PUSH3 0x78 PUSH1 0x40 MLOAD SWAP1 JUMP JUMPDEST SWAP3 DUP4 PUSH3 0x41 JUMP JUMPDEST JUMP JUMPDEST PUSH1 0x1 PUSH1 0x1 PUSH1 0x40 SHL SUB DUP2 GT PUSH3 0x63 JUMPI PUSH1 0x20 SWAP1 PUSH1 0x1F ADD PUSH1 0x1F NOT AND ADD SWAP1 JUMP JUMPDEST SWAP1 PUSH3 0xB5 PUSH3 0xAF DUP4 PUSH3 0x82 JUMP JUMPDEST PUSH3 0x69 JUMP JUMPDEST SWAP2 DUP3 MSTORE JUMP JUMPDEST PUSH3 0xC6 PUSH1 0xD PUSH3 0x9F JUMP JUMPDEST PUSH13 0x10D85C989BDB8810DC99591A5D PUSH1 0x9A SHL PUSH1 0x20 DUP3 ADD MSTORE SWAP1 JUMP JUMPDEST PUSH3 0xE9 PUSH3 0xBA JUMP JUMPDEST SWAP1 JUMP JUMPDEST PUSH3 0xF8 PUSH1 0x2 PUSH3 0x9F JUMP JUMPDEST PUSH2 0x4343 PUSH1 0xF0 SHL PUSH1 0x20 DUP3 ADD MSTORE SWAP1 JUMP JUMPDEST PUSH3 0xE9 PUSH3 0xEC JUMP JUMPDEST PUSH3 0x80 CALLER PUSH3 0x11F PUSH3 0xDF JUMP JUMPDEST PUSH3 0x129 PUSH3 0x106 JUMP JUMPDEST SWAP2 PUSH3 0x178 JUMP JUMPDEST PUSH3 0x140 PUSH3 0xE9 PUSH3 0xE9 SWAP3 SWAP1 JUMP JUMPDEST PUSH1 0x1 PUSH1 0x1 PUSH1 0xA0 SHL SUB AND SWAP1 JUMP JUMPDEST PUSH3 0xE9 SWAP1 PUSH3 0x130 JUMP JUMPDEST PUSH3 0x162 SWAP1 PUSH3 0x140 JUMP JUMPDEST SWAP1 MSTORE JUMP JUMPDEST PUSH1 0x20 DUP2 ADD SWAP3 SWAP2 PUSH3 0x80 SWAP2 SWAP1 PUSH3 0x157 JUMP JUMPDEST SWAP2 PUSH3 0x184 SWAP2 PUSH3 0x3E3 JUMP JUMPDEST PUSH3 0x190 PUSH1 0x0 PUSH3 0x14C JUMP JUMPDEST PUSH3 0x19B DUP2 PUSH3 0x140 JUMP JUMPDEST PUSH3 0x1A6 DUP4 PUSH3 0x140 JUMP JUMPDEST EQ PUSH3 0x1B8 JUMPI POP PUSH3 0x80 SWAP1 PUSH3 0x46C JUMP JUMPDEST PUSH3 0x1DE SWAP1 PUSH3 0x1C7 PUSH1 0x40 MLOAD SWAP1 JUMP JUMPDEST PUSH4 0x1E4FBDF7 PUSH1 0xE0 SHL DUP2 MSTORE SWAP2 DUP3 SWAP2 PUSH1 0x4 DUP4 ADD PUSH3 0x166 JUMP JUMPDEST SUB SWAP1 REVERT JUMPDEST PUSH4 0x4E487B71 PUSH1 0xE0 SHL PUSH1 0x0 MSTORE PUSH1 0x22 PUSH1 0x4 MSTORE PUSH1 0x24 PUSH1 0x0 REVERT JUMPDEST SWAP1 PUSH1 0x1 PUSH1 0x2 DUP4 DIV SWAP3 AND DUP1 ISZERO PUSH3 0x21B JUMPI JUMPDEST PUSH1 0x20 DUP4 LT EQ PUSH3 0x215 JUMPI JUMP JUMPDEST PUSH3 0x1E2 JUMP JUMPDEST SWAP2 PUSH1 0x7F AND SWAP2 PUSH3 0x209 JUMP JUMPDEST SWAP2 PUSH1 0x0 NOT PUSH1 0x8 SWAP3 SWAP1 SWAP3 MUL SWAP2 DUP3 SHL SWAP2 SHL JUMPDEST SWAP2 DUP2 NOT AND SWAP2 AND OR SWAP1 JUMP JUMPDEST PUSH3 0xE9 PUSH3 0xE9 PUSH3 0xE9 SWAP3 SWAP1 JUMP JUMPDEST SWAP2 SWAP1 PUSH3 0x265 PUSH3 0xE9 PUSH3 0x26E SWAP4 PUSH3 0x240 JUMP JUMPDEST SWAP1 DUP4 SLOAD PUSH3 0x226 JUMP JUMPDEST SWAP1 SSTORE JUMP JUMPDEST PUSH3 0x80 SWAP2 PUSH1 0x0 SWAP2 PUSH3 0x250 JUMP JUMPDEST DUP2 DUP2 LT PUSH3 0x28C JUMPI POP POP JUMP JUMPDEST DUP1 PUSH3 0x29C PUSH1 0x0 PUSH1 0x1 SWAP4 PUSH3 0x272 JUMP JUMPDEST ADD PUSH3 0x280 JUMP JUMPDEST SWAP2 SWAP1 PUSH1 0x1F DUP2 GT PUSH3 0x2B3 JUMPI POP POP POP JUMP JUMPDEST PUSH3 0x2C7 PUSH3 0x80 SWAP4 PUSH1 0x0 MSTORE PUSH1 0x20 PUSH1 0x0 KECCAK256 SWAP1 JUMP JUMPDEST SWAP1 PUSH1 0x20 PUSH1 0x1F DUP5 ADD DUP2 SWAP1 DIV DUP4 ADD SWAP4 LT PUSH3 0x2EB JUMPI JUMPDEST PUSH1 0x20 PUSH1 0x1F SWAP1 SWAP2 ADD DIV ADD SWAP1 PUSH3 0x280 JUMP JUMPDEST SWAP1 SWAP2 POP DUP2 SWAP1 PUSH3 0x2DB JUMP JUMPDEST SWAP1 PUSH3 0x300 DUP2 MLOAD SWAP1 JUMP JUMPDEST SWAP1 PUSH1 0x1 PUSH1 0x1 PUSH1 0x40 SHL SUB DUP3 GT PUSH3 0x63 JUMPI PUSH3 0x328 DUP3 PUSH3 0x321 DUP6 SLOAD PUSH3 0x1F8 JUMP JUMPDEST DUP6 PUSH3 0x2A3 JUMP JUMPDEST PUSH1 0x20 SWAP1 PUSH1 0x1F DUP4 GT PUSH1 0x1 EQ PUSH3 0x367 JUMPI PUSH3 0x26E SWAP3 SWAP2 PUSH1 0x0 SWAP2 DUP4 PUSH3 0x35B JUMPI JUMPDEST POP POP PUSH1 0x0 NOT PUSH1 0x8 DUP4 MUL SHR NOT AND SWAP1 PUSH1 0x2 MUL OR SWAP1 JUMP JUMPDEST ADD MLOAD SWAP1 POP CODESIZE DUP1 PUSH3 0x347 JUMP JUMPDEST PUSH1 0x1F NOT DUP4 AND SWAP2 PUSH3 0x37D DUP6 PUSH1 0x0 MSTORE PUSH1 0x20 PUSH1 0x0 KECCAK256 SWAP1 JUMP JUMPDEST SWAP3 PUSH1 0x0 JUMPDEST DUP2 DUP2 LT PUSH3 0x3BE JUMPI POP SWAP2 PUSH1 0x2 SWAP4 SWAP2 DUP6 PUSH1 0x1 SWAP7 SWAP5 LT PUSH3 0x3A4 JUMPI JUMPDEST POP POP POP MUL ADD SWAP1 SSTORE JUMP JUMPDEST ADD MLOAD PUSH1 0x0 NOT PUSH1 0x8 PUSH1 0x1F DUP6 AND MUL SHR NOT AND SWAP1 SSTORE CODESIZE DUP1 DUP1 PUSH3 0x39B JUMP JUMPDEST SWAP2 SWAP4 PUSH1 0x20 PUSH1 0x1 DUP2 SWAP3 DUP8 DUP8 ADD MLOAD DUP2 SSTORE ADD SWAP6 ADD SWAP3 ADD PUSH3 0x381 JUMP JUMPDEST SWAP1 PUSH3 0x80 SWAP2 PUSH3 0x2F6 JUMP JUMPDEST SWAP1 PUSH3 0x3F5 PUSH3 0x80 SWAP3 PUSH1 0x0 PUSH3 0x3D7 JUMP JUMPDEST PUSH1 0x1 PUSH3 0x3D7 JUMP JUMPDEST PUSH3 0xE9 SWAP1 PUSH3 0x140 JUMP JUMPDEST PUSH3 0xE9 SWAP1 SLOAD PUSH3 0x3FD JUMP JUMPDEST SWAP1 PUSH1 0x1 PUSH1 0x1 PUSH1 0xA0 SHL SUB SWAP1 PUSH3 0x236 JUMP JUMPDEST PUSH3 0xE9 SWAP1 PUSH3 0x140 SWAP1 PUSH1 0x1 PUSH1 0x1 PUSH1 0xA0 SHL SUB AND DUP3 JUMP JUMPDEST PUSH3 0xE9 SWAP1 PUSH3 0x424 JUMP JUMPDEST PUSH3 0xE9 SWAP1 PUSH3 0x43A JUMP JUMPDEST SWAP1 PUSH3 0x464 PUSH3 0xE9 PUSH3 0x26E SWAP3 PUSH3 0x445 JUMP JUMPDEST DUP3 SLOAD PUSH3 0x414 JUMP JUMPDEST PUSH3 0x478 PUSH1 0x6 PUSH3 0x408 JUMP JUMPDEST SWAP1 PUSH3 0x486 DUP2 PUSH1 0x6 PUSH3 0x450 JUMP JUMPDEST PUSH3 0x4BD PUSH3 0x4B6 PUSH32 0x8BE0079C531659141344CD1FD0A4F28419497F9722A3DAAFE3B4186F6B6457E0 SWAP4 PUSH3 0x445 JUMP JUMPDEST SWAP2 PUSH3 0x445 JUMP JUMPDEST SWAP2 PUSH3 0x4C8 PUSH1 0x40 MLOAD SWAP1 JUMP JUMPDEST PUSH1 0x0 SWAP1 LOG3 JUMP INVALID PUSH1 0x80 PUSH1 0x40 MSTORE PUSH1 0x4 CALLDATASIZE LT ISZERO PUSH2 0x12 JUMPI PUSH1 0x0 DUP1 REVERT JUMPDEST PUSH1 0x0 CALLDATALOAD PUSH1 0xE0 SHR DUP1 PUSH4 0x1FFC9A7 EQ PUSH2 0x152 JUMPI DUP1 PUSH4 0x36A1C22 EQ PUSH2 0x14D JUMPI DUP1 PUSH4 0x6FDDE03 EQ PUSH2 0x148 JUMPI DUP1 PUSH4 0x81812FC EQ PUSH2 0x143 JUMPI DUP1 PUSH4 0x95EA7B3 EQ PUSH2 0x13E JUMPI DUP1 PUSH4 0x99C8463 EQ PUSH2 0x139 JUMPI DUP1 PUSH4 0x14FE83F8 EQ PUSH2 0x134 JUMPI DUP1 PUSH4 0x23B872DD EQ PUSH2 0x12F JUMPI DUP1 PUSH4 0x42842E0E EQ PUSH2 0x12A JUMPI DUP1 PUSH4 0x6352211E EQ PUSH2 0x125 JUMPI DUP1 PUSH4 0x70A08231 EQ PUSH2 0x120 JUMPI DUP1 PUSH4 0x715018A6 EQ PUSH2 0x11B JUMPI DUP1 PUSH4 0x8DA5CB5B EQ PUSH2 0x116 JUMPI DUP1 PUSH4 0x95D89B41 EQ PUSH2 0x111 JUMPI DUP1 PUSH4 0xA22CB465 EQ PUSH2 0x10C JUMPI DUP1 PUSH4 0xB88D4FDE EQ PUSH2 0x107 JUMPI DUP1 PUSH4 0xC87B56DD EQ PUSH2 0x102 JUMPI DUP1 PUSH4 0xE985E9C5 EQ PUSH2 0xFD JUMPI DUP1 PUSH4 0xF2FDE38B EQ PUSH2 0xF8 JUMPI PUSH4 0xF85AAFBD SUB PUSH2 0x157 JUMPI PUSH2 0x95C JUMP JUMPDEST PUSH2 0x8E4 JUMP JUMPDEST PUSH2 0x8C8 JUMP JUMPDEST PUSH2 0x88A JUMP JUMPDEST PUSH2 0x86E JUMP JUMPDEST PUSH2 0x77E JUMP JUMPDEST PUSH2 0x72B JUMP JUMPDEST PUSH2 0x706 JUMP JUMPDEST PUSH2 0x6EE JUMP JUMPDEST PUSH2 0x6D3 JUMP JUMPDEST PUSH2 0x6A4 JUMP JUMPDEST PUSH2 0x68B JUMP JUMPDEST PUSH2 0x672 JUMP JUMPDEST PUSH2 0x62A JUMP JUMPDEST PUSH2 0x5F8 JUMP JUMPDEST PUSH2 0x534 JUMP JUMPDEST PUSH2 0x4C0 JUMP JUMPDEST PUSH2 0x48D JUMP JUMPDEST PUSH2 0x440 JUMP JUMPDEST PUSH2 0x195 JUMP JUMPDEST PUSH1 0x0 DUP1 REVERT JUMPDEST PUSH1 0x1 PUSH1 0x1 PUSH1 0xE0 SHL SUB NOT DUP2 AND JUMPDEST SUB PUSH2 0x157 JUMPI JUMP JUMPDEST SWAP1 POP CALLDATALOAD SWAP1 PUSH2 0x17C DUP3 PUSH2 0x15C JUMP JUMPDEST JUMP JUMPDEST SWAP1 PUSH1 0x20 DUP3 DUP3 SUB SLT PUSH2 0x157 JUMPI PUSH2 0x192 SWAP2 PUSH2 0x16F JUMP JUMPDEST SWAP1 JUMP JUMPDEST CALLVALUE PUSH2 0x157 JUMPI PUSH2 0x1C3 PUSH2 0x1B0 PUSH2 0x1AB CALLDATASIZE PUSH1 0x4 PUSH2 0x17E JUMP JUMPDEST PUSH2 0xB7A JUMP JUMPDEST PUSH1 0x40 MLOAD JUMPDEST SWAP2 DUP3 SWAP2 DUP3 SWAP1 ISZERO ISZERO DUP2 MSTORE PUSH1 0x20 ADD SWAP1 JUMP JUMPDEST SUB SWAP1 RETURN JUMPDEST DUP1 PUSH2 0x168 JUMP JUMPDEST SWAP1 POP CALLDATALOAD SWAP1 PUSH2 0x17C DUP3 PUSH2 0x1C7 JUMP JUMPDEST SWAP1 PUSH1 0x20 DUP3 DUP3 SUB SLT PUSH2 0x157 JUMPI PUSH2 0x192 SWAP2 PUSH2 0x1CD JUMP JUMPDEST PUSH2 0x192 PUSH2 0x192 PUSH2 0x192 SWAP3 SWAP1 JUMP JUMPDEST SWAP1 PUSH2 0x205 SWAP1 PUSH2 0x1EE JUMP JUMPDEST PUSH1 0x0 MSTORE PUSH1 0x20 MSTORE PUSH1 0x40 PUSH1 0x0 KECCAK256 SWAP1 JUMP JUMPDEST PUSH2 0x192 SWAP1 DUP2 JUMP JUMPDEST PUSH2 0x192 SWAP1 SLOAD PUSH2 0x213 JUMP JUMPDEST PUSH4 0x4E487B71 PUSH1 0xE0 SHL PUSH1 0x0 MSTORE PUSH1 0x22 PUSH1 0x4 MSTORE PUSH1 0x24 PUSH1 0x0 REVERT JUMPDEST SWAP1 PUSH1 0x1 PUSH1 0x2 DUP4 DIV SWAP3 AND DUP1 ISZERO PUSH2 0x25A JUMPI JUMPDEST PUSH1 0x20 DUP4 LT EQ PUSH2 0x255 JUMPI JUMP JUMPDEST PUSH2 0x224 JUMP JUMPDEST SWAP2 PUSH1 0x7F AND SWAP2 PUSH2 0x24A JUMP JUMPDEST DUP1 SLOAD PUSH1 0x0 SWAP4 SWAP3 SWAP2 PUSH2 0x281 PUSH2 0x277 DUP4 PUSH2 0x23A JUMP JUMPDEST DUP1 DUP6 MSTORE SWAP4 PUSH1 0x20 ADD SWAP1 JUMP JUMPDEST SWAP2 PUSH1 0x1 DUP2 AND SWAP1 DUP2 ISZERO PUSH2 0x2D3 JUMPI POP PUSH1 0x1 EQ PUSH2 0x29A JUMPI POP POP POP JUMP JUMPDEST PUSH2 0x2AD SWAP2 SWAP3 SWAP4 SWAP5 POP PUSH1 0x0 MSTORE PUSH1 0x20 PUSH1 0x0 KECCAK256 SWAP1 JUMP JUMPDEST SWAP2 PUSH1 0x0 SWAP3 JUMPDEST DUP2 DUP5 LT PUSH2 0x2BF JUMPI POP POP ADD SWAP1 JUMP JUMPDEST DUP1 SLOAD DUP5 DUP5 ADD MSTORE PUSH1 0x20 SWAP1 SWAP4 ADD SWAP3 PUSH1 0x1 ADD PUSH2 0x2B2 JUMP JUMPDEST SWAP3 SWAP5 SWAP6 POP POP POP PUSH1 0xFF NOT AND DUP3 MSTORE ISZERO ISZERO PUSH1 0x20 MUL ADD SWAP1 JUMP JUMPDEST SWAP1 PUSH2 0x192 SWAP2 PUSH2 0x264 JUMP JUMPDEST PUSH4 0x4E487B71 PUSH1 0xE0 SHL PUSH1 0x0 MSTORE PUSH1 0x41 PUSH1 0x4 MSTORE PUSH1 0x24 PUSH1 0x0 REVERT JUMPDEST SWAP1 PUSH1 0x1F ADD PUSH1 0x1F NOT AND DUP2 ADD SWAP1 DUP2 LT PUSH8 0xFFFFFFFFFFFFFFFF DUP3 GT OR PUSH2 0x32A JUMPI PUSH1 0x40 MSTORE JUMP JUMPDEST PUSH2 0x2F2 JUMP JUMPDEST SWAP1 PUSH2 0x17C PUSH2 0x349 SWAP3 PUSH2 0x340 PUSH1 0x40 MLOAD SWAP1 JUMP JUMPDEST SWAP4 DUP5 DUP1 SWAP3 PUSH2 0x2E8 JUMP JUMPDEST SUB DUP4 PUSH2 0x308 JUMP JUMPDEST PUSH2 0x35B SWAP1 PUSH1 0x8 PUSH2 0x1FB JUMP JUMPDEST PUSH2 0x364 DUP2 PUSH2 0x21A JUMP JUMPDEST SWAP2 PUSH2 0x371 PUSH1 0x1 DUP4 ADD PUSH2 0x32F JUMP JUMPDEST SWAP2 PUSH2 0x37E PUSH1 0x2 DUP3 ADD PUSH2 0x21A JUMP JUMPDEST SWAP2 PUSH2 0x192 PUSH1 0x4 PUSH2 0x392 PUSH1 0x3 DUP6 ADD SLOAD PUSH1 0xFF AND SWAP1 JUMP JUMPDEST SWAP4 ADD PUSH2 0x32F JUMP JUMPDEST PUSH1 0x0 JUMPDEST DUP4 DUP2 LT PUSH2 0x3AC JUMPI POP POP PUSH1 0x0 SWAP2 ADD MSTORE JUMP JUMPDEST DUP2 DUP2 ADD MLOAD DUP4 DUP3 ADD MSTORE PUSH1 0x20 ADD PUSH2 0x39C JUMP JUMPDEST PUSH2 0x3DD PUSH2 0x3E6 PUSH1 0x20 SWAP4 PUSH2 0x3F0 SWAP4 PUSH2 0x3D1 DUP2 MLOAD SWAP1 JUMP JUMPDEST DUP1 DUP4 MSTORE SWAP4 DUP5 SWAP3 PUSH1 0x20 ADD SWAP1 JUMP JUMPDEST SWAP6 DUP7 SWAP2 ADD PUSH2 0x399 JUMP JUMPDEST PUSH1 0x1F ADD PUSH1 0x1F NOT AND SWAP1 JUMP JUMPDEST ADD SWAP1 JUMP JUMPDEST SWAP2 SWAP4 PUSH2 0x42A PUSH2 0x422 PUSH2 0x433 SWAP4 PUSH2 0x192 SWAP9 SWAP7 SWAP8 PUSH2 0x415 PUSH1 0xA0 DUP9 ADD SWAP3 PUSH1 0x0 DUP10 ADD MSTORE JUMP JUMPDEST DUP7 DUP3 SUB PUSH1 0x20 DUP9 ADD MSTORE PUSH2 0x3BC JUMP JUMPDEST SWAP6 PUSH1 0x40 DUP6 ADD MSTORE JUMP JUMPDEST ISZERO ISZERO PUSH1 0x60 DUP4 ADD MSTORE JUMP JUMPDEST PUSH1 0x80 DUP2 DUP5 SUB SWAP2 ADD MSTORE PUSH2 0x3BC JUMP JUMPDEST CALLVALUE PUSH2 0x157 JUMPI PUSH2 0x1C3 PUSH2 0x45B PUSH2 0x456 CALLDATASIZE PUSH1 0x4 PUSH2 0x1DA JUMP JUMPDEST PUSH2 0x350 JUMP JUMPDEST SWAP2 PUSH2 0x468 SWAP6 SWAP4 SWAP6 PUSH1 0x40 MLOAD SWAP1 JUMP JUMPDEST SWAP6 DUP7 SWAP6 DUP7 PUSH2 0x3F4 JUMP JUMPDEST PUSH1 0x0 SWAP2 SUB SLT PUSH2 0x157 JUMPI JUMP JUMPDEST PUSH1 0x20 DUP1 DUP3 MSTORE PUSH2 0x192 SWAP3 SWAP2 ADD SWAP1 PUSH2 0x3BC JUMP JUMPDEST CALLVALUE PUSH2 0x157 JUMPI PUSH2 0x49D CALLDATASIZE PUSH1 0x4 PUSH2 0x471 JUMP JUMPDEST PUSH2 0x1C3 PUSH2 0x4A8 PUSH2 0xC94 JUMP JUMPDEST PUSH1 0x40 MLOAD SWAP2 DUP3 SWAP2 DUP3 PUSH2 0x47C JUMP JUMPDEST PUSH1 0x1 PUSH1 0x1 PUSH1 0xA0 SHL SUB AND SWAP1 JUMP JUMPDEST CALLVALUE PUSH2 0x157 JUMPI PUSH2 0x1C3 PUSH2 0x4DB PUSH2 0x4D6 CALLDATASIZE PUSH1 0x4 PUSH2 0x1DA JUMP JUMPDEST PUSH2 0xD8B JUMP JUMPDEST PUSH1 0x40 MLOAD SWAP2 DUP3 SWAP2 DUP3 PUSH1 0x1 PUSH1 0x1 PUSH1 0xA0 SHL SUB SWAP1 SWAP2 AND DUP2 MSTORE PUSH1 0x20 ADD SWAP1 JUMP JUMPDEST PUSH1 0x1 PUSH1 0x1 PUSH1 0xA0 SHL SUB DUP2 AND PUSH2 0x168 JUMP JUMPDEST SWAP1 POP CALLDATALOAD SWAP1 PUSH2 0x17C DUP3 PUSH2 0x4F5 JUMP JUMPDEST SWAP2 SWAP1 PUSH1 0x40 DUP4 DUP3 SUB SLT PUSH2 0x157 JUMPI PUSH2 0x192 SWAP1 PUSH2 0x52B DUP2 DUP6 PUSH2 0x504 JUMP JUMPDEST SWAP4 PUSH1 0x20 ADD PUSH2 0x1CD JUMP JUMPDEST CALLVALUE PUSH2 0x157 JUMPI PUSH2 0x54D PUSH2 0x547 CALLDATASIZE PUSH1 0x4 PUSH2 0x511 JUMP JUMPDEST SWAP1 PUSH2 0xD80 JUMP JUMPDEST PUSH1 0x40 MLOAD STOP JUMPDEST SWAP1 SWAP2 DUP3 PUSH1 0x1F DUP4 ADD SLT ISZERO PUSH2 0x157 JUMPI DUP2 CALLDATALOAD SWAP2 PUSH8 0xFFFFFFFFFFFFFFFF DUP4 GT PUSH2 0x157 JUMPI PUSH1 0x20 ADD SWAP3 PUSH1 0x1 DUP4 MUL DUP5 ADD GT PUSH2 0x157 JUMPI JUMP JUMPDEST PUSH1 0xA0 DUP2 DUP4 SUB SLT PUSH2 0x157 JUMPI PUSH2 0x596 DUP3 DUP3 PUSH2 0x504 JUMP JUMPDEST SWAP3 PUSH2 0x5A4 DUP4 PUSH1 0x20 DUP5 ADD PUSH2 0x1CD JUMP JUMPDEST SWAP3 PUSH1 0x40 DUP4 ADD CALLDATALOAD PUSH8 0xFFFFFFFFFFFFFFFF DUP2 GT PUSH2 0x157 JUMPI DUP2 PUSH2 0x5C5 SWAP2 DUP6 ADD PUSH2 0x552 JUMP JUMPDEST SWAP3 SWAP1 SWAP4 PUSH2 0x5D5 DUP4 PUSH1 0x60 DUP4 ADD PUSH2 0x1CD JUMP JUMPDEST SWAP3 PUSH1 0x80 DUP3 ADD CALLDATALOAD PUSH8 0xFFFFFFFFFFFFFFFF DUP2 GT PUSH2 0x157 JUMPI PUSH2 0x5F4 SWAP3 ADD PUSH2 0x552 JUMP JUMPDEST SWAP1 SWAP2 JUMP JUMPDEST CALLVALUE PUSH2 0x157 JUMPI PUSH2 0x1C3 PUSH2 0x61A PUSH2 0x60E CALLDATASIZE PUSH1 0x4 PUSH2 0x582 JUMP JUMPDEST SWAP6 SWAP5 SWAP1 SWAP5 SWAP4 SWAP2 SWAP4 PUSH2 0x1BF8 JUMP JUMPDEST PUSH1 0x40 MLOAD SWAP2 DUP3 SWAP2 DUP3 SWAP1 DUP2 MSTORE PUSH1 0x20 ADD SWAP1 JUMP JUMPDEST CALLVALUE PUSH2 0x157 JUMPI PUSH2 0x54D PUSH2 0x63D CALLDATASIZE PUSH1 0x4 PUSH2 0x1DA JUMP JUMPDEST PUSH2 0x1DBD JUMP JUMPDEST SWAP1 SWAP2 PUSH1 0x60 DUP3 DUP5 SUB SLT PUSH2 0x157 JUMPI PUSH2 0x192 PUSH2 0x65B DUP5 DUP5 PUSH2 0x504 JUMP JUMPDEST SWAP4 PUSH2 0x669 DUP2 PUSH1 0x20 DUP7 ADD PUSH2 0x504 JUMP JUMPDEST SWAP4 PUSH1 0x40 ADD PUSH2 0x1CD JUMP JUMPDEST CALLVALUE PUSH2 0x157 JUMPI PUSH2 0x54D PUSH2 0x685 CALLDATASIZE PUSH1 0x4 PUSH2 0x642 JUMP JUMPDEST SWAP2 PUSH2 0xE06 JUMP JUMPDEST CALLVALUE PUSH2 0x157 JUMPI PUSH2 0x54D PUSH2 0x69E CALLDATASIZE PUSH1 0x4 PUSH2 0x642 JUMP JUMPDEST SWAP2 PUSH2 0xEDB JUMP JUMPDEST CALLVALUE PUSH2 0x157 JUMPI PUSH2 0x1C3 PUSH2 0x4DB PUSH2 0x6BA CALLDATASIZE PUSH1 0x4 PUSH2 0x1DA JUMP JUMPDEST PUSH2 0xC82 JUMP JUMPDEST SWAP1 PUSH1 0x20 DUP3 DUP3 SUB SLT PUSH2 0x157 JUMPI PUSH2 0x192 SWAP2 PUSH2 0x504 JUMP JUMPDEST CALLVALUE PUSH2 0x157 JUMPI PUSH2 0x1C3 PUSH2 0x61A PUSH2 0x6E9 CALLDATASIZE PUSH1 0x4 PUSH2 0x6BF JUMP JUMPDEST PUSH2 0xC01 JUMP JUMPDEST CALLVALUE PUSH2 0x157 JUMPI PUSH2 0x6FE CALLDATASIZE PUSH1 0x4 PUSH2 0x471 JUMP JUMPDEST PUSH2 0x54D PUSH2 0x9BB JUMP JUMPDEST CALLVALUE PUSH2 0x157 JUMPI PUSH2 0x716 CALLDATASIZE PUSH1 0x4 PUSH2 0x471 JUMP JUMPDEST PUSH2 0x1C3 PUSH2 0x4DB PUSH1 0x6 SLOAD PUSH1 0x1 PUSH1 0x1 PUSH1 0xA0 SHL SUB AND SWAP1 JUMP JUMPDEST CALLVALUE PUSH2 0x157 JUMPI PUSH2 0x73B CALLDATASIZE PUSH1 0x4 PUSH2 0x471 JUMP JUMPDEST PUSH2 0x1C3 PUSH2 0x4A8 PUSH2 0xC9E JUMP JUMPDEST DUP1 ISZERO ISZERO PUSH2 0x168 JUMP JUMPDEST SWAP1 POP CALLDATALOAD SWAP1 PUSH2 0x17C DUP3 PUSH2 0x746 JUMP JUMPDEST SWAP2 SWAP1 PUSH1 0x40 DUP4 DUP3 SUB SLT PUSH2 0x157 JUMPI PUSH2 0x192 SWAP1 PUSH2 0x775 DUP2 DUP6 PUSH2 0x504 JUMP JUMPDEST SWAP4 PUSH1 0x20 ADD PUSH2 0x74E JUMP JUMPDEST CALLVALUE PUSH2 0x157 JUMPI PUSH2 0x54D PUSH2 0x791 CALLDATASIZE PUSH1 0x4 PUSH2 0x75B JUMP JUMPDEST SWAP1 PUSH2 0xD9E JUMP JUMPDEST SWAP1 PUSH2 0x17C PUSH2 0x7A4 PUSH1 0x40 MLOAD SWAP1 JUMP JUMPDEST SWAP3 DUP4 PUSH2 0x308 JUMP JUMPDEST PUSH8 0xFFFFFFFFFFFFFFFF DUP2 GT PUSH2 0x32A JUMPI PUSH1 0x20 SWAP1 PUSH1 0x1F ADD PUSH1 0x1F NOT AND ADD SWAP1 JUMP JUMPDEST SWAP1 DUP3 PUSH1 0x0 SWAP4 SWAP3 DUP3 CALLDATACOPY ADD MSTORE JUMP JUMPDEST SWAP1 SWAP3 SWAP2 SWAP3 PUSH2 0x7E9 PUSH2 0x7E4 DUP3 PUSH2 0x7AB JUMP JUMPDEST PUSH2 0x797 JUMP JUMPDEST SWAP4 DUP2 DUP6 MSTORE PUSH1 0x20 DUP6 ADD SWAP1 DUP3 DUP5 ADD GT PUSH2 0x157 JUMPI PUSH2 0x17C SWAP3 PUSH2 0x7C8 JUMP JUMPDEST SWAP1 DUP1 PUSH1 0x1F DUP4 ADD SLT ISZERO PUSH2 0x157 JUMPI DUP2 PUSH1 0x20 PUSH2 0x192 SWAP4 CALLDATALOAD SWAP2 ADD PUSH2 0x7D4 JUMP JUMPDEST SWAP1 PUSH1 0x80 DUP3 DUP3 SUB SLT PUSH2 0x157 JUMPI PUSH2 0x833 DUP2 DUP4 PUSH2 0x504 JUMP JUMPDEST SWAP3 PUSH2 0x841 DUP3 PUSH1 0x20 DUP6 ADD PUSH2 0x504 JUMP JUMPDEST SWAP3 PUSH2 0x84F DUP4 PUSH1 0x40 DUP4 ADD PUSH2 0x1CD JUMP JUMPDEST SWAP3 PUSH1 0x60 DUP3 ADD CALLDATALOAD PUSH8 0xFFFFFFFFFFFFFFFF DUP2 GT PUSH2 0x157 JUMPI PUSH2 0x192 SWAP3 ADD PUSH2 0x803 JUMP JUMPDEST CALLVALUE PUSH2 0x157 JUMPI PUSH2 0x54D PUSH2 0x881 CALLDATASIZE PUSH1 0x4 PUSH2 0x81E JUMP JUMPDEST SWAP3 SWAP2 SWAP1 SWAP2 PUSH2 0xEEB JUMP JUMPDEST CALLVALUE PUSH2 0x157 JUMPI PUSH2 0x1C3 PUSH2 0x4A8 PUSH2 0x8A0 CALLDATASIZE PUSH1 0x4 PUSH2 0x1DA JUMP JUMPDEST PUSH2 0xD2D JUMP JUMPDEST SWAP2 SWAP1 PUSH1 0x40 DUP4 DUP3 SUB SLT PUSH2 0x157 JUMPI PUSH2 0x192 SWAP1 PUSH2 0x8BF DUP2 DUP6 PUSH2 0x504 JUMP JUMPDEST SWAP4 PUSH1 0x20 ADD PUSH2 0x504 JUMP JUMPDEST CALLVALUE PUSH2 0x157 JUMPI PUSH2 0x1C3 PUSH2 0x1B0 PUSH2 0x8DE CALLDATASIZE PUSH1 0x4 PUSH2 0x8A5 JUMP JUMPDEST SWAP1 PUSH2 0xDA9 JUMP JUMPDEST CALLVALUE PUSH2 0x157 JUMPI PUSH2 0x54D PUSH2 0x8F7 CALLDATASIZE PUSH1 0x4 PUSH2 0x6BF JUMP JUMPDEST PUSH2 0xABC JUMP JUMPDEST DUP1 MLOAD DUP3 MSTORE PUSH2 0x192 SWAP2 PUSH1 0x80 PUSH2 0x91F PUSH1 0xA0 DUP4 ADD PUSH1 0x20 DUP6 ADD MLOAD DUP5 DUP3 SUB PUSH1 0x20 DUP7 ADD MSTORE PUSH2 0x3BC JUMP JUMPDEST SWAP3 PUSH2 0x92F PUSH1 0x40 DUP3 ADD MLOAD PUSH1 0x40 DUP6 ADD MSTORE JUMP JUMPDEST PUSH1 0x60 DUP2 DUP2 ADD MLOAD ISZERO ISZERO SWAP1 DUP5 ADD MSTORE ADD MLOAD SWAP1 PUSH1 0x80 DUP2 DUP5 SUB SWAP2 ADD MSTORE PUSH2 0x3BC JUMP JUMPDEST PUSH1 0x20 DUP1 DUP3 MSTORE PUSH2 0x192 SWAP3 SWAP2 ADD SWAP1 PUSH2 0x8FC JUMP JUMPDEST CALLVALUE PUSH2 0x157 JUMPI PUSH2 0x1C3 PUSH2 0x977 PUSH2 0x972 CALLDATASIZE PUSH1 0x4 PUSH2 0x1DA JUMP JUMPDEST PUSH2 0x1E77 JUMP JUMPDEST PUSH1 0x40 MLOAD SWAP2 DUP3 SWAP2 DUP3 PUSH2 0x94B JUMP JUMPDEST PUSH2 0x98B PUSH2 0x9C3 JUMP JUMPDEST PUSH2 0x17C PUSH2 0x9A9 JUMP JUMPDEST PUSH2 0x4B4 PUSH2 0x192 PUSH2 0x192 SWAP3 SWAP1 JUMP JUMPDEST PUSH2 0x192 SWAP1 PUSH2 0x993 JUMP JUMPDEST PUSH2 0x17C PUSH2 0x9B6 PUSH1 0x0 PUSH2 0x9A0 JUMP JUMPDEST PUSH2 0xB1D JUMP JUMPDEST PUSH2 0x17C PUSH2 0x983 JUMP JUMPDEST PUSH1 0x6 SLOAD PUSH1 0x1 PUSH1 0x1 PUSH1 0xA0 SHL SUB AND CALLER SWAP1 PUSH2 0x9E3 DUP3 JUMPDEST SWAP2 PUSH1 0x1 PUSH1 0x1 PUSH1 0xA0 SHL SUB AND SWAP1 JUMP JUMPDEST SUB PUSH2 0x9EB JUMPI POP JUMP JUMPDEST PUSH2 0xA35 SWAP1 PUSH2 0x9F8 PUSH1 0x40 MLOAD SWAP1 JUMP JUMPDEST SWAP2 DUP3 SWAP2 PUSH32 0x118CDAA700000000000000000000000000000000000000000000000000000000 DUP4 MSTORE PUSH1 0x4 DUP4 ADD PUSH1 0x1 PUSH1 0x1 PUSH1 0xA0 SHL SUB SWAP1 SWAP2 AND DUP2 MSTORE PUSH1 0x20 ADD SWAP1 JUMP JUMPDEST SUB SWAP1 REVERT JUMPDEST PUSH2 0x17C SWAP1 PUSH2 0xA45 PUSH2 0x9C3 JUMP JUMPDEST PUSH2 0xA4F PUSH1 0x0 PUSH2 0x9A0 JUMP JUMPDEST PUSH1 0x1 PUSH1 0x1 PUSH1 0xA0 SHL SUB DUP2 AND PUSH1 0x1 PUSH1 0x1 PUSH1 0xA0 SHL SUB DUP4 AND EQ PUSH2 0xA72 JUMPI POP PUSH2 0x17C SWAP1 PUSH2 0xB1D JUMP JUMPDEST PUSH2 0xA35 SWAP1 PUSH2 0xA7F PUSH1 0x40 MLOAD SWAP1 JUMP JUMPDEST SWAP2 DUP3 SWAP2 PUSH32 0x1E4FBDF700000000000000000000000000000000000000000000000000000000 DUP4 MSTORE PUSH1 0x4 DUP4 ADD PUSH1 0x1 PUSH1 0x1 PUSH1 0xA0 SHL SUB SWAP1 SWAP2 AND DUP2 MSTORE PUSH1 0x20 ADD SWAP1 JUMP JUMPDEST PUSH2 0x17C SWAP1 PUSH2 0xA39 JUMP JUMPDEST SWAP1 PUSH1 0x1 PUSH1 0x1 PUSH1 0xA0 SHL SUB SWAP1 JUMPDEST SWAP2 DUP2 NOT AND SWAP2 AND OR SWAP1 JUMP JUMPDEST PUSH2 0x4B4 PUSH2 0x192 PUSH2 0x192 SWAP3 PUSH1 0x1 PUSH1 0x1 PUSH1 0xA0 SHL SUB AND SWAP1 JUMP JUMPDEST PUSH2 0x192 SWAP1 PUSH2 0xADA JUMP JUMPDEST PUSH2 0x192 SWAP1 PUSH2 0xAF0 JUMP JUMPDEST SWAP1 PUSH2 0xB12 PUSH2 0x192 PUSH2 0xB19 SWAP3 PUSH2 0xAF9 JUMP JUMPDEST DUP3 SLOAD PUSH2 0xAC5 JUMP JUMPDEST SWAP1 SSTORE JUMP JUMPDEST PUSH1 0x6 SLOAD PUSH1 0x1 PUSH1 0x1 PUSH1 0xA0 SHL SUB AND SWAP1 PUSH2 0xB35 DUP2 PUSH1 0x6 PUSH2 0xB02 JUMP JUMPDEST PUSH2 0xB68 PUSH2 0xB62 PUSH32 0x8BE0079C531659141344CD1FD0A4F28419497F9722A3DAAFE3B4186F6B6457E0 SWAP4 PUSH2 0xAF9 JUMP JUMPDEST SWAP2 PUSH2 0xAF9 JUMP JUMPDEST SWAP2 PUSH2 0xB72 PUSH1 0x40 MLOAD SWAP1 JUMP JUMPDEST DUP1 DUP1 JUMPDEST SUB SWAP1 LOG3 JUMP JUMPDEST PUSH32 0x80AC58CD00000000000000000000000000000000000000000000000000000000 PUSH1 0x1 PUSH1 0x1 PUSH1 0xE0 SHL SUB NOT DUP3 AND EQ SWAP1 DUP2 ISZERO PUSH2 0xBC3 JUMPI JUMPDEST DUP2 ISZERO PUSH2 0xBB9 JUMPI POP SWAP1 JUMP JUMPDEST PUSH2 0x192 SWAP2 POP PUSH2 0x16FD JUMP JUMPDEST PUSH1 0x1 PUSH1 0x1 PUSH1 0xE0 SHL SUB NOT DUP2 AND PUSH32 0x5B5E139F00000000000000000000000000000000000000000000000000000000 EQ SWAP2 POP PUSH2 0xBAF JUMP JUMPDEST SWAP1 PUSH2 0x205 SWAP1 PUSH2 0xAF9 JUMP JUMPDEST PUSH2 0xC0B PUSH1 0x0 PUSH2 0x9A0 JUMP JUMPDEST PUSH1 0x1 PUSH1 0x1 PUSH1 0xA0 SHL SUB DUP2 AND PUSH1 0x1 PUSH1 0x1 PUSH1 0xA0 SHL SUB DUP4 AND EQ PUSH2 0xC38 JUMPI POP PUSH2 0xC33 PUSH2 0x192 SWAP2 PUSH1 0x3 PUSH2 0xBF7 JUMP JUMPDEST PUSH2 0x21A JUMP JUMPDEST PUSH2 0xA35 SWAP1 PUSH2 0xC45 PUSH1 0x40 MLOAD SWAP1 JUMP JUMPDEST SWAP2 DUP3 SWAP2 PUSH32 0x89C62B6400000000000000000000000000000000000000000000000000000000 DUP4 MSTORE PUSH1 0x4 DUP4 ADD PUSH1 0x1 PUSH1 0x1 PUSH1 0xA0 SHL SUB SWAP1 SWAP2 AND DUP2 MSTORE PUSH1 0x20 ADD SWAP1 JUMP JUMPDEST PUSH2 0x192 SWAP1 PUSH2 0x1445 JUMP JUMPDEST PUSH2 0x192 SWAP1 PUSH2 0x32F JUMP JUMPDEST PUSH2 0x192 PUSH1 0x0 PUSH2 0xC8B JUMP JUMPDEST PUSH2 0x192 PUSH1 0x1 PUSH2 0xC8B JUMP JUMPDEST SWAP1 PUSH2 0xCB5 PUSH2 0x7E4 DUP4 PUSH2 0x7AB JUMP JUMPDEST SWAP2 DUP3 MSTORE JUMP JUMPDEST PUSH2 0x192 PUSH1 0x0 PUSH2 0xCA8 JUMP JUMPDEST PUSH2 0x192 PUSH2 0xCBA JUMP JUMPDEST PUSH2 0x3F0 PUSH2 0xCE4 SWAP3 PUSH1 0x20 SWAP3 PUSH2 0xCDE DUP2 MLOAD SWAP1 JUMP JUMPDEST SWAP5 DUP6 SWAP3 SWAP1 JUMP JUMPDEST SWAP4 DUP5 SWAP2 ADD PUSH2 0x399 JUMP JUMPDEST PUSH2 0xCFB SWAP1 PUSH2 0x192 SWAP4 SWAP3 PUSH2 0xCCC JUMP JUMPDEST SWAP1 PUSH2 0xCCC JUMP JUMPDEST PUSH2 0xD21 SWAP3 SWAP2 PUSH2 0x17C SWAP2 PUSH2 0xD13 PUSH1 0x40 MLOAD SWAP1 JUMP JUMPDEST SWAP5 DUP6 SWAP3 PUSH1 0x20 DUP5 ADD SWAP3 DUP4 PUSH2 0xCED JUMP JUMPDEST SWAP1 DUP2 SUB DUP3 MSTORE SUB DUP4 PUSH2 0x308 JUMP JUMPDEST PUSH2 0xD36 DUP2 PUSH2 0x1445 JUMP JUMPDEST POP PUSH2 0xD3F PUSH2 0xD78 JUMP JUMPDEST DUP1 MLOAD PUSH1 0x0 SWAP1 PUSH2 0xD54 PUSH2 0xD50 DUP4 PUSH2 0x1EE JUMP JUMPDEST SWAP2 SWAP1 JUMP JUMPDEST GT ISZERO SWAP1 POP PUSH2 0xD6E JUMPI PUSH2 0xD68 PUSH2 0x192 SWAP3 PUSH2 0x1665 JUMP JUMPDEST SWAP1 PUSH2 0xD01 JUMP JUMPDEST POP POP PUSH2 0x192 PUSH2 0xCC4 JUMP JUMPDEST PUSH2 0x192 PUSH2 0xCC4 JUMP JUMPDEST PUSH2 0x17C SWAP2 CALLER SWAP2 PUSH2 0x1207 JUMP JUMPDEST PUSH2 0x192 SWAP1 PUSH2 0xD98 DUP2 PUSH2 0x1445 JUMP JUMPDEST POP PUSH2 0xF02 JUMP JUMPDEST PUSH2 0x17C SWAP2 SWAP1 CALLER PUSH2 0x1387 JUMP JUMPDEST PUSH2 0x192 SWAP2 PUSH2 0xDC4 PUSH2 0xDC9 SWAP3 PUSH2 0xDBC PUSH1 0x0 SWAP1 JUMP JUMPDEST POP PUSH1 0x5 PUSH2 0xBF7 JUMP JUMPDEST PUSH2 0xBF7 JUMP JUMPDEST SLOAD PUSH1 0xFF AND SWAP1 JUMP JUMPDEST PUSH1 0x1 PUSH1 0x1 PUSH1 0xA0 SHL SUB SWAP1 SWAP2 AND DUP2 MSTORE PUSH1 0x60 DUP2 ADD SWAP4 SWAP3 PUSH2 0x17C SWAP3 SWAP1 SWAP2 PUSH1 0x40 SWAP2 PUSH2 0xDF7 SWAP1 PUSH1 0x20 DUP4 ADD MSTORE JUMP JUMPDEST ADD SWAP1 PUSH1 0x1 PUSH1 0x1 PUSH1 0xA0 SHL SUB AND SWAP1 MSTORE JUMP JUMPDEST SWAP1 PUSH2 0xE11 PUSH1 0x0 PUSH2 0x9A0 JUMP JUMPDEST PUSH1 0x1 PUSH1 0x1 PUSH1 0xA0 SHL SUB DUP2 AND PUSH1 0x1 PUSH1 0x1 PUSH1 0xA0 SHL SUB DUP4 AND EQ PUSH2 0xE91 JUMPI POP PUSH2 0xE37 SWAP1 DUP4 CALLER SWAP2 PUSH2 0xF47 JUMP JUMPDEST PUSH1 0x1 PUSH1 0x1 PUSH1 0xA0 SHL SUB DUP3 AND PUSH1 0x1 PUSH1 0x1 PUSH1 0xA0 SHL SUB DUP3 AND SUB PUSH2 0xE55 JUMPI POP POP POP JUMP JUMPDEST PUSH2 0xA35 SWAP1 PUSH2 0xE62 PUSH1 0x40 MLOAD SWAP1 JUMP JUMPDEST SWAP4 DUP5 SWAP4 PUSH32 0x64283D7B00000000000000000000000000000000000000000000000000000000 DUP6 MSTORE PUSH1 0x4 DUP6 ADD PUSH2 0xDD0 JUMP JUMPDEST PUSH2 0xA35 SWAP1 PUSH2 0xE9E PUSH1 0x40 MLOAD SWAP1 JUMP JUMPDEST SWAP2 DUP3 SWAP2 PUSH32 0x64A0AE9200000000000000000000000000000000000000000000000000000000 DUP4 MSTORE PUSH1 0x4 DUP4 ADD PUSH1 0x1 PUSH1 0x1 PUSH1 0xA0 SHL SUB SWAP1 SWAP2 AND DUP2 MSTORE PUSH1 0x20 ADD SWAP1 JUMP JUMPDEST SWAP1 SWAP2 PUSH2 0x17C SWAP3 PUSH2 0xEE9 PUSH2 0xCC4 JUMP JUMPDEST SWAP3 JUMPDEST SWAP1 PUSH2 0x17C SWAP4 SWAP3 SWAP2 PUSH2 0xEFD DUP4 DUP4 DUP4 PUSH2 0xE06 JUMP JUMPDEST PUSH2 0x14ED JUMP JUMPDEST PUSH2 0xF19 PUSH2 0x192 SWAP2 PUSH2 0xF11 PUSH1 0x0 SWAP1 JUMP JUMPDEST POP PUSH1 0x4 PUSH2 0x1FB JUMP JUMPDEST SLOAD PUSH1 0x1 PUSH1 0x1 PUSH1 0xA0 SHL SUB AND SWAP1 JUMP JUMPDEST SWAP1 PUSH1 0x0 NOT SWAP1 PUSH2 0xAD0 JUMP JUMPDEST SWAP1 PUSH2 0xF40 PUSH2 0x192 PUSH2 0xB19 SWAP3 PUSH2 0x1EE JUMP JUMPDEST DUP3 SLOAD PUSH2 0xF26 JUMP JUMPDEST SWAP1 PUSH2 0xFA5 PUSH2 0xF54 DUP3 PUSH2 0x1093 JUMP JUMPDEST SWAP4 PUSH1 0x0 PUSH2 0xF60 DUP2 PUSH2 0x9A0 JUMP JUMPDEST SWAP2 DUP5 PUSH1 0x1 PUSH1 0x1 PUSH1 0xA0 SHL SUB DUP5 AND PUSH1 0x1 PUSH1 0x1 PUSH1 0xA0 SHL SUB DUP4 AND SUB PUSH2 0x1082 JUMPI JUMPDEST POP POP PUSH1 0x1 PUSH1 0x1 PUSH1 0xA0 SHL SUB DUP3 AND PUSH1 0x1 PUSH1 0x1 PUSH1 0xA0 SHL SUB DUP8 AND SUB PUSH2 0x1047 JUMPI JUMPDEST POP PUSH1 0x1 PUSH1 0x1 PUSH1 0xA0 SHL SUB AND SWAP1 JUMP JUMPDEST PUSH1 0x1 PUSH1 0x1 PUSH1 0xA0 SHL SUB DUP4 AND SUB PUSH2 0x1017 JUMPI JUMPDEST PUSH2 0xFC9 DUP3 PUSH2 0xFC4 DUP4 PUSH1 0x2 PUSH2 0x1FB JUMP JUMPDEST PUSH2 0xB02 JUMP JUMPDEST PUSH32 0xDDF252AD1BE2C89B69C2B068FC378DAA952BA7F163C4A11628F55A4DF523B3EF SWAP2 PUSH2 0x1006 PUSH2 0x1000 PUSH2 0xFFA DUP7 PUSH2 0xAF9 JUMP JUMPDEST SWAP3 PUSH2 0xAF9 JUMP JUMPDEST SWAP3 PUSH2 0x1EE JUMP JUMPDEST SWAP3 PUSH2 0x1010 PUSH1 0x40 MLOAD SWAP1 JUMP JUMPDEST PUSH1 0x0 SWAP1 LOG4 SWAP1 JUMP JUMPDEST PUSH2 0x1042 PUSH2 0x1024 PUSH1 0x1 PUSH2 0x1EE JUMP JUMPDEST PUSH2 0x103C PUSH2 0x1032 DUP6 PUSH1 0x3 PUSH2 0xBF7 JUMP JUMPDEST SWAP2 PUSH2 0x3F0 DUP4 PUSH2 0x21A JUMP JUMPDEST SWAP1 PUSH2 0xF30 JUMP JUMPDEST PUSH2 0xFB5 JUMP JUMPDEST PUSH2 0x1053 SWAP1 DUP3 DUP6 DUP2 PUSH2 0x1211 JUMP JUMPDEST PUSH2 0x107C PUSH2 0x1060 PUSH1 0x1 PUSH2 0x1EE JUMP JUMPDEST PUSH2 0x103C PUSH2 0x106E DUP9 PUSH1 0x3 PUSH2 0xBF7 JUMP JUMPDEST SWAP2 PUSH2 0x1078 DUP4 PUSH2 0x21A JUMP JUMPDEST SUB SWAP1 JUMP JUMPDEST CODESIZE PUSH2 0xF98 JUMP JUMPDEST PUSH2 0x108C SWAP2 DUP9 PUSH2 0x10C7 JUMP JUMPDEST CODESIZE DUP5 PUSH2 0xF7C JUMP JUMPDEST PUSH2 0xF19 PUSH2 0x192 SWAP2 PUSH2 0x10A2 PUSH1 0x0 SWAP1 JUMP JUMPDEST POP PUSH1 0x2 PUSH2 0x1FB JUMP JUMPDEST PUSH1 0x1 PUSH1 0x1 PUSH1 0xA0 SHL SUB SWAP1 SWAP2 AND DUP2 MSTORE PUSH1 0x40 DUP2 ADD SWAP3 SWAP2 PUSH2 0x17C SWAP2 PUSH1 0x20 ADD MSTORE JUMP JUMPDEST PUSH2 0x10D9 PUSH2 0x10D5 DUP5 DUP5 DUP5 PUSH2 0x1172 JUMP JUMPDEST ISZERO SWAP1 JUMP JUMPDEST PUSH2 0x10E2 JUMPI POP POP POP JUMP JUMPDEST PUSH2 0x10F2 PUSH2 0x9D6 PUSH2 0x4B4 PUSH1 0x0 PUSH2 0x9A0 JUMP JUMPDEST SUB PUSH2 0x1137 JUMPI PUSH2 0xA35 DUP3 PUSH2 0x1104 PUSH1 0x40 MLOAD SWAP1 JUMP JUMPDEST SWAP2 DUP3 SWAP2 PUSH32 0x7E27328900000000000000000000000000000000000000000000000000000000 DUP4 MSTORE PUSH1 0x4 DUP4 ADD SWAP1 DUP2 MSTORE PUSH1 0x20 ADD SWAP1 JUMP JUMPDEST PUSH2 0xA35 PUSH2 0x1143 PUSH1 0x40 MLOAD SWAP1 JUMP JUMPDEST SWAP3 DUP4 SWAP3 PUSH32 0x177E802F00000000000000000000000000000000000000000000000000000000 DUP5 MSTORE PUSH1 0x4 DUP5 ADD PUSH2 0x10AA JUMP JUMPDEST SWAP1 PUSH2 0x1180 PUSH2 0x4B4 PUSH1 0x0 PUSH2 0x9A0 JUMP JUMPDEST PUSH1 0x1 PUSH1 0x1 PUSH1 0xA0 SHL SUB DUP3 AND EQ ISZERO SWAP3 DUP4 PUSH2 0x1199 JUMPI JUMPDEST POP POP POP SWAP1 JUMP JUMPDEST SWAP2 SWAP3 POP SWAP1 PUSH1 0x1 PUSH1 0x1 PUSH1 0xA0 SHL SUB DUP3 AND PUSH1 0x1 PUSH1 0x1 PUSH1 0xA0 SHL SUB DUP5 AND EQ SWAP3 DUP4 ISZERO PUSH2 0x11F3 JUMPI JUMPDEST POP DUP3 ISZERO PUSH2 0x11CC JUMPI JUMPDEST POP POP CODESIZE DUP1 DUP1 PUSH2 0x1193 JUMP JUMPDEST PUSH2 0x11EB SWAP2 SWAP3 POP PUSH2 0x11DE PUSH2 0x9D6 SWAP2 PUSH2 0xF02 JUMP JUMPDEST SWAP3 PUSH1 0x1 PUSH1 0x1 PUSH1 0xA0 SHL SUB AND SWAP1 JUMP JUMPDEST EQ CODESIZE DUP1 PUSH2 0x11C2 JUMP JUMPDEST PUSH2 0x1200 SWAP2 SWAP4 POP DUP3 SWAP1 PUSH2 0xDA9 JUMP JUMPDEST SWAP2 CODESIZE PUSH2 0x11BA JUMP JUMPDEST SWAP1 SWAP2 PUSH2 0x17C SWAP3 PUSH1 0x1 SWAP3 JUMPDEST SWAP3 SWAP2 SWAP1 SWAP2 DUP1 DUP2 ISZERO PUSH2 0x1348 JUMPI JUMPDEST PUSH2 0x1233 JUMPI JUMPDEST POP POP SWAP1 PUSH2 0xFC4 PUSH2 0x17C SWAP3 PUSH1 0x4 PUSH2 0x1FB JUMP JUMPDEST PUSH2 0x123C DUP4 PUSH2 0x1445 JUMP JUMPDEST SWAP2 PUSH2 0x124A PUSH2 0x4B4 PUSH1 0x0 PUSH2 0x9A0 JUMP JUMPDEST PUSH1 0x1 PUSH1 0x1 PUSH1 0xA0 SHL SUB DUP3 AND EQ ISZERO DUP1 PUSH2 0x132C JUMPI JUMPDEST DUP1 PUSH2 0x1319 JUMPI JUMPDEST PUSH2 0x12CF JUMPI POP SWAP2 PUSH2 0xFC4 SWAP2 PUSH2 0x17C SWAP5 SWAP4 PUSH2 0x127E JUMPI JUMPDEST POP SWAP2 SWAP3 PUSH2 0x1222 JUMP JUMPDEST PUSH2 0x12A8 PUSH32 0x8C5BE1E5EBEC7D5BD14F71427D1E84F3DD0314C0F7B2291E5B200AC8C7C3B925 SWAP2 PUSH2 0xAF9 JUMP JUMPDEST PUSH2 0x12B1 DUP6 PUSH2 0xAF9 JUMP JUMPDEST SWAP1 PUSH2 0x12BB DUP5 PUSH2 0x1EE JUMP JUMPDEST SWAP3 PUSH2 0x12C5 PUSH1 0x40 MLOAD SWAP1 JUMP JUMPDEST PUSH1 0x0 SWAP1 LOG4 CODESIZE PUSH2 0x1276 JUMP JUMPDEST PUSH2 0xA35 SWAP1 PUSH2 0x12DC PUSH1 0x40 MLOAD SWAP1 JUMP JUMPDEST SWAP2 DUP3 SWAP2 PUSH32 0xA9FBF51F00000000000000000000000000000000000000000000000000000000 DUP4 MSTORE PUSH1 0x4 DUP4 ADD PUSH1 0x1 PUSH1 0x1 PUSH1 0xA0 SHL SUB SWAP1 SWAP2 AND DUP2 MSTORE PUSH1 0x20 ADD SWAP1 JUMP JUMPDEST POP PUSH2 0x1327 PUSH2 0x10D5 DUP3 DUP6 PUSH2 0xDA9 JUMP JUMPDEST PUSH2 0x1262 JUMP JUMPDEST POP PUSH1 0x1 PUSH1 0x1 PUSH1 0xA0 SHL SUB DUP2 AND PUSH1 0x1 PUSH1 0x1 PUSH1 0xA0 SHL SUB DUP5 AND EQ ISZERO PUSH2 0x125C JUMP JUMPDEST POP PUSH2 0x1356 PUSH2 0x4B4 PUSH1 0x0 PUSH2 0x9A0 JUMP JUMPDEST PUSH1 0x1 PUSH1 0x1 PUSH1 0xA0 SHL SUB DUP4 AND EQ ISZERO PUSH2 0x121D JUMP JUMPDEST SWAP1 PUSH1 0xFF SWAP1 PUSH2 0xAD0 JUMP JUMPDEST SWAP1 PUSH2 0x1380 PUSH2 0x192 PUSH2 0xB19 SWAP3 ISZERO ISZERO SWAP1 JUMP JUMPDEST DUP3 SLOAD PUSH2 0x1367 JUMP JUMPDEST PUSH2 0x1394 PUSH2 0x4B4 PUSH1 0x0 PUSH2 0x9A0 JUMP JUMPDEST PUSH1 0x1 PUSH1 0x1 PUSH1 0xA0 SHL SUB DUP4 AND EQ PUSH2 0x13FB JUMPI PUSH2 0x13BB DUP4 PUSH2 0x13B6 DUP5 PUSH2 0xDC4 DUP6 PUSH1 0x5 PUSH2 0xBF7 JUMP JUMPDEST PUSH2 0x1370 JUMP JUMPDEST PUSH2 0xB75 PUSH2 0x13F1 PUSH2 0x13EB PUSH32 0x17307EAB39AB6107E8899845AD3D59BD9653F200F220920489CA2B5937696C31 SWAP4 PUSH2 0xAF9 JUMP JUMPDEST SWAP4 PUSH2 0xAF9 JUMP JUMPDEST SWAP4 PUSH2 0x1B4 PUSH1 0x40 MLOAD SWAP1 JUMP JUMPDEST PUSH2 0xA35 DUP3 PUSH2 0x1408 PUSH1 0x40 MLOAD SWAP1 JUMP JUMPDEST SWAP2 DUP3 SWAP2 PUSH32 0x5B08BA1800000000000000000000000000000000000000000000000000000000 DUP4 MSTORE PUSH1 0x4 DUP4 ADD PUSH1 0x1 PUSH1 0x1 PUSH1 0xA0 SHL SUB SWAP1 SWAP2 AND DUP2 MSTORE PUSH1 0x20 ADD SWAP1 JUMP JUMPDEST PUSH2 0x144E DUP2 PUSH2 0x1093 JUMP JUMPDEST SWAP1 PUSH2 0x145C PUSH2 0x4B4 PUSH1 0x0 PUSH2 0x9A0 JUMP JUMPDEST PUSH1 0x1 PUSH1 0x1 PUSH1 0xA0 SHL SUB DUP4 AND EQ PUSH2 0x146F JUMPI POP SWAP1 JUMP JUMPDEST PUSH2 0xA35 SWAP1 PUSH2 0x1104 PUSH1 0x40 MLOAD SWAP1 JUMP JUMPDEST SWAP1 POP MLOAD SWAP1 PUSH2 0x17C DUP3 PUSH2 0x15C JUMP JUMPDEST SWAP1 PUSH1 0x20 DUP3 DUP3 SUB SLT PUSH2 0x157 JUMPI PUSH2 0x192 SWAP2 PUSH2 0x147C JUMP JUMPDEST PUSH1 0x1 PUSH1 0x1 PUSH1 0xA0 SHL SUB SWAP2 DUP3 AND DUP2 MSTORE SWAP2 AND PUSH1 0x20 DUP3 ADD MSTORE PUSH1 0x40 DUP2 ADD SWAP2 SWAP1 SWAP2 MSTORE PUSH1 0x80 PUSH1 0x60 DUP3 ADD DUP2 SWAP1 MSTORE PUSH2 0x192 SWAP3 SWAP2 ADD SWAP1 PUSH2 0x3BC JUMP JUMPDEST RETURNDATASIZE ISZERO PUSH2 0x14E8 JUMPI PUSH2 0x14DD RETURNDATASIZE PUSH2 0xCA8 JUMP JUMPDEST SWAP1 RETURNDATASIZE PUSH1 0x0 PUSH1 0x20 DUP5 ADD RETURNDATACOPY JUMP JUMPDEST PUSH1 0x60 SWAP1 JUMP JUMPDEST SWAP1 SWAP2 DUP3 EXTCODESIZE SWAP4 PUSH1 0x0 SWAP5 PUSH2 0x1501 PUSH2 0xD50 DUP8 PUSH2 0x1EE JUMP JUMPDEST GT PUSH2 0x150E JUMPI JUMPDEST POP POP POP POP POP JUMP JUMPDEST SWAP1 PUSH1 0x20 SWAP2 PUSH2 0x1552 DUP7 PUSH2 0x152A PUSH2 0x1525 DUP9 SWAP10 SWAP11 SWAP9 PUSH2 0xAF9 JUMP JUMPDEST PUSH2 0xAF9 JUMP JUMPDEST SWAP3 PUSH2 0x155D PUSH4 0x150B7A02 SWAP2 PUSH2 0x153B CALLER SWAP1 JUMP JUMPDEST SWAP7 PUSH2 0x1545 PUSH1 0x40 MLOAD SWAP1 JUMP JUMPDEST SWAP10 DUP11 SWAP9 DUP10 SWAP8 DUP9 SWAP7 PUSH1 0xE0 SHL SWAP1 JUMP JUMPDEST DUP7 MSTORE PUSH1 0x4 DUP7 ADD PUSH2 0x149D JUMP JUMPDEST SUB SWAP3 GAS CALL DUP5 SWAP2 DUP2 PUSH2 0x15E8 JUMPI JUMPDEST POP PUSH2 0x15A2 JUMPI POP POP PUSH2 0x1578 PUSH2 0x14CE JUMP JUMPDEST SWAP2 PUSH2 0x1587 PUSH2 0xD50 PUSH2 0x1000 DUP6 MLOAD SWAP1 JUMP JUMPDEST SUB PUSH2 0x1599 JUMPI PUSH2 0xA35 SWAP1 PUSH2 0xE9E PUSH1 0x40 MLOAD SWAP1 JUMP JUMPDEST POP DUP1 MLOAD SWAP1 PUSH1 0x20 ADD REVERT JUMPDEST SWAP1 SWAP3 POP PUSH2 0x15D8 PUSH32 0x150B7A0200000000000000000000000000000000000000000000000000000000 JUMPDEST SWAP2 PUSH1 0x1 PUSH1 0x1 PUSH1 0xE0 SHL SUB NOT AND SWAP1 JUMP JUMPDEST SUB PUSH2 0xE91 JUMPI POP CODESIZE DUP1 DUP1 DUP1 DUP1 PUSH2 0x1507 JUMP JUMPDEST PUSH2 0x160A SWAP2 SWAP3 POP PUSH1 0x20 RETURNDATASIZE DUP2 GT PUSH2 0x1611 JUMPI JUMPDEST PUSH2 0x1602 DUP2 DUP4 PUSH2 0x308 JUMP JUMPDEST DUP2 ADD SWAP1 PUSH2 0x1489 JUMP JUMPDEST SWAP1 CODESIZE PUSH2 0x1569 JUMP JUMPDEST POP RETURNDATASIZE PUSH2 0x15F8 JUMP JUMPDEST CALLDATASIZE SWAP1 CALLDATACOPY JUMP JUMPDEST SWAP1 PUSH2 0x17C PUSH2 0x1633 PUSH2 0x162D DUP5 PUSH2 0xCA8 JUMP JUMPDEST SWAP4 PUSH2 0x7AB JUMP JUMPDEST PUSH1 0x1F NOT ADD PUSH1 0x20 DUP5 ADD PUSH2 0x1618 JUMP JUMPDEST PUSH4 0x4E487B71 PUSH1 0xE0 SHL PUSH1 0x0 MSTORE PUSH1 0x12 PUSH1 0x4 MSTORE PUSH1 0x24 PUSH1 0x0 REVERT JUMPDEST DUP2 ISZERO PUSH2 0x1660 JUMPI DIV SWAP1 JUMP JUMPDEST PUSH2 0x1640 JUMP JUMPDEST PUSH2 0x166E DUP2 PUSH2 0x172A JUMP JUMPDEST SWAP1 PUSH2 0x167E PUSH1 0x1 SWAP3 PUSH2 0x3F0 DUP5 PUSH2 0x1EE JUMP JUMPDEST SWAP2 DUP1 PUSH2 0x1689 DUP5 PUSH2 0x161D JUMP JUMPDEST SWAP4 PUSH1 0x20 ADD DUP5 ADD SWAP1 JUMPDEST PUSH2 0x169B JUMPI POP POP POP SWAP1 JUMP JUMPDEST PUSH2 0x16DC SWAP1 PUSH1 0x0 NOT ADD SWAP3 PUSH32 0x3031323334353637383961626364656600000000000000000000000000000000 PUSH1 0xA DUP3 MOD BYTE DUP5 MSTORE8 PUSH2 0x16D6 PUSH1 0xA PUSH2 0x1EE JUMP JUMPDEST SWAP1 PUSH2 0x1656 JUMP JUMPDEST SWAP1 DUP2 PUSH2 0x16EB PUSH2 0xD50 PUSH1 0x0 PUSH2 0x1EE JUMP JUMPDEST EQ PUSH2 0x16F8 JUMPI SWAP1 SWAP2 DUP2 PUSH2 0x1691 JUMP JUMPDEST PUSH2 0x1193 JUMP JUMPDEST PUSH2 0x1726 PUSH32 0x1FFC9A700000000000000000000000000000000000000000000000000000000 PUSH2 0x15CA JUMP JUMPDEST EQ SWAP1 JUMP JUMPDEST PUSH2 0x1734 PUSH1 0x0 PUSH2 0x1EE JUMP JUMPDEST SWAP1 PUSH27 0x184F03E93FF9F4DAA797ED6E38ED64BF6A1F010000000000000000 PUSH2 0x175A DUP2 PUSH2 0x1EE JUMP JUMPDEST DUP3 LT ISZERO PUSH2 0x18AC JUMPI JUMPDEST POP PUSH14 0x4EE2D6D415B85ACEF8100000000 PUSH2 0x177B DUP2 PUSH2 0x1EE JUMP JUMPDEST DUP3 LT ISZERO PUSH2 0x188A JUMPI JUMPDEST POP PUSH7 0x2386F26FC10000 PUSH2 0x1795 DUP2 PUSH2 0x1EE JUMP JUMPDEST DUP3 LT ISZERO PUSH2 0x1868 JUMPI JUMPDEST POP PUSH4 0x5F5E100 PUSH2 0x17AC DUP2 PUSH2 0x1EE JUMP JUMPDEST DUP3 LT ISZERO PUSH2 0x1846 JUMPI JUMPDEST POP PUSH2 0x2710 PUSH2 0x17C1 DUP2 PUSH2 0x1EE JUMP JUMPDEST DUP3 LT ISZERO PUSH2 0x1824 JUMPI JUMPDEST POP PUSH1 0x64 PUSH2 0x17D5 DUP2 PUSH2 0x1EE JUMP JUMPDEST DUP3 LT ISZERO PUSH2 0x1802 JUMPI JUMPDEST POP PUSH2 0x17EB PUSH2 0xD50 PUSH1 0xA PUSH2 0x1EE JUMP JUMPDEST LT ISZERO PUSH2 0x17F4 JUMPI SWAP1 JUMP JUMPDEST PUSH2 0x192 SWAP1 PUSH2 0x3F0 PUSH1 0x1 PUSH2 0x1EE JUMP JUMPDEST PUSH2 0x181D SWAP2 PUSH2 0x16D6 PUSH2 0x1812 SWAP3 PUSH2 0x1EE JUMP JUMPDEST SWAP2 PUSH2 0x3F0 PUSH1 0x2 PUSH2 0x1EE JUMP JUMPDEST SWAP1 CODESIZE PUSH2 0x17DD JUMP JUMPDEST PUSH2 0x183F SWAP2 PUSH2 0x16D6 PUSH2 0x1834 SWAP3 PUSH2 0x1EE JUMP JUMPDEST SWAP2 PUSH2 0x3F0 PUSH1 0x4 PUSH2 0x1EE JUMP JUMPDEST SWAP1 CODESIZE PUSH2 0x17C9 JUMP JUMPDEST PUSH2 0x1861 SWAP2 PUSH2 0x16D6 PUSH2 0x1856 SWAP3 PUSH2 0x1EE JUMP JUMPDEST SWAP2 PUSH2 0x3F0 PUSH1 0x8 PUSH2 0x1EE JUMP JUMPDEST SWAP1 CODESIZE PUSH2 0x17B4 JUMP JUMPDEST PUSH2 0x1883 SWAP2 PUSH2 0x16D6 PUSH2 0x1878 SWAP3 PUSH2 0x1EE JUMP JUMPDEST SWAP2 PUSH2 0x3F0 PUSH1 0x10 PUSH2 0x1EE JUMP JUMPDEST SWAP1 CODESIZE PUSH2 0x179D JUMP JUMPDEST PUSH2 0x18A5 SWAP2 PUSH2 0x16D6 PUSH2 0x189A SWAP3 PUSH2 0x1EE JUMP JUMPDEST SWAP2 PUSH2 0x3F0 PUSH1 0x20 PUSH2 0x1EE JUMP JUMPDEST SWAP1 CODESIZE PUSH2 0x1783 JUMP JUMPDEST PUSH2 0x18C7 SWAP2 PUSH2 0x16D6 PUSH2 0x18BC SWAP3 PUSH2 0x1EE JUMP JUMPDEST SWAP2 PUSH2 0x3F0 PUSH1 0x40 PUSH2 0x1EE JUMP JUMPDEST SWAP1 CODESIZE PUSH2 0x1762 JUMP JUMPDEST SWAP1 PUSH2 0x192 SWAP8 SWAP7 SWAP6 SWAP5 SWAP4 SWAP3 SWAP2 PUSH2 0x18E1 PUSH2 0x9C3 JUMP JUMPDEST PUSH2 0x1B24 JUMP JUMPDEST PUSH4 0x4E487B71 PUSH1 0xE0 SHL PUSH1 0x0 MSTORE PUSH1 0x11 PUSH1 0x4 MSTORE PUSH1 0x24 PUSH1 0x0 REVERT JUMPDEST PUSH1 0x0 NOT DUP2 EQ PUSH2 0x190B JUMPI PUSH1 0x1 ADD SWAP1 JUMP JUMPDEST PUSH2 0x18E6 JUMP JUMPDEST SWAP2 SWAP1 DUP3 ADD DUP1 SWAP3 GT PUSH2 0x190B JUMPI JUMP JUMPDEST PUSH2 0x192 PUSH1 0xA0 PUSH2 0x797 JUMP JUMPDEST PUSH2 0x192 SWAP2 CALLDATASIZE SWAP2 PUSH2 0x7D4 JUMP JUMPDEST SWAP2 PUSH1 0x0 NOT PUSH1 0x8 SWAP3 SWAP1 SWAP3 MUL SWAP2 DUP3 SHL SWAP2 SHL PUSH2 0xAD0 JUMP JUMPDEST SWAP2 SWAP1 PUSH2 0x1957 PUSH2 0x192 PUSH2 0xB19 SWAP4 PUSH2 0x1EE JUMP JUMPDEST SWAP1 DUP4 SLOAD PUSH2 0x1932 JUMP JUMPDEST PUSH2 0x17C SWAP2 PUSH1 0x0 SWAP2 PUSH2 0x1946 JUMP JUMPDEST DUP2 DUP2 LT PUSH2 0x1976 JUMPI POP POP JUMP JUMPDEST DUP1 PUSH2 0x1984 PUSH1 0x0 PUSH1 0x1 SWAP4 PUSH2 0x195F JUMP JUMPDEST ADD PUSH2 0x196B JUMP JUMPDEST SWAP2 SWAP1 PUSH1 0x1F DUP2 GT PUSH2 0x1999 JUMPI POP POP POP JUMP JUMPDEST PUSH2 0x19AB PUSH2 0x17C SWAP4 PUSH1 0x0 MSTORE PUSH1 0x20 PUSH1 0x0 KECCAK256 SWAP1 JUMP JUMPDEST SWAP1 PUSH1 0x20 PUSH1 0x1F DUP5 ADD DUP2 SWAP1 DIV DUP4 ADD SWAP4 LT PUSH2 0x19CD JUMPI JUMPDEST PUSH1 0x20 PUSH1 0x1F SWAP1 SWAP2 ADD DIV ADD SWAP1 PUSH2 0x196B JUMP JUMPDEST SWAP1 SWAP2 POP DUP2 SWAP1 PUSH2 0x19BE JUMP JUMPDEST SWAP1 PUSH2 0x19E0 DUP2 MLOAD SWAP1 JUMP JUMPDEST SWAP1 PUSH8 0xFFFFFFFFFFFFFFFF DUP3 GT PUSH2 0x32A JUMPI PUSH2 0x1A04 DUP3 PUSH2 0x19FE DUP6 SLOAD PUSH2 0x23A JUMP JUMPDEST DUP6 PUSH2 0x198A JUMP JUMPDEST PUSH1 0x20 SWAP1 PUSH1 0x1F DUP4 GT PUSH1 0x1 EQ PUSH2 0x1A3F JUMPI PUSH2 0xB19 SWAP3 SWAP2 PUSH1 0x0 SWAP2 DUP4 PUSH2 0x1A34 JUMPI JUMPDEST POP POP PUSH1 0x0 NOT PUSH1 0x8 DUP4 MUL SHR NOT AND SWAP1 PUSH1 0x2 MUL OR SWAP1 JUMP JUMPDEST ADD MLOAD SWAP1 POP CODESIZE DUP1 PUSH2 0x1A20 JUMP JUMPDEST PUSH1 0x1F NOT DUP4 AND SWAP2 PUSH2 0x1A54 DUP6 PUSH1 0x0 MSTORE PUSH1 0x20 PUSH1 0x0 KECCAK256 SWAP1 JUMP JUMPDEST SWAP3 PUSH1 0x0 JUMPDEST DUP2 DUP2 LT PUSH2 0x1A92 JUMPI POP SWAP2 PUSH1 0x2 SWAP4 SWAP2 DUP6 PUSH1 0x1 SWAP7 SWAP5 LT PUSH2 0x1A79 JUMPI JUMPDEST POP POP POP MUL ADD SWAP1 SSTORE JUMP JUMPDEST ADD MLOAD PUSH1 0x0 NOT PUSH1 0x8 PUSH1 0x1F DUP6 AND MUL SHR NOT AND SWAP1 SSTORE CODESIZE DUP1 DUP1 PUSH2 0x1A70 JUMP JUMPDEST SWAP2 SWAP4 PUSH1 0x20 PUSH1 0x1 DUP2 SWAP3 DUP8 DUP8 ADD MLOAD DUP2 SSTORE ADD SWAP6 ADD SWAP3 ADD PUSH2 0x1A58 JUMP JUMPDEST SWAP1 PUSH2 0x17C SWAP2 PUSH2 0x19D7 JUMP JUMPDEST PUSH2 0x17C SWAP2 SWAP1 PUSH2 0x1AE1 SWAP1 PUSH1 0x80 SWAP1 PUSH1 0x4 SWAP1 PUSH2 0x1ACF DUP2 PUSH2 0x103C DUP8 MLOAD SWAP1 JUMP JUMPDEST PUSH2 0x1AE7 PUSH1 0x1 DUP3 ADD PUSH2 0x1AE1 PUSH1 0x20 DUP9 ADD MLOAD SWAP1 JUMP JUMPDEST SWAP1 PUSH2 0x1AAA JUMP JUMPDEST PUSH2 0x1AF9 PUSH1 0x2 DUP3 ADD PUSH2 0x103C PUSH1 0x40 DUP9 ADD MLOAD SWAP1 JUMP JUMPDEST PUSH2 0x1B13 PUSH1 0x3 DUP3 ADD PUSH2 0x1B0D PUSH1 0x60 DUP9 ADD MLOAD ISZERO ISZERO SWAP1 JUMP JUMPDEST SWAP1 PUSH2 0x1370 JUMP JUMPDEST ADD SWAP3 ADD MLOAD SWAP1 JUMP JUMPDEST SWAP1 PUSH2 0x17C SWAP2 PUSH2 0x1AB4 JUMP JUMPDEST POP SWAP4 SWAP6 SWAP1 SWAP5 SWAP2 PUSH2 0x1B34 PUSH1 0x7 PUSH2 0x21A JUMP JUMPDEST SWAP7 PUSH2 0x1B3E DUP9 PUSH2 0x18FC JUMP JUMPDEST PUSH2 0x1B49 SWAP1 PUSH1 0x7 PUSH2 0xF30 JUMP JUMPDEST PUSH2 0x1B53 DUP9 DUP8 PUSH2 0x1C09 JUMP JUMPDEST PUSH2 0x1B5D SWAP1 TIMESTAMP PUSH2 0x1910 JUMP JUMPDEST PUSH1 0x0 SWAP2 PUSH2 0x1B68 PUSH2 0x191D JUMP JUMPDEST SWAP6 PUSH2 0x1B73 DUP10 DUP6 DUP10 ADD MSTORE JUMP JUMPDEST PUSH2 0x1B7C SWAP2 PUSH2 0x1927 JUMP JUMPDEST PUSH1 0x20 DUP7 ADD MSTORE PUSH1 0x40 DUP6 ADD MSTORE ISZERO ISZERO PUSH1 0x60 DUP5 ADD MSTORE PUSH2 0x1B96 SWAP2 PUSH2 0x1927 JUMP JUMPDEST PUSH1 0x80 DUP3 ADD MSTORE PUSH2 0x1BA6 DUP5 PUSH1 0x8 PUSH2 0x1FB JUMP JUMPDEST SWAP1 PUSH2 0x1BB0 SWAP2 PUSH2 0x1B1A JUMP JUMPDEST PUSH32 0x3D33D1076DA5FF846213366BE62CDB31E30A7C72F55E923F3A76A7623330AF12 PUSH2 0x1BDA DUP5 PUSH2 0x1EE JUMP JUMPDEST SWAP2 PUSH2 0x1BE4 SWAP1 PUSH2 0xAF9 JUMP JUMPDEST SWAP3 PUSH2 0x1BEE PUSH1 0x40 MLOAD SWAP1 JUMP JUMPDEST SWAP1 DUP2 MSTORE PUSH1 0x20 SWAP1 LOG3 SWAP1 JUMP JUMPDEST PUSH2 0x192 SWAP7 SWAP6 SWAP5 SWAP4 SWAP3 SWAP2 SWAP1 PUSH1 0x0 PUSH2 0x18CE JUMP JUMPDEST PUSH2 0x17C SWAP2 PUSH2 0x1C15 PUSH2 0xCC4 JUMP JUMPDEST SWAP2 SWAP1 PUSH2 0x17C SWAP3 SWAP2 PUSH2 0x1C26 DUP3 DUP3 PUSH2 0x1C30 JUMP JUMPDEST PUSH2 0xEFD PUSH1 0x0 PUSH2 0x9A0 JUMP JUMPDEST SWAP1 PUSH2 0x1C3B PUSH1 0x0 PUSH2 0x9A0 JUMP JUMPDEST SWAP2 PUSH1 0x1 PUSH1 0x1 PUSH1 0xA0 SHL SUB DUP4 AND PUSH1 0x1 PUSH1 0x1 PUSH1 0xA0 SHL SUB DUP3 AND EQ PUSH2 0x1CC4 JUMPI PUSH2 0x1C60 SWAP2 DUP4 SWAP2 PUSH2 0xF47 JUMP JUMPDEST PUSH2 0x1C72 PUSH1 0x1 PUSH1 0x1 PUSH1 0xA0 SHL SUB DUP4 AND PUSH2 0x9D6 JUMP JUMPDEST SUB PUSH2 0x1C7A JUMPI POP JUMP JUMPDEST PUSH2 0xA35 SWAP1 PUSH2 0x1C87 PUSH1 0x40 MLOAD SWAP1 JUMP JUMPDEST SWAP2 DUP3 SWAP2 PUSH32 0x73C6AC6E00000000000000000000000000000000000000000000000000000000 DUP4 MSTORE PUSH1 0x4 DUP4 ADD PUSH1 0x1 PUSH1 0x1 PUSH1 0xA0 SHL SUB SWAP1 SWAP2 AND DUP2 MSTORE PUSH1 0x20 ADD SWAP1 JUMP JUMPDEST PUSH2 0xA35 DUP4 PUSH2 0xE9E PUSH1 0x40 MLOAD SWAP1 JUMP JUMPDEST PUSH2 0x17C SWAP1 PUSH2 0x1CDD PUSH2 0x9C3 JUMP JUMPDEST PUSH2 0x1D48 JUMP JUMPDEST ISZERO PUSH2 0x1CE9 JUMPI JUMP JUMPDEST PUSH1 0x40 MLOAD PUSH32 0x8C379A000000000000000000000000000000000000000000000000000000000 DUP2 MSTORE PUSH1 0x20 PUSH1 0x4 DUP3 ADD MSTORE PUSH1 0x14 PUSH1 0x24 DUP3 ADD MSTORE PUSH32 0x546F6B656E20646F6573206E6F74206578697374000000000000000000000000 PUSH1 0x44 DUP3 ADD MSTORE PUSH1 0x64 SWAP1 REVERT JUMPDEST PUSH2 0x1D6B PUSH2 0x1D54 DUP3 PUSH2 0x1093 JUMP JUMPDEST PUSH2 0x1D64 PUSH2 0x9D6 PUSH2 0x4B4 PUSH1 0x0 PUSH2 0x9A0 JUMP JUMPDEST EQ ISZERO PUSH2 0x1CE2 JUMP JUMPDEST PUSH2 0x1D83 PUSH1 0x1 PUSH1 0x3 PUSH2 0x1D7D DUP5 PUSH1 0x8 PUSH2 0x1FB JUMP JUMPDEST ADD PUSH2 0x1370 JUMP JUMPDEST PUSH2 0x1DAD PUSH32 0x4F4019213D198A6B2698D51C79895FA6C7E5A5C79E4F5C04F3285B44C24D18D6 SWAP2 PUSH2 0x1EE JUMP JUMPDEST SWAP1 PUSH2 0x1DB7 PUSH1 0x40 MLOAD SWAP1 JUMP JUMPDEST PUSH1 0x0 SWAP1 LOG2 JUMP JUMPDEST PUSH2 0x17C SWAP1 PUSH2 0x1CD1 JUMP JUMPDEST PUSH2 0x1DCE PUSH2 0x191D JUMP JUMPDEST SWAP1 PUSH1 0x0 DUP3 MSTORE PUSH1 0x20 DUP1 DUP1 DUP1 DUP1 DUP7 ADD PUSH1 0x60 DUP2 MSTORE ADD PUSH1 0x0 DUP2 MSTORE ADD PUSH1 0x0 DUP2 MSTORE ADD PUSH1 0x60 SWAP1 MSTORE POP JUMP JUMPDEST PUSH2 0x192 PUSH2 0x1DC6 JUMP JUMPDEST SWAP1 PUSH2 0x17C PUSH2 0x1E67 PUSH1 0x4 PUSH2 0x1E0A PUSH2 0x191D JUMP JUMPDEST SWAP5 PUSH2 0x1E1B PUSH2 0x1E17 DUP3 PUSH2 0x21A JUMP JUMPDEST DUP8 MSTORE JUMP JUMPDEST PUSH2 0x1E31 PUSH2 0x1E2A PUSH1 0x1 DUP4 ADD PUSH2 0x32F JUMP JUMPDEST PUSH1 0x20 DUP9 ADD MSTORE JUMP JUMPDEST PUSH2 0x1E47 PUSH2 0x1E40 PUSH1 0x2 DUP4 ADD PUSH2 0x21A JUMP JUMPDEST PUSH1 0x40 DUP9 ADD MSTORE JUMP JUMPDEST PUSH2 0x1E61 PUSH2 0x1E58 PUSH1 0x3 DUP4 ADD SLOAD PUSH1 0xFF AND SWAP1 JUMP JUMPDEST ISZERO ISZERO PUSH1 0x60 DUP9 ADD MSTORE JUMP JUMPDEST ADD PUSH2 0x32F JUMP JUMPDEST PUSH1 0x80 DUP5 ADD MSTORE JUMP JUMPDEST PUSH2 0x192 SWAP1 PUSH2 0x1DF9 JUMP JUMPDEST PUSH2 0x1E9A PUSH2 0x192 SWAP2 PUSH2 0x1E86 PUSH2 0x1DF1 JUMP JUMPDEST POP PUSH2 0x1E93 PUSH2 0x1D54 DUP3 PUSH2 0x1093 JUMP JUMPDEST PUSH1 0x8 PUSH2 0x1FB JUMP JUMPDEST PUSH2 0x1E6E JUMP INVALID LOG2 PUSH5 0x6970667358 0x22 SLT KECCAK256 SWAP5 PUSH15 0xC484BC8CC4F3183BA2F21BBFDA047A INVALID PUSH21 0x2DCB9CCBBDC782C7C0BD16D1BD64736F6C63430008 EQ STOP CALLER "},"methodIdentifiers":{"approve(address,uint256)":"095ea7b3","balanceOf(address)":"70a08231","credits(uint256)":"036a1c22","getApproved(uint256)":"081812fc","getCreditDetails(uint256)":"f85aafbd","isApprovedForAll(address,address)":"e985e9c5","mintCredit(address,uint256,string,uint256,string)":"099c8463","name()":"06fdde03","owner()":"8da5cb5b","ownerOf(uint256)":"6352211e","renounceOwnership()":"715018a6","safeTransferFrom(address,address,uint256)":"42842e0e","safeTransferFrom(address,address,uint256,bytes)":"b88d4fde","setApprovalForAll(address,bool)":"a22cb465","supportsInterface(bytes4)":"01ffc9a7","symbol()":"95d89b41","tokenURI(uint256)":"c87b56dd","transferFrom(address,address,uint256)":"23b872dd","transferOwnership(address)":"f2fde38b","verifyCredit(uint256)":"14fe83f8"}}}}}