{"contracts/verification.sol":{"Verification":{"abi":[{"inputs":[{"internalType":"address","name":"_carbonCredit","type":"address"}],"stateMutability":"nonpayable","type":"constructor"},{"inputs":[{"internalType":"address","name":"owner","type":"address"}],"name":"OwnableInvalidOwner","type":"error"},{"inputs":[{"internalType":"address","name":"account","type":"address"}],"name":"OwnableUnauthorizedAccount","type":"error"},{"anonymous":false,"inputs":[{"indexed":true,"internalType":"uint256","name":"tokenId","type":"uint256"},{"indexed":true,"internalType":"address","name":"verifier","type":"address"},{"indexed":false,"internalType":"string","name":"metadataURI","type":"string"}],"name":"CreditVerified","type":"event"},{"anonymous":false,"inputs":[{"indexed":true,"internalType":"address","name":"previousOwner","type":"address"},{"indexed":true,"internalType":"address","name":"newOwner","type":"address"}],"name":"OwnershipTransferred","type":"event"},{"anonymous":false,"inputs":[{"indexed":true,"internalType":"address","name":"account","type":"address"}],"name":"VerifierAdded","type":"event"},{"anonymous":false,"inputs":[{"indexed":true,"internalType":"address","name":"account","type":"address"}],"name":"VerifierRemoved","type":"event"},{"inputs":[{"internalType":"address","name":"account","type":"address"}],"name":"addVerifier","outputs":[],"stateMutability":"nonpayable","type":"function"},{"inputs":[],"name":"carbonCredit","outputs":[{"internalType":"contract CarbonCredit","name":"","type":"address"}],"stateMutability":"view","type":"function"},{"inputs":[{"internalType":"uint256","name":"tokenId","type":"uint256"}],"name":"getVerificationData","outputs":[{"components":[{"internalType":"address","name":"verifier","type":"address"},{"internalType":"uint256","name":"timestamp","type":"uint256"},{"internalType":"string","name":"metadataURI","type":"string"}],"internalType":"struct Verification.VerificationData","name":"","type":"tuple"}],"stateMutability":"view","type":"function"},{"inputs":[{"internalType":"address","name":"account","type":"address"}],"name":"isVerifier","outputs":[{"internalType":"bool","name":"","type":"bool"}],"stateMutability":"view","type":"function"},{"inputs":[],"name":"owner","outputs":[{"internalType":"address","name":"","type":"address"}],"stateMutability":"view","type":"function"},{"inputs":[{"internalType":"address","name":"account","type":"address"}],"name":"removeVerifier","outputs":[],"stateMutability":"nonpayable","type":"function"},{"inputs":[],"name":"renounceOwnership","outputs":[],"stateMutability":"nonpayable","type":"function"},{"inputs":[{"internalType":"address","name":"newOwner","type":"address"}],"name":"transferOwnership","outputs":[],"stateMutability":"nonpayable","type":"function"},{"inputs":[{"internalType":"uint256","name":"","type":"uint256"}],"name":"verificationRecords","outputs":[{"internalType":"address","name":"verifier","type":"address"},{"internalType":"uint256","name":"timestamp","type":"uint256"},{"internalType":"string","name":"metadataURI","type":"string"}],"stateMutability":"view","type":"function"},{"inputs":[{"internalType":"address","name":"","type":"address"}],"name":"verifiers","outputs":[{"internalType":"bool","name":"","type":"bool"}],"stateMutability":"view","type":"function"},{"inputs":[{"internalType":"uint256","name":"tokenId","type":"uint256"},{"internalType":"string","name":"verificationMetadataURI","type":"string"}],"name":"verifyCredit","outputs":[],"stateMutability":"nonpayable","type":"function"}],"evm":{"bytecode":{"linkReferences":{},"object":"60806040523462000030576200001e62000018620000d3565b62000196565b604051610df1620002d78239610df190f35b600080fd5b634e487b7160e01b600052604160045260246000fd5b90601f01601f191681019081106001600160401b038211176200006d57604052565b62000035565b906200008a6200008260405190565b92836200004b565b565b6001600160a01b031690565b90565b6001600160a01b038116036200003057565b905051906200008a826200009b565b9060208282031262000030576200009891620000ad565b62000098620010c880380380620000ea8162000073565b928339810190620000bc565b62000098906200008c906001600160a01b031682565b6200009890620000f6565b62000098906200010c565b906001600160a01b03905b9181191691161790565b906200014b62000098620001539262000117565b825462000122565b9055565b90620001639062000117565b600052602052604060002090565b9060ff906200012d565b906200018e620000986200015392151590565b825462000171565b6200008a90620001be620001b63392620001b08462000201565b62000117565b600162000137565b620001cd600191600362000157565b6200017b565b6200008c62000098620000989290565b6200009890620001d3565b6001600160a01b03909116815260200190565b6200020d6000620001e3565b6001600160a01b0381166001600160a01b038316146200023357506200008a9062000274565b62000259906200024260405190565b631e4fbdf760e01b815291829160048301620001ee565b0390fd5b62000098906200008c565b6200009890546200025d565b62000280600062000268565b906200028e81600062000137565b620002c5620002be7f8be0079c531659141344cd1fd0a4f28419497f9722a3daafe3b4186f6b6457e09362000117565b9162000117565b91620002d060405190565b600090a356fe6080604052600436101561001257600080fd5b60003560e01c80630343b1e7146100c257806333105218146100bd5780634f775b93146100b8578063637bf795146100b35780636c824487146100ae578063715018a6146100a95780638da5cb5b146100a45780639000b3d61461009f578063bfc87a841461009a578063ca2dfd0a146100955763f2fde38b036100c757610686565b61066e565b610644565b61049e565b610469565b610451565b610436565b6103c6565b610331565b61020a565b6101af565b600080fd5b805b036100c757565b905035906100e2826100cc565b565b906020828203126100c7576100f8916100d5565b90565b6001600160a01b031690565b9052565b60005b83811061011e5750506000910152565b818101518382015260200161010e565b61014f61015860209361016293610143815190565b80835293849260200190565b9586910161010b565b601f01601f191690565b0190565b80516001600160a01b031682526100f891606081019160409061018e60208201516020850152565b015190604081840391015261012e565b60208082526100f892910190610166565b346100c7576101d66101ca6101c53660046100e4565b610d88565b6040519182918261019e565b0390f35b6001600160a01b0381166100ce565b905035906100e2826101da565b906020828203126100c7576100f8916101e9565b346100c7576101d66102256102203660046101f6565b610da4565b60405191829182901515815260200190565b634e487b7160e01b600052604160045260246000fd5b90601f01601f1916810190811067ffffffffffffffff82111761026f57604052565b610237565b906100e261028160405190565b928361024d565b67ffffffffffffffff811161026f57602090601f01601f19160190565b90826000939282370152565b909291926102c66102c182610288565b610274565b938185526020850190828401116100c7576100e2926102a5565b9080601f830112156100c7578160206100f8933591016102b1565b9190916040818403126100c75761031283826100d5565b92602082013567ffffffffffffffff81116100c7576100f892016102e0565b346100c75761034a6103443660046102fb565b90610c2b565b604051005b60009103126100c757565b6100f8916008021c6001600160a01b031690565b906100f8915461035a565b6100f86000600161036e565b6100fb6100f86100f8926001600160a01b031690565b6100f890610385565b6100f89061039b565b610107906103a4565b6020810192916100e291906103ad565b346100c7576103d636600461034f565b6101d66103e1610379565b604051918291826103b6565b906103f7906103a4565b600052602052604060002090565b6100f8916008021c5b60ff1690565b906100f89154610405565b6100f8906104316003916000926103ed565b610414565b346100c7576101d661022561044c3660046101f6565b61041f565b346100c75761046136600461034f565b61034a6106e0565b346100c75761047936600461034f565b6101d661048461069e565b604051918291826001600160a01b03909116815260200190565b346100c75761034a6104b13660046101f6565b610cb5565b6100f86100f86100f89290565b906103f7906104b6565b6100f8906100fb565b6100f890546104cd565b6100f89081565b6100f890546104e0565b634e487b7160e01b600052602260045260246000fd5b9060016002830492168015610527575b602083101461052257565b6104f1565b91607f1691610517565b8054600093929161054e61054483610507565b8085529360200190565b91600181169081156105a0575060011461056757505050565b61057a9192939450600052602060002090565b916000925b81841061058c5750500190565b80548484015260209093019260010161057f565b92949550505060ff1916825215156020020190565b906100f891610531565b906100e26105d9926105d060405190565b938480926105b5565b038361024d565b6105eb9060026104c3565b6105f4816104d6565b916100f86002610606600185016104e7565b93016105bf565b6106376100f8949293610630606084019560008501906001600160a01b03169052565b6020830152565b604081840391015261012e565b346100c7576101d661065f61065a3660046100e4565b6105e0565b6040519193919384938461060d565b346100c75761034a6106813660046101f6565b610d04565b346100c75761034a6106993660046101f6565b6107d6565b6100f860006104d6565b6106b06106e8565b6100e26106ce565b6100fb6100f86100f89290565b6100f8906106b8565b6100e26106db60006106c5565b61080f565b6100e26106a8565b6106f061069e565b339081906001600160a01b0316036107055750565b61074f9061071260405190565b9182917f118cdaa7000000000000000000000000000000000000000000000000000000008352600483016001600160a01b03909116815260200190565b0390fd5b6100e29061075f6106e8565b61076960006106c5565b6001600160a01b0381166001600160a01b0383161461078c57506100e29061080f565b61074f9061079960405190565b9182917f1e4fbdf7000000000000000000000000000000000000000000000000000000008352600483016001600160a01b03909116815260200190565b6100e290610753565b906001600160a01b03905b9181191691161790565b906108046100f861080b926103a4565b82546107df565b9055565b61081960006104d6565b906108258160006107f4565b6108586108527f8be0079c531659141344cd1fd0a4f28419497f9722a3daafe3b4186f6b6457e0936103a4565b916103a4565b9161086260405190565b80805b0390a3565b6100f89061040e565b6100f8905461086a565b1561088457565b6040517f08c379a000000000000000000000000000000000000000000000000000000000815260206004820152601860248201527f43616c6c6572206973206e6f74206120766572696669657200000000000000006044820152606490fd5b6100e291906109036108fe6108f93360036103ed565b610873565b61087d565b610b2b565b6040513d6000823e3d90fd5b6100f86060610274565b90600019906107ea565b906109386100f861080b926104b6565b825461091e565b9160001960089290920291821b911b6107ea565b91906109646100f861080b936104b6565b90835461093f565b6100e291600091610953565b818110610983575050565b80610991600060019361096c565b01610978565b9190601f81116109a657505050565b6109b86100e293600052602060002090565b906020601f8401819004830193106109da575b6020601f909101040190610978565b90915081906109cb565b906109ed815190565b9067ffffffffffffffff821161026f57610a1182610a0b8554610507565b85610997565b602090601f8311600114610a4c5761080b929160009183610a41575b5050600019600883021c1916906002021790565b015190503880610a2d565b601f19831691610a6185600052602060002090565b9260005b818110610a9f57509160029391856001969410610a86575b50505002019055565b01516000196008601f8516021c19169055388080610a7d565b91936020600181928787015181550195019201610a65565b906100e2916109e4565b6100e29190610b0a90604090600290610aeb81610ae587516001600160a01b031690565b906107f4565b610b0360018201610afd602088015190565b90610928565b0192015190565b90610ab7565b906100e291610ac1565b60208082526100f89291019061012e565b610b3d610b3860016104d6565b6103a4565b6314fe83f890803b156100c757610b6391600091610b5a60405190565b93849260e01b90565b825260048201859052602490829084905af18015610c2657610c08575b503390610bbf42610ba4610b92610914565b6001600160a01b038616815291610630565b610baf856040830152565b610bba8360026104c3565b610b10565b610865610bf5610bef7f22b374d86dbac4169eef6a342bb371b562c7b328445b558d2af8d09e76ba294a936104b6565b936103a4565b93610bff60405190565b91829182610b1a565b610c20906000610c18818361024d565b81019061034f565b38610b80565b610908565b906100e2916108e3565b6100e290610c416106e8565b610c66565b9060ff906107ea565b90610c5f6100f861080b92151590565b8254610c46565b610c7b6001610c768360036103ed565b610c4f565b610ca57f6d05492139c5ea989514a5d2150c028041e5c087e2a39967f67dc7d2655adb81916103a4565b90610caf60405190565b600090a2565b6100e290610c35565b6100e290610cca6106e8565b610cda6000610c768360036103ed565b610ca57f44a3cd4eb5cc5748f6169df057b1cb2ae4c383e87cd94663c430e095d4cba424916103a4565b6100e290610cbe565b610d15610914565b600080825260208201526060604082015290565b6100f8610d0d565b906100e2610d786002610d42610914565b94610d5c610d4f826104d6565b6001600160a01b03168752565b610d72610d6b600183016104e7565b6020880152565b016105bf565b6040840152565b6100f890610d31565b610d9f6100f891610d97610d29565b5060026104c3565b610d7f565b6108f96100f891610db3600090565b5060036103ed56fea264697066735822122029b6deaf0a0f5c60b2f937536a544bf0da237f1e5c8e939727b0ab4d9a9717a464736f6c63430008140033","opcodes":"PUSH1 0x80 PUSH1 0x40 MSTORE CALLVALUE PUSH3 0x30 JUMPI PUSH3 0x1E PUSH3 0x18 PUSH3 0xD3 JUMP JUMPDEST PUSH3 0x196 JUMP JUMPDEST PUSH1 0x40 MLOAD PUSH2 0xDF1 PUSH3 0x2D7 DUP3 CODECOPY PUSH2 0xDF1 SWAP1 RETURN JUMPDEST PUSH1 0x0 DUP1 REVERT JUMPDEST PUSH4 0x4E487B71 PUSH1 0xE0 SHL PUSH1 0x0 MSTORE PUSH1 0x41 PUSH1 0x4 MSTORE PUSH1 0x24 PUSH1 0x0 REVERT JUMPDEST SWAP1 PUSH1 0x1F ADD PUSH1 0x1F NOT AND DUP2 ADD SWAP1 DUP2 LT PUSH1 0x1 PUSH1 0x1 PUSH1 0x40 SHL SUB DUP3 GT OR PUSH3 0x6D JUMPI PUSH1 0x40 MSTORE JUMP JUMPDEST PUSH3 0x35 JUMP JUMPDEST SWAP1 PUSH3 0x8A PUSH3 0x82 PUSH1 0x40 MLOAD SWAP1 JUMP JUMPDEST SWAP3 DUP4 PUSH3 0x4B JUMP JUMPDEST JUMP JUMPDEST PUSH1 0x1 PUSH1 0x1 PUSH1 0xA0 SHL SUB AND SWAP1 JUMP JUMPDEST SWAP1 JUMP JUMPDEST PUSH1 0x1 PUSH1 0x1 PUSH1 0xA0 SHL SUB DUP2 AND SUB PUSH3 0x30 JUMPI JUMP JUMPDEST SWAP1 POP MLOAD SWAP1 PUSH3 0x8A DUP3 PUSH3 0x9B JUMP JUMPDEST SWAP1 PUSH1 0x20 DUP3 DUP3 SUB SLT PUSH3 0x30 JUMPI PUSH3 0x98 SWAP2 PUSH3 0xAD JUMP JUMPDEST PUSH3 0x98 PUSH3 0x10C8 DUP1 CODESIZE SUB DUP1 PUSH3 0xEA DUP2 PUSH3 0x73 JUMP JUMPDEST SWAP3 DUP4 CODECOPY DUP2 ADD SWAP1 PUSH3 0xBC JUMP JUMPDEST PUSH3 0x98 SWAP1 PUSH3 0x8C SWAP1 PUSH1 0x1 PUSH1 0x1 PUSH1 0xA0 SHL SUB AND DUP3 JUMP JUMPDEST PUSH3 0x98 SWAP1 PUSH3 0xF6 JUMP JUMPDEST PUSH3 0x98 SWAP1 PUSH3 0x10C JUMP JUMPDEST SWAP1 PUSH1 0x1 PUSH1 0x1 PUSH1 0xA0 SHL SUB SWAP1 JUMPDEST SWAP2 DUP2 NOT AND SWAP2 AND OR SWAP1 JUMP JUMPDEST SWAP1 PUSH3 0x14B PUSH3 0x98 PUSH3 0x153 SWAP3 PUSH3 0x117 JUMP JUMPDEST DUP3 SLOAD PUSH3 0x122 JUMP JUMPDEST SWAP1 SSTORE JUMP JUMPDEST SWAP1 PUSH3 0x163 SWAP1 PUSH3 0x117 JUMP JUMPDEST PUSH1 0x0 MSTORE PUSH1 0x20 MSTORE PUSH1 0x40 PUSH1 0x0 KECCAK256 SWAP1 JUMP JUMPDEST SWAP1 PUSH1 0xFF SWAP1 PUSH3 0x12D JUMP JUMPDEST SWAP1 PUSH3 0x18E PUSH3 0x98 PUSH3 0x153 SWAP3 ISZERO ISZERO SWAP1 JUMP JUMPDEST DUP3 SLOAD PUSH3 0x171 JUMP JUMPDEST PUSH3 0x8A SWAP1 PUSH3 0x1BE PUSH3 0x1B6 CALLER SWAP3 PUSH3 0x1B0 DUP5 PUSH3 0x201 JUMP JUMPDEST PUSH3 0x117 JUMP JUMPDEST PUSH1 0x1 PUSH3 0x137 JUMP JUMPDEST PUSH3 0x1CD PUSH1 0x1 SWAP2 PUSH1 0x3 PUSH3 0x157 JUMP JUMPDEST PUSH3 0x17B JUMP JUMPDEST PUSH3 0x8C PUSH3 0x98 PUSH3 0x98 SWAP3 SWAP1 JUMP JUMPDEST PUSH3 0x98 SWAP1 PUSH3 0x1D3 JUMP JUMPDEST PUSH1 0x1 PUSH1 0x1 PUSH1 0xA0 SHL SUB SWAP1 SWAP2 AND DUP2 MSTORE PUSH1 0x20 ADD SWAP1 JUMP JUMPDEST PUSH3 0x20D PUSH1 0x0 PUSH3 0x1E3 JUMP JUMPDEST PUSH1 0x1 PUSH1 0x1 PUSH1 0xA0 SHL SUB DUP2 AND PUSH1 0x1 PUSH1 0x1 PUSH1 0xA0 SHL SUB DUP4 AND EQ PUSH3 0x233 JUMPI POP PUSH3 0x8A SWAP1 PUSH3 0x274 JUMP JUMPDEST PUSH3 0x259 SWAP1 PUSH3 0x242 PUSH1 0x40 MLOAD SWAP1 JUMP JUMPDEST PUSH4 0x1E4FBDF7 PUSH1 0xE0 SHL DUP2 MSTORE SWAP2 DUP3 SWAP2 PUSH1 0x4 DUP4 ADD PUSH3 0x1EE JUMP JUMPDEST SUB SWAP1 REVERT JUMPDEST PUSH3 0x98 SWAP1 PUSH3 0x8C JUMP JUMPDEST PUSH3 0x98 SWAP1 SLOAD PUSH3 0x25D JUMP JUMPDEST PUSH3 0x280 PUSH1 0x0 PUSH3 0x268 JUMP JUMPDEST SWAP1 PUSH3 0x28E DUP2 PUSH1 0x0 PUSH3 0x137 JUMP JUMPDEST PUSH3 0x2C5 PUSH3 0x2BE PUSH32 0x8BE0079C531659141344CD1FD0A4F28419497F9722A3DAAFE3B4186F6B6457E0 SWAP4 PUSH3 0x117 JUMP JUMPDEST SWAP2 PUSH3 0x117 JUMP JUMPDEST SWAP2 PUSH3 0x2D0 PUSH1 0x40 MLOAD SWAP1 JUMP JUMPDEST PUSH1 0x0 SWAP1 LOG3 JUMP INVALID PUSH1 0x80 PUSH1 0x40 MSTORE PUSH1 0x4 CALLDATASIZE LT ISZERO PUSH2 0x12 JUMPI PUSH1 0x0 DUP1 REVERT JUMPDEST PUSH1 0x0 CALLDATALOAD PUSH1 0xE0 SHR DUP1 PUSH4 0x343B1E7 EQ PUSH2 0xC2 JUMPI DUP1 PUSH4 0x33105218 EQ PUSH2 0xBD JUMPI DUP1 PUSH4 0x4F775B93 EQ PUSH2 0xB8 JUMPI DUP1 PUSH4 0x637BF795 EQ PUSH2 0xB3 JUMPI DUP1 PUSH4 0x6C824487 EQ PUSH2 0xAE JUMPI DUP1 PUSH4 0x715018A6 EQ PUSH2 0xA9 JUMPI DUP1 PUSH4 0x8DA5CB5B EQ PUSH2 0xA4 JUMPI DUP1 PUSH4 0x9000B3D6 EQ PUSH2 0x9F JUMPI DUP1 PUSH4 0xBFC87A84 EQ PUSH2 0x9A JUMPI DUP1 PUSH4 0xCA2DFD0A EQ PUSH2 0x95 JUMPI PUSH4 0xF2FDE38B SUB PUSH2 0xC7 JUMPI PUSH2 0x686 JUMP JUMPDEST PUSH2 0x66E JUMP JUMPDEST PUSH2 0x644 JUMP JUMPDEST PUSH2 0x49E JUMP JUMPDEST PUSH2 0x469 JUMP JUMPDEST PUSH2 0x451 JUMP JUMPDEST PUSH2 0x436 JUMP JUMPDEST PUSH2 0x3C6 JUMP JUMPDEST PUSH2 0x331 JUMP JUMPDEST PUSH2 0x20A JUMP JUMPDEST PUSH2 0x1AF JUMP JUMPDEST PUSH1 0x0 DUP1 REVERT JUMPDEST DUP1 JUMPDEST SUB PUSH2 0xC7 JUMPI JUMP JUMPDEST SWAP1 POP CALLDATALOAD SWAP1 PUSH2 0xE2 DUP3 PUSH2 0xCC JUMP JUMPDEST JUMP JUMPDEST SWAP1 PUSH1 0x20 DUP3 DUP3 SUB SLT PUSH2 0xC7 JUMPI PUSH2 0xF8 SWAP2 PUSH2 0xD5 JUMP JUMPDEST SWAP1 JUMP JUMPDEST PUSH1 0x1 PUSH1 0x1 PUSH1 0xA0 SHL SUB AND SWAP1 JUMP JUMPDEST SWAP1 MSTORE JUMP JUMPDEST PUSH1 0x0 JUMPDEST DUP4 DUP2 LT PUSH2 0x11E JUMPI POP POP PUSH1 0x0 SWAP2 ADD MSTORE JUMP JUMPDEST DUP2 DUP2 ADD MLOAD DUP4 DUP3 ADD MSTORE PUSH1 0x20 ADD PUSH2 0x10E JUMP JUMPDEST PUSH2 0x14F PUSH2 0x158 PUSH1 0x20 SWAP4 PUSH2 0x162 SWAP4 PUSH2 0x143 DUP2 MLOAD SWAP1 JUMP JUMPDEST DUP1 DUP4 MSTORE SWAP4 DUP5 SWAP3 PUSH1 0x20 ADD SWAP1 JUMP JUMPDEST SWAP6 DUP7 SWAP2 ADD PUSH2 0x10B JUMP JUMPDEST PUSH1 0x1F ADD PUSH1 0x1F NOT AND SWAP1 JUMP JUMPDEST ADD SWAP1 JUMP JUMPDEST DUP1 MLOAD PUSH1 0x1 PUSH1 0x1 PUSH1 0xA0 SHL SUB AND DUP3 MSTORE PUSH2 0xF8 SWAP2 PUSH1 0x60 DUP2 ADD SWAP2 PUSH1 0x40 SWAP1 PUSH2 0x18E PUSH1 0x20 DUP3 ADD MLOAD PUSH1 0x20 DUP6 ADD MSTORE JUMP JUMPDEST ADD MLOAD SWAP1 PUSH1 0x40 DUP2 DUP5 SUB SWAP2 ADD MSTORE PUSH2 0x12E JUMP JUMPDEST PUSH1 0x20 DUP1 DUP3 MSTORE PUSH2 0xF8 SWAP3 SWAP2 ADD SWAP1 PUSH2 0x166 JUMP JUMPDEST CALLVALUE PUSH2 0xC7 JUMPI PUSH2 0x1D6 PUSH2 0x1CA PUSH2 0x1C5 CALLDATASIZE PUSH1 0x4 PUSH2 0xE4 JUMP JUMPDEST PUSH2 0xD88 JUMP JUMPDEST PUSH1 0x40 MLOAD SWAP2 DUP3 SWAP2 DUP3 PUSH2 0x19E JUMP JUMPDEST SUB SWAP1 RETURN JUMPDEST PUSH1 0x1 PUSH1 0x1 PUSH1 0xA0 SHL SUB DUP2 AND PUSH2 0xCE JUMP JUMPDEST SWAP1 POP CALLDATALOAD SWAP1 PUSH2 0xE2 DUP3 PUSH2 0x1DA JUMP JUMPDEST SWAP1 PUSH1 0x20 DUP3 DUP3 SUB SLT PUSH2 0xC7 JUMPI PUSH2 0xF8 SWAP2 PUSH2 0x1E9 JUMP JUMPDEST CALLVALUE PUSH2 0xC7 JUMPI PUSH2 0x1D6 PUSH2 0x225 PUSH2 0x220 CALLDATASIZE PUSH1 0x4 PUSH2 0x1F6 JUMP JUMPDEST PUSH2 0xDA4 JUMP JUMPDEST PUSH1 0x40 MLOAD SWAP2 DUP3 SWAP2 DUP3 SWAP1 ISZERO ISZERO DUP2 MSTORE PUSH1 0x20 ADD SWAP1 JUMP JUMPDEST PUSH4 0x4E487B71 PUSH1 0xE0 SHL PUSH1 0x0 MSTORE PUSH1 0x41 PUSH1 0x4 MSTORE PUSH1 0x24 PUSH1 0x0 REVERT JUMPDEST SWAP1 PUSH1 0x1F ADD PUSH1 0x1F NOT AND DUP2 ADD SWAP1 DUP2 LT PUSH8 0xFFFFFFFFFFFFFFFF DUP3 GT OR PUSH2 0x26F JUMPI PUSH1 0x40 MSTORE JUMP JUMPDEST PUSH2 0x237 JUMP JUMPDEST SWAP1 PUSH2 0xE2 PUSH2 0x281 PUSH1 0x40 MLOAD SWAP1 JUMP JUMPDEST SWAP3 DUP4 PUSH2 0x24D JUMP JUMPDEST PUSH8 0xFFFFFFFFFFFFFFFF DUP2 GT PUSH2 0x26F JUMPI PUSH1 0x20 SWAP1 PUSH1 0x1F ADD PUSH1 0x1F NOT AND ADD SWAP1 JUMP JUMPDEST SWAP1 DUP3 PUSH1 0x0 SWAP4 SWAP3 DUP3 CALLDATACOPY ADD MSTORE JUMP JUMPDEST SWAP1 SWAP3 SWAP2 SWAP3 PUSH2 0x2C6 PUSH2 0x2C1 DUP3 PUSH2 0x288 JUMP JUMPDEST PUSH2 0x274 JUMP JUMPDEST SWAP4 DUP2 DUP6 MSTORE PUSH1 0x20 DUP6 ADD SWAP1 DUP3 DUP5 ADD GT PUSH2 0xC7 JUMPI PUSH2 0xE2 SWAP3 PUSH2 0x2A5 JUMP JUMPDEST SWAP1 DUP1 PUSH1 0x1F DUP4 ADD SLT ISZERO PUSH2 0xC7 JUMPI DUP2 PUSH1 0x20 PUSH2 0xF8 SWAP4 CALLDATALOAD SWAP2 ADD PUSH2 0x2B1 JUMP JUMPDEST SWAP2 SWAP1 SWAP2 PUSH1 0x40 DUP2 DUP5 SUB SLT PUSH2 0xC7 JUMPI PUSH2 0x312 DUP4 DUP3 PUSH2 0xD5 JUMP JUMPDEST SWAP3 PUSH1 0x20 DUP3 ADD CALLDATALOAD PUSH8 0xFFFFFFFFFFFFFFFF DUP2 GT PUSH2 0xC7 JUMPI PUSH2 0xF8 SWAP3 ADD PUSH2 0x2E0 JUMP JUMPDEST CALLVALUE PUSH2 0xC7 JUMPI PUSH2 0x34A PUSH2 0x344 CALLDATASIZE PUSH1 0x4 PUSH2 0x2FB JUMP JUMPDEST SWAP1 PUSH2 0xC2B JUMP JUMPDEST PUSH1 0x40 MLOAD STOP JUMPDEST PUSH1 0x0 SWAP2 SUB SLT PUSH2 0xC7 JUMPI JUMP JUMPDEST PUSH2 0xF8 SWAP2 PUSH1 0x8 MUL SHR PUSH1 0x1 PUSH1 0x1 PUSH1 0xA0 SHL SUB AND SWAP1 JUMP JUMPDEST SWAP1 PUSH2 0xF8 SWAP2 SLOAD PUSH2 0x35A JUMP JUMPDEST PUSH2 0xF8 PUSH1 0x0 PUSH1 0x1 PUSH2 0x36E JUMP JUMPDEST PUSH2 0xFB PUSH2 0xF8 PUSH2 0xF8 SWAP3 PUSH1 0x1 PUSH1 0x1 PUSH1 0xA0 SHL SUB AND SWAP1 JUMP JUMPDEST PUSH2 0xF8 SWAP1 PUSH2 0x385 JUMP JUMPDEST PUSH2 0xF8 SWAP1 PUSH2 0x39B JUMP JUMPDEST PUSH2 0x107 SWAP1 PUSH2 0x3A4 JUMP JUMPDEST PUSH1 0x20 DUP2 ADD SWAP3 SWAP2 PUSH2 0xE2 SWAP2 SWAP1 PUSH2 0x3AD JUMP JUMPDEST CALLVALUE PUSH2 0xC7 JUMPI PUSH2 0x3D6 CALLDATASIZE PUSH1 0x4 PUSH2 0x34F JUMP JUMPDEST PUSH2 0x1D6 PUSH2 0x3E1 PUSH2 0x379 JUMP JUMPDEST PUSH1 0x40 MLOAD SWAP2 DUP3 SWAP2 DUP3 PUSH2 0x3B6 JUMP JUMPDEST SWAP1 PUSH2 0x3F7 SWAP1 PUSH2 0x3A4 JUMP JUMPDEST PUSH1 0x0 MSTORE PUSH1 0x20 MSTORE PUSH1 0x40 PUSH1 0x0 KECCAK256 SWAP1 JUMP JUMPDEST PUSH2 0xF8 SWAP2 PUSH1 0x8 MUL SHR JUMPDEST PUSH1 0xFF AND SWAP1 JUMP JUMPDEST SWAP1 PUSH2 0xF8 SWAP2 SLOAD PUSH2 0x405 JUMP JUMPDEST PUSH2 0xF8 SWAP1 PUSH2 0x431 PUSH1 0x3 SWAP2 PUSH1 0x0 SWAP3 PUSH2 0x3ED JUMP JUMPDEST PUSH2 0x414 JUMP JUMPDEST CALLVALUE PUSH2 0xC7 JUMPI PUSH2 0x1D6 PUSH2 0x225 PUSH2 0x44C CALLDATASIZE PUSH1 0x4 PUSH2 0x1F6 JUMP JUMPDEST PUSH2 0x41F JUMP JUMPDEST CALLVALUE PUSH2 0xC7 JUMPI PUSH2 0x461 CALLDATASIZE PUSH1 0x4 PUSH2 0x34F JUMP JUMPDEST PUSH2 0x34A PUSH2 0x6E0 JUMP JUMPDEST CALLVALUE PUSH2 0xC7 JUMPI PUSH2 0x479 CALLDATASIZE PUSH1 0x4 PUSH2 0x34F JUMP JUMPDEST PUSH2 0x1D6 PUSH2 0x484 PUSH2 0x69E JUMP JUMPDEST PUSH1 0x40 MLOAD SWAP2 DUP3 SWAP2 DUP3 PUSH1 0x1 PUSH1 0x1 PUSH1 0xA0 SHL SUB SWAP1 SWAP2 AND DUP2 MSTORE PUSH1 0x20 ADD SWAP1 JUMP JUMPDEST CALLVALUE PUSH2 0xC7 JUMPI PUSH2 0x34A PUSH2 0x4B1 CALLDATASIZE PUSH1 0x4 PUSH2 0x1F6 JUMP JUMPDEST PUSH2 0xCB5 JUMP JUMPDEST PUSH2 0xF8 PUSH2 0xF8 PUSH2 0xF8 SWAP3 SWAP1 JUMP JUMPDEST SWAP1 PUSH2 0x3F7 SWAP1 PUSH2 0x4B6 JUMP JUMPDEST PUSH2 0xF8 SWAP1 PUSH2 0xFB JUMP JUMPDEST PUSH2 0xF8 SWAP1 SLOAD PUSH2 0x4CD JUMP JUMPDEST PUSH2 0xF8 SWAP1 DUP2 JUMP JUMPDEST PUSH2 0xF8 SWAP1 SLOAD PUSH2 0x4E0 JUMP JUMPDEST PUSH4 0x4E487B71 PUSH1 0xE0 SHL PUSH1 0x0 MSTORE PUSH1 0x22 PUSH1 0x4 MSTORE PUSH1 0x24 PUSH1 0x0 REVERT JUMPDEST SWAP1 PUSH1 0x1 PUSH1 0x2 DUP4 DIV SWAP3 AND DUP1 ISZERO PUSH2 0x527 JUMPI JUMPDEST PUSH1 0x20 DUP4 LT EQ PUSH2 0x522 JUMPI JUMP JUMPDEST PUSH2 0x4F1 JUMP JUMPDEST SWAP2 PUSH1 0x7F AND SWAP2 PUSH2 0x517 JUMP JUMPDEST DUP1 SLOAD PUSH1 0x0 SWAP4 SWAP3 SWAP2 PUSH2 0x54E PUSH2 0x544 DUP4 PUSH2 0x507 JUMP JUMPDEST DUP1 DUP6 MSTORE SWAP4 PUSH1 0x20 ADD SWAP1 JUMP JUMPDEST SWAP2 PUSH1 0x1 DUP2 AND SWAP1 DUP2 ISZERO PUSH2 0x5A0 JUMPI POP PUSH1 0x1 EQ PUSH2 0x567 JUMPI POP POP POP JUMP JUMPDEST PUSH2 0x57A SWAP2 SWAP3 SWAP4 SWAP5 POP PUSH1 0x0 MSTORE PUSH1 0x20 PUSH1 0x0 KECCAK256 SWAP1 JUMP JUMPDEST SWAP2 PUSH1 0x0 SWAP3 JUMPDEST DUP2 DUP5 LT PUSH2 0x58C JUMPI POP POP ADD SWAP1 JUMP JUMPDEST DUP1 SLOAD DUP5 DUP5 ADD MSTORE PUSH1 0x20 SWAP1 SWAP4 ADD SWAP3 PUSH1 0x1 ADD PUSH2 0x57F JUMP JUMPDEST SWAP3 SWAP5 SWAP6 POP POP POP PUSH1 0xFF NOT AND DUP3 MSTORE ISZERO ISZERO PUSH1 0x20 MUL ADD SWAP1 JUMP JUMPDEST SWAP1 PUSH2 0xF8 SWAP2 PUSH2 0x531 JUMP JUMPDEST SWAP1 PUSH2 0xE2 PUSH2 0x5D9 SWAP3 PUSH2 0x5D0 PUSH1 0x40 MLOAD SWAP1 JUMP JUMPDEST SWAP4 DUP5 DUP1 SWAP3 PUSH2 0x5B5 JUMP JUMPDEST SUB DUP4 PUSH2 0x24D JUMP JUMPDEST PUSH2 0x5EB SWAP1 PUSH1 0x2 PUSH2 0x4C3 JUMP JUMPDEST PUSH2 0x5F4 DUP2 PUSH2 0x4D6 JUMP JUMPDEST SWAP2 PUSH2 0xF8 PUSH1 0x2 PUSH2 0x606 PUSH1 0x1 DUP6 ADD PUSH2 0x4E7 JUMP JUMPDEST SWAP4 ADD PUSH2 0x5BF JUMP JUMPDEST PUSH2 0x637 PUSH2 0xF8 SWAP5 SWAP3 SWAP4 PUSH2 0x630 PUSH1 0x60 DUP5 ADD SWAP6 PUSH1 0x0 DUP6 ADD SWAP1 PUSH1 0x1 PUSH1 0x1 PUSH1 0xA0 SHL SUB AND SWAP1 MSTORE JUMP JUMPDEST PUSH1 0x20 DUP4 ADD MSTORE JUMP JUMPDEST PUSH1 0x40 DUP2 DUP5 SUB SWAP2 ADD MSTORE PUSH2 0x12E JUMP JUMPDEST CALLVALUE PUSH2 0xC7 JUMPI PUSH2 0x1D6 PUSH2 0x65F PUSH2 0x65A CALLDATASIZE PUSH1 0x4 PUSH2 0xE4 JUMP JUMPDEST PUSH2 0x5E0 JUMP JUMPDEST PUSH1 0x40 MLOAD SWAP2 SWAP4 SWAP2 SWAP4 DUP5 SWAP4 DUP5 PUSH2 0x60D JUMP JUMPDEST CALLVALUE PUSH2 0xC7 JUMPI PUSH2 0x34A PUSH2 0x681 CALLDATASIZE PUSH1 0x4 PUSH2 0x1F6 JUMP JUMPDEST PUSH2 0xD04 JUMP JUMPDEST CALLVALUE PUSH2 0xC7 JUMPI PUSH2 0x34A PUSH2 0x699 CALLDATASIZE PUSH1 0x4 PUSH2 0x1F6 JUMP JUMPDEST PUSH2 0x7D6 JUMP JUMPDEST PUSH2 0xF8 PUSH1 0x0 PUSH2 0x4D6 JUMP JUMPDEST PUSH2 0x6B0 PUSH2 0x6E8 JUMP JUMPDEST PUSH2 0xE2 PUSH2 0x6CE JUMP JUMPDEST PUSH2 0xFB PUSH2 0xF8 PUSH2 0xF8 SWAP3 SWAP1 JUMP JUMPDEST PUSH2 0xF8 SWAP1 PUSH2 0x6B8 JUMP JUMPDEST PUSH2 0xE2 PUSH2 0x6DB PUSH1 0x0 PUSH2 0x6C5 JUMP JUMPDEST PUSH2 0x80F JUMP JUMPDEST PUSH2 0xE2 PUSH2 0x6A8 JUMP JUMPDEST PUSH2 0x6F0 PUSH2 0x69E JUMP JUMPDEST CALLER SWAP1 DUP2 SWAP1 PUSH1 0x1 PUSH1 0x1 PUSH1 0xA0 SHL SUB AND SUB PUSH2 0x705 JUMPI POP JUMP JUMPDEST PUSH2 0x74F SWAP1 PUSH2 0x712 PUSH1 0x40 MLOAD SWAP1 JUMP JUMPDEST SWAP2 DUP3 SWAP2 PUSH32 0x118CDAA700000000000000000000000000000000000000000000000000000000 DUP4 MSTORE PUSH1 0x4 DUP4 ADD PUSH1 0x1 PUSH1 0x1 PUSH1 0xA0 SHL SUB SWAP1 SWAP2 AND DUP2 MSTORE PUSH1 0x20 ADD SWAP1 JUMP JUMPDEST SUB SWAP1 REVERT JUMPDEST PUSH2 0xE2 SWAP1 PUSH2 0x75F PUSH2 0x6E8 JUMP JUMPDEST PUSH2 0x769 PUSH1 0x0 PUSH2 0x6C5 JUMP JUMPDEST PUSH1 0x1 PUSH1 0x1 PUSH1 0xA0 SHL SUB DUP2 AND PUSH1 0x1 PUSH1 0x1 PUSH1 0xA0 SHL SUB DUP4 AND EQ PUSH2 0x78C JUMPI POP PUSH2 0xE2 SWAP1 PUSH2 0x80F JUMP JUMPDEST PUSH2 0x74F SWAP1 PUSH2 0x799 PUSH1 0x40 MLOAD SWAP1 JUMP JUMPDEST SWAP2 DUP3 SWAP2 PUSH32 0x1E4FBDF700000000000000000000000000000000000000000000000000000000 DUP4 MSTORE PUSH1 0x4 DUP4 ADD PUSH1 0x1 PUSH1 0x1 PUSH1 0xA0 SHL SUB SWAP1 SWAP2 AND DUP2 MSTORE PUSH1 0x20 ADD SWAP1 JUMP JUMPDEST PUSH2 0xE2 SWAP1 PUSH2 0x753 JUMP JUMPDEST SWAP1 PUSH1 0x1 PUSH1 0x1 PUSH1 0xA0 SHL SUB SWAP1 JUMPDEST SWAP2 DUP2 NOT AND SWAP2 AND OR SWAP1 JUMP JUMPDEST SWAP1 PUSH2 0x804 PUSH2 0xF8 PUSH2 0x80B SWAP3 PUSH2 0x3A4 JUMP JUMPDEST DUP3 SLOAD PUSH2 0x7DF JUMP JUMPDEST SWAP1 SSTORE JUMP JUMPDEST PUSH2 0x819 PUSH1 0x0 PUSH2 0x4D6 JUMP JUMPDEST SWAP1 PUSH2 0x825 DUP2 PUSH1 0x0 PUSH2 0x7F4 JUMP JUMPDEST PUSH2 0x858 PUSH2 0x852 PUSH32 0x8BE0079C531659141344CD1FD0A4F28419497F9722A3DAAFE3B4186F6B6457E0 SWAP4 PUSH2 0x3A4 JUMP JUMPDEST SWAP2 PUSH2 0x3A4 JUMP JUMPDEST SWAP2 PUSH2 0x862 PUSH1 0x40 MLOAD SWAP1 JUMP JUMPDEST DUP1 DUP1 JUMPDEST SUB SWAP1 LOG3 JUMP JUMPDEST PUSH2 0xF8 SWAP1 PUSH2 0x40E JUMP JUMPDEST PUSH2 0xF8 SWAP1 SLOAD PUSH2 0x86A JUMP JUMPDEST ISZERO PUSH2 0x884 JUMPI JUMP JUMPDEST PUSH1 0x40 MLOAD PUSH32 0x8C379A000000000000000000000000000000000000000000000000000000000 DUP2 MSTORE PUSH1 0x20 PUSH1 0x4 DUP3 ADD MSTORE PUSH1 0x18 PUSH1 0x24 DUP3 ADD MSTORE PUSH32 0x43616C6C6572206973206E6F7420612076657269666965720000000000000000 PUSH1 0x44 DUP3 ADD MSTORE PUSH1 0x64 SWAP1 REVERT JUMPDEST PUSH2 0xE2 SWAP2 SWAP1 PUSH2 0x903 PUSH2 0x8FE PUSH2 0x8F9 CALLER PUSH1 0x3 PUSH2 0x3ED JUMP JUMPDEST PUSH2 0x873 JUMP JUMPDEST PUSH2 0x87D JUMP JUMPDEST PUSH2 0xB2B JUMP JUMPDEST PUSH1 0x40 MLOAD RETURNDATASIZE PUSH1 0x0 DUP3 RETURNDATACOPY RETURNDATASIZE SWAP1 REVERT JUMPDEST PUSH2 0xF8 PUSH1 0x60 PUSH2 0x274 JUMP JUMPDEST SWAP1 PUSH1 0x0 NOT SWAP1 PUSH2 0x7EA JUMP JUMPDEST SWAP1 PUSH2 0x938 PUSH2 0xF8 PUSH2 0x80B SWAP3 PUSH2 0x4B6 JUMP JUMPDEST DUP3 SLOAD PUSH2 0x91E JUMP JUMPDEST SWAP2 PUSH1 0x0 NOT PUSH1 0x8 SWAP3 SWAP1 SWAP3 MUL SWAP2 DUP3 SHL SWAP2 SHL PUSH2 0x7EA JUMP JUMPDEST SWAP2 SWAP1 PUSH2 0x964 PUSH2 0xF8 PUSH2 0x80B SWAP4 PUSH2 0x4B6 JUMP JUMPDEST SWAP1 DUP4 SLOAD PUSH2 0x93F JUMP JUMPDEST PUSH2 0xE2 SWAP2 PUSH1 0x0 SWAP2 PUSH2 0x953 JUMP JUMPDEST DUP2 DUP2 LT PUSH2 0x983 JUMPI POP POP JUMP JUMPDEST DUP1 PUSH2 0x991 PUSH1 0x0 PUSH1 0x1 SWAP4 PUSH2 0x96C JUMP JUMPDEST ADD PUSH2 0x978 JUMP JUMPDEST SWAP2 SWAP1 PUSH1 0x1F DUP2 GT PUSH2 0x9A6 JUMPI POP POP POP JUMP JUMPDEST PUSH2 0x9B8 PUSH2 0xE2 SWAP4 PUSH1 0x0 MSTORE PUSH1 0x20 PUSH1 0x0 KECCAK256 SWAP1 JUMP JUMPDEST SWAP1 PUSH1 0x20 PUSH1 0x1F DUP5 ADD DUP2 SWAP1 DIV DUP4 ADD SWAP4 LT PUSH2 0x9DA JUMPI JUMPDEST PUSH1 0x20 PUSH1 0x1F SWAP1 SWAP2 ADD DIV ADD SWAP1 PUSH2 0x978 JUMP JUMPDEST SWAP1 SWAP2 POP DUP2 SWAP1 PUSH2 0x9CB JUMP JUMPDEST SWAP1 PUSH2 0x9ED DUP2 MLOAD SWAP1 JUMP JUMPDEST SWAP1 PUSH8 0xFFFFFFFFFFFFFFFF DUP3 GT PUSH2 0x26F JUMPI PUSH2 0xA11 DUP3 PUSH2 0xA0B DUP6 SLOAD PUSH2 0x507 JUMP JUMPDEST DUP6 PUSH2 0x997 JUMP JUMPDEST PUSH1 0x20 SWAP1 PUSH1 0x1F DUP4 GT PUSH1 0x1 EQ PUSH2 0xA4C JUMPI PUSH2 0x80B SWAP3 SWAP2 PUSH1 0x0 SWAP2 DUP4 PUSH2 0xA41 JUMPI JUMPDEST POP POP PUSH1 0x0 NOT PUSH1 0x8 DUP4 MUL SHR NOT AND SWAP1 PUSH1 0x2 MUL OR SWAP1 JUMP JUMPDEST ADD MLOAD SWAP1 POP CODESIZE DUP1 PUSH2 0xA2D JUMP JUMPDEST PUSH1 0x1F NOT DUP4 AND SWAP2 PUSH2 0xA61 DUP6 PUSH1 0x0 MSTORE PUSH1 0x20 PUSH1 0x0 KECCAK256 SWAP1 JUMP JUMPDEST SWAP3 PUSH1 0x0 JUMPDEST DUP2 DUP2 LT PUSH2 0xA9F JUMPI POP SWAP2 PUSH1 0x2 SWAP4 SWAP2 DUP6 PUSH1 0x1 SWAP7 SWAP5 LT PUSH2 0xA86 JUMPI JUMPDEST POP POP POP MUL ADD SWAP1 SSTORE JUMP JUMPDEST ADD MLOAD PUSH1 0x0 NOT PUSH1 0x8 PUSH1 0x1F DUP6 AND MUL SHR NOT AND SWAP1 SSTORE CODESIZE DUP1 DUP1 PUSH2 0xA7D JUMP JUMPDEST SWAP2 SWAP4 PUSH1 0x20 PUSH1 0x1 DUP2 SWAP3 DUP8 DUP8 ADD MLOAD DUP2 SSTORE ADD SWAP6 ADD SWAP3 ADD PUSH2 0xA65 JUMP JUMPDEST SWAP1 PUSH2 0xE2 SWAP2 PUSH2 0x9E4 JUMP JUMPDEST PUSH2 0xE2 SWAP2 SWAP1 PUSH2 0xB0A SWAP1 PUSH1 0x40 SWAP1 PUSH1 0x2 SWAP1 PUSH2 0xAEB DUP2 PUSH2 0xAE5 DUP8 MLOAD PUSH1 0x1 PUSH1 0x1 PUSH1 0xA0 SHL SUB AND SWAP1 JUMP JUMPDEST SWAP1 PUSH2 0x7F4 JUMP JUMPDEST PUSH2 0xB03 PUSH1 0x1 DUP3 ADD PUSH2 0xAFD PUSH1 0x20 DUP9 ADD MLOAD SWAP1 JUMP JUMPDEST SWAP1 PUSH2 0x928 JUMP JUMPDEST ADD SWAP3 ADD MLOAD SWAP1 JUMP JUMPDEST SWAP1 PUSH2 0xAB7 JUMP JUMPDEST SWAP1 PUSH2 0xE2 SWAP2 PUSH2 0xAC1 JUMP JUMPDEST PUSH1 0x20 DUP1 DUP3 MSTORE PUSH2 0xF8 SWAP3 SWAP2 ADD SWAP1 PUSH2 0x12E JUMP JUMPDEST PUSH2 0xB3D PUSH2 0xB38 PUSH1 0x1 PUSH2 0x4D6 JUMP JUMPDEST PUSH2 0x3A4 JUMP JUMPDEST PUSH4 0x14FE83F8 SWAP1 DUP1 EXTCODESIZE ISZERO PUSH2 0xC7 JUMPI PUSH2 0xB63 SWAP2 PUSH1 0x0 SWAP2 PUSH2 0xB5A PUSH1 0x40 MLOAD SWAP1 JUMP JUMPDEST SWAP4 DUP5 SWAP3 PUSH1 0xE0 SHL SWAP1 JUMP JUMPDEST DUP3 MSTORE PUSH1 0x4 DUP3 ADD DUP6 SWAP1 MSTORE PUSH1 0x24 SWAP1 DUP3 SWAP1 DUP5 SWAP1 GAS CALL DUP1 ISZERO PUSH2 0xC26 JUMPI PUSH2 0xC08 JUMPI JUMPDEST POP CALLER SWAP1 PUSH2 0xBBF TIMESTAMP PUSH2 0xBA4 PUSH2 0xB92 PUSH2 0x914 JUMP JUMPDEST PUSH1 0x1 PUSH1 0x1 PUSH1 0xA0 SHL SUB DUP7 AND DUP2 MSTORE SWAP2 PUSH2 0x630 JUMP JUMPDEST PUSH2 0xBAF DUP6 PUSH1 0x40 DUP4 ADD MSTORE JUMP JUMPDEST PUSH2 0xBBA DUP4 PUSH1 0x2 PUSH2 0x4C3 JUMP JUMPDEST PUSH2 0xB10 JUMP JUMPDEST PUSH2 0x865 PUSH2 0xBF5 PUSH2 0xBEF PUSH32 0x22B374D86DBAC4169EEF6A342BB371B562C7B328445B558D2AF8D09E76BA294A SWAP4 PUSH2 0x4B6 JUMP JUMPDEST SWAP4 PUSH2 0x3A4 JUMP JUMPDEST SWAP4 PUSH2 0xBFF PUSH1 0x40 MLOAD SWAP1 JUMP JUMPDEST SWAP2 DUP3 SWAP2 DUP3 PUSH2 0xB1A JUMP JUMPDEST PUSH2 0xC20 SWAP1 PUSH1 0x0 PUSH2 0xC18 DUP2 DUP4 PUSH2 0x24D JUMP JUMPDEST DUP2 ADD SWAP1 PUSH2 0x34F JUMP JUMPDEST CODESIZE PUSH2 0xB80 JUMP JUMPDEST PUSH2 0x908 JUMP JUMPDEST SWAP1 PUSH2 0xE2 SWAP2 PUSH2 0x8E3 JUMP JUMPDEST PUSH2 0xE2 SWAP1 PUSH2 0xC41 PUSH2 0x6E8 JUMP JUMPDEST PUSH2 0xC66 JUMP JUMPDEST SWAP1 PUSH1 0xFF SWAP1 PUSH2 0x7EA JUMP JUMPDEST SWAP1 PUSH2 0xC5F PUSH2 0xF8 PUSH2 0x80B SWAP3 ISZERO ISZERO SWAP1 JUMP JUMPDEST DUP3 SLOAD PUSH2 0xC46 JUMP JUMPDEST PUSH2 0xC7B PUSH1 0x1 PUSH2 0xC76 DUP4 PUSH1 0x3 PUSH2 0x3ED JUMP JUMPDEST PUSH2 0xC4F JUMP JUMPDEST PUSH2 0xCA5 PUSH32 0x6D05492139C5EA989514A5D2150C028041E5C087E2A39967F67DC7D2655ADB81 SWAP2 PUSH2 0x3A4 JUMP JUMPDEST SWAP1 PUSH2 0xCAF PUSH1 0x40 MLOAD SWAP1 JUMP JUMPDEST PUSH1 0x0 SWAP1 LOG2 JUMP JUMPDEST PUSH2 0xE2 SWAP1 PUSH2 0xC35 JUMP JUMPDEST PUSH2 0xE2 SWAP1 PUSH2 0xCCA PUSH2 0x6E8 JUMP JUMPDEST PUSH2 0xCDA PUSH1 0x0 PUSH2 0xC76 DUP4 PUSH1 0x3 PUSH2 0x3ED JUMP JUMPDEST PUSH2 0xCA5 PUSH32 0x44A3CD4EB5CC5748F6169DF057B1CB2AE4C383E87CD94663C430E095D4CBA424 SWAP2 PUSH2 0x3A4 JUMP JUMPDEST PUSH2 0xE2 SWAP1 PUSH2 0xCBE JUMP JUMPDEST PUSH2 0xD15 PUSH2 0x914 JUMP JUMPDEST PUSH1 0x0 DUP1 DUP3 MSTORE PUSH1 0x20 DUP3 ADD MSTORE PUSH1 0x60 PUSH1 0x40 DUP3 ADD MSTORE SWAP1 JUMP JUMPDEST PUSH2 0xF8 PUSH2 0xD0D JUMP JUMPDEST SWAP1 PUSH2 0xE2 PUSH2 0xD78 PUSH1 0x2 PUSH2 0xD42 PUSH2 0x914 JUMP JUMPDEST SWAP5 PUSH2 0xD5C PUSH2 0xD4F DUP3 PUSH2 0x4D6 JUMP JUMPDEST PUSH1 0x1 PUSH1 0x1 PUSH1 0xA0 SHL SUB AND DUP8 MSTORE JUMP JUMPDEST PUSH2 0xD72 PUSH2 0xD6B PUSH1 0x1 DUP4 ADD PUSH2 0x4E7 JUMP JUMPDEST PUSH1 0x20 DUP9 ADD MSTORE JUMP JUMPDEST ADD PUSH2 0x5BF JUMP JUMPDEST PUSH1 0x40 DUP5 ADD MSTORE JUMP JUMPDEST PUSH2 0xF8 SWAP1 PUSH2 0xD31 JUMP JUMPDEST PUSH2 0xD9F PUSH2 0xF8 SWAP2 PUSH2 0xD97 PUSH2 0xD29 JUMP JUMPDEST POP PUSH1 0x2 PUSH2 0x4C3 JUMP JUMPDEST PUSH2 0xD7F JUMP JUMPDEST PUSH2 0x8F9 PUSH2 0xF8 SWAP2 PUSH2 0xDB3 PUSH1 0x0 SWAP1 JUMP JUMPDEST POP PUSH1 0x3 PUSH2 0x3ED JUMP INVALID LOG2 PUSH5 0x6970667358 0x22 SLT KECCAK256 0x29 0xB6 0xDE 0xAF EXP 0xF 0x5C PUSH1 0xB2 0xF9 CALLDATACOPY MSTORE8 PUSH11 0x544BF0DA237F1E5C8E9397 0x27 0xB0 0xAB 0x4D SWAP11 SWAP8 OR LOG4 PUSH5 0x736F6C6343 STOP ADDMOD EQ STOP CALLER "},"methodIdentifiers":{"addVerifier(address)":"9000b3d6","carbonCredit()":"637bf795","getVerificationData(uint256)":"0343b1e7","isVerifier(address)":"33105218","owner()":"8da5cb5b","removeVerifier(address)":"ca2dfd0a","renounceOwnership()":"715018a6","transferOwnership(address)":"f2fde38b","verificationRecords(uint256)":"bfc87a84","verifiers(address)":"6c824487","verifyCredit(uint256,string)":"4f775b93"}}}}}