{"contracts/CarbonCreditMarket.sol":{"CarbonCreditMarket":{"abi":[{"inputs":[{"internalType":"address","name":"_carbonCreditToken","type":"address"}],"stateMutability":"nonpayable","type":"constructor"},{"inputs":[{"internalType":"address","name":"owner","type":"address"}],"name":"OwnableInvalidOwner","type":"error"},{"inputs":[{"internalType":"address","name":"account","type":"address"}],"name":"OwnableUnauthorizedAccount","type":"error"},{"anonymous":false,"inputs":[{"indexed":true,"internalType":"uint256","name":"tokenId","type":"uint256"},{"indexed":true,"internalType":"address","name":"seller","type":"address"},{"indexed":false,"internalType":"uint256","name":"price","type":"uint256"}],"name":"CreditListed","type":"event"},{"anonymous":false,"inputs":[{"indexed":true,"internalType":"uint256","name":"tokenId","type":"uint256"},{"indexed":true,"internalType":"address","name":"seller","type":"address"},{"indexed":true,"internalType":"address","name":"buyer","type":"address"},{"indexed":false,"internalType":"uint256","name":"price","type":"uint256"}],"name":"CreditSold","type":"event"},{"anonymous":false,"inputs":[{"indexed":true,"internalType":"uint256","name":"tokenId","type":"uint256"},{"indexed":true,"internalType":"address","name":"seller","type":"address"}],"name":"ListingCanceled","type":"event"},{"anonymous":false,"inputs":[{"indexed":true,"internalType":"address","name":"previousOwner","type":"address"},{"indexed":true,"internalType":"address","name":"newOwner","type":"address"}],"name":"OwnershipTransferred","type":"event"},{"anonymous":false,"inputs":[{"indexed":true,"internalType":"uint256","name":"tokenId","type":"uint256"},{"indexed":false,"internalType":"uint256","name":"newPrice","type":"uint256"}],"name":"PriceUpdated","type":"event"},{"inputs":[{"internalType":"uint256","name":"tokenId","type":"uint256"}],"name":"buyCredit","outputs":[],"stateMutability":"payable","type":"function"},{"inputs":[{"internalType":"uint256","name":"tokenId","type":"uint256"}],"name":"cancelListing","outputs":[],"stateMutability":"nonpayable","type":"function"},{"inputs":[],"name":"carbonCreditToken","outputs":[{"internalType":"contract IERC721","name":"","type":"address"}],"stateMutability":"view","type":"function"},{"inputs":[{"internalType":"uint256","name":"tokenId","type":"uint256"},{"internalType":"uint256","name":"price","type":"uint256"}],"name":"listCredit","outputs":[],"stateMutability":"nonpayable","type":"function"},{"inputs":[{"internalType":"uint256","name":"","type":"uint256"}],"name":"listings","outputs":[{"internalType":"address","name":"seller","type":"address"},{"internalType":"uint256","name":"price","type":"uint256"},{"internalType":"bool","name":"isActive","type":"bool"}],"stateMutability":"view","type":"function"},{"inputs":[],"name":"owner","outputs":[{"internalType":"address","name":"","type":"address"}],"stateMutability":"view","type":"function"},{"inputs":[],"name":"renounceOwnership","outputs":[],"stateMutability":"nonpayable","type":"function"},{"inputs":[{"internalType":"address","name":"newOwner","type":"address"}],"name":"transferOwnership","outputs":[],"stateMutability":"nonpayable","type":"function"},{"inputs":[{"internalType":"uint256","name":"tokenId","type":"uint256"},{"internalType":"uint256","name":"newPrice","type":"uint256"}],"name":"updatePrice","outputs":[],"stateMutability":"nonpayable","type":"function"}],"evm":{"bytecode":{"linkReferences":{},"object":"60806040523462000030576200001e62000018620000d3565b62000156565b604051610d946200027c8239610d9490f35b600080fd5b634e487b7160e01b600052604160045260246000fd5b90601f01601f191681019081106001600160401b038211176200006d57604052565b62000035565b906200008a6200008260405190565b92836200004b565b565b6001600160a01b031690565b90565b6001600160a01b038116036200003057565b905051906200008a826200009b565b9060208282031262000030576200009891620000ad565b620000986200101080380380620000ea8162000073565b928339810190620000bc565b62000098906200008c906001600160a01b031682565b6200009890620000f6565b62000098906200010c565b906200013662000098620001529262000117565b82546001600160a01b0319166001600160a01b03919091161790565b9055565b620001706200008a916200016a33620001a6565b62000117565b600162000122565b6200008c62000098620000989290565b620000989062000178565b6001600160a01b03909116815260200190565b620001b2600062000188565b6001600160a01b0381166001600160a01b03831614620001d857506200008a9062000219565b620001fe90620001e760405190565b631e4fbdf760e01b81529182916004830162000193565b0390fd5b62000098906200008c565b62000098905462000202565b6200022560006200020d565b906200023381600062000122565b6200026a620002637f8be0079c531659141344cd1fd0a4f28419497f9722a3daafe3b4186f6b6457e09362000117565b9162000117565b916200027560405190565b600090a356fe6080604052600436101561001257600080fd5b60003560e01c8063305a67a8146100a25780634fbf39291461009d57806366dea35814610098578063715018a6146100935780637211dde41461008e57806382367b2d146100895780638da5cb5b14610084578063de74e57b1461007f5763f2fde38b036100a757610374565b610320565b610252565b610220565b61020d565b6101f5565b6101ce565b61011f565b6100db565b600080fd5b805b036100a757565b905035906100c2826100ac565b565b906020828203126100a7576100d8916100b5565b90565b346100a7576100f36100ee3660046100c4565b610c89565b604051005b0390f35b91906040838203126100a7576100d89061011681856100b5565b936020016100b5565b346100a7576100f36101323660046100fc565b9061072c565b60009103126100a757565b6100d8916008021c5b73ffffffffffffffffffffffffffffffffffffffff1690565b906100d89154610143565b6100d860006001610165565b61014c6100d86100d89273ffffffffffffffffffffffffffffffffffffffff1690565b6100d89061017c565b6100d89061019f565b6101ba906101a8565b9052565b6020810192916100c291906101b1565b346100a7576101de366004610138565b6100f86101e9610170565b604051918291826101be565b346100a757610205366004610138565b6100f36103ce565b6100f361021b3660046100c4565b610afb565b346100a7576100f36102333660046100fc565b90610cf2565b6101ba9061014c565b6020810192916100c29190610239565b346100a757610262366004610138565b6100f861026d61038c565b60405191829182610242565b6100d86100d86100d89290565b9061029090610279565b600052602052604060002090565b6100d89061014c565b6100d8905461029e565b6100d89081565b6100d890546102b1565b6102cd906002610286565b6102d6816102a7565b916100d860026102e8600185016102b8565b93015460ff1690565b6040906103186100c2949695939661031160608401986000850190610239565b6020830152565b019015159052565b346100a7576100f861033b6103363660046100c4565b6102c2565b604051919391938493846102f1565b6100ae8161014c565b905035906100c28261034a565b906020828203126100a7576100d891610353565b346100a7576100f3610387366004610360565b6104ad565b6100d860006102a7565b61039e6103d6565b6100c26103bc565b61014c6100d86100d89290565b6100d8906103a6565b6100c26103c960006103b3565b6104f3565b6100c2610396565b6103de61038c565b33906103f26103ec8361014c565b9161014c565b036103fa5750565b6104369061040760405190565b9182917f118cdaa700000000000000000000000000000000000000000000000000000000835260048301610242565b0390fd5b6100c2906104466103d6565b61045060006103b3565b6104598161014c565b6104628361014c565b1461047157506100c2906104f3565b6104369061047e60405190565b9182917f1e4fbdf700000000000000000000000000000000000000000000000000000000835260048301610242565b6100c29061043a565b9073ffffffffffffffffffffffffffffffffffffffff905b9181191691161790565b906104e86100d86104ef926101a8565b82546104b6565b9055565b6104fd60006102a7565b906105098160006104d8565b61053c6105367f8be0079c531659141344cd1fd0a4f28419497f9722a3daafe3b4186f6b6457e0936101a8565b916101a8565b9161054660405190565b80805b0390a3565b634e487b7160e01b600052604160045260246000fd5b90601f01601f1916810190811067ffffffffffffffff82111761058657604052565b61054e565b905051906100c28261034a565b906020828203126100a7576100d89161058b565b6040513d6000823e3d90fd5b156105bf57565b60405162461bcd60e51b815260206004820152600f60248201527f4e6f7420746f6b656e206f776e657200000000000000000000000000000000006044820152606490fd5b1561060b57565b60405162461bcd60e51b815260206004820152601360248201527f4d61726b6574206e6f7420617070726f766564000000000000000000000000006044820152606490fd5b906100c261065d60405190565b9283610564565b6100d86060610650565b906101ba9061014c565b634e487b7160e01b600052600060045260246000fd5b6100d8905161014c565b90600019906104ce565b906106b26100d86104ef92610279565b8254610698565b9060ff906104ce565b906106d26100d86104ef92151590565b82546106b9565b6100c2919061071c906040906002906106fb816106f58761068e565b906104d8565b6107136001820161070d602088015190565b906106a2565b01920151151590565b906106c2565b906100c2916106d9565b61075c90602061074461073f60016102a7565b6101a8565b636352211e9061075360405190565b94859260e01b90565b82526004820184905260249082905afa9182156108b4576000926108b9575b50610793339261078d6103ec8561014c565b146105b8565b6107bd60206107a561073f60016102a7565b63081812fc906107b460405190565b93849260e01b90565b82526004820185905260249082905afa80156108b4576107fa91600091610886575b506107f46103ec6107ef306101a8565b61014c565b14610604565b610839600161082961080a610664565b91610815868461066e565b610820876020850152565b15156040830152565b610834836002610286565b610722565b61054961086f6108697f4ac0e51fccbcff90e2efa701b77c9cccff85e9345e1d32c94e7e785993b195c493610279565b936101a8565b9361087960405190565b9182918290815260200190565b6108a7915060203d81116108ad575b61089f8183610564565b810190610598565b386107df565b503d610895565b6105ac565b6108d291925060203d81116108ad5761089f8183610564565b903861077b565b906100c261091b60026108ea610664565b946108fd6108f7826102a7565b8761066e565b61091361090c600183016102b8565b6020880152565b015460ff1690565b15156040840152565b6100d8906108d9565b1561093457565b60405162461bcd60e51b815260206004820152601260248201527f4c697374696e67206e6f742061637469766500000000000000000000000000006044820152606490fd5b1561098057565b60405162461bcd60e51b815260206004820152600f60248201527f496e636f727265637420707269636500000000000000000000000000000000006044820152606490fd5b9160001960089290920291821b911b6104ce565b91906109ea6100d86104ef93610279565b9083546109c5565b6100c2916000916109d9565b600080825590600290610a1483600183016109f2565b0155565b90600003610a29576100c2906109fe565b610678565b604090610a586100c29496959396610a4e60608401986000850190610239565b6020830190610239565b0152565b67ffffffffffffffff811161058657602090601f01601f19160190565b90610a8b610a8683610a5c565b610650565b918252565b3d15610aaa57610a9f3d610a79565b903d6000602084013e565b606090565b15610ab657565b60405162461bcd60e51b815260206004820152601460248201527f4661696c656420746f2073656e642045746865720000000000000000000000006044820152606490fd5b600290610b10610b0b8284610286565b610924565b91610b26610b216040850151151590565b61092d565b610b5e6000610b5984610b53833498610b4d610b466100d8602084015190565b8b14610979565b0161068e565b94610286565b610a18565b610b6b61073f60016102a7565b33916323b872dd91803b156100a757610b8a9260009161075360405190565b8252818381610b9e8a8a8960048501610a2e565b03925af19182156108b457610bb892610c1f575b506101a8565b91610be0600080610bc8866101a8565b60405160009189905af1610bda610a90565b50610aaf565b610c1a610c106108697f7e47a1e6c94fa983ca28d7705e8a571d166221513a37da6b741dd937d16dfb1193610279565b9461087960405190565b0390a4565b610c37906000610c2f8183610564565b810190610138565b38610bb2565b15610c4457565b60405162461bcd60e51b815260206004820152600e60248201527f4e6f74207468652073656c6c65720000000000000000000000000000000000006044820152606490fd5b6002610cc56000610b5984610ca883610ca28388610286565b016102a7565b94610cc03396610cba6103ec8961014c565b14610c3d565b610286565b61053c6105367fbb7be15645f4eda9d65591c3a81b5e39256151f91bc25180315de259167c2e2393610279565b610d22826001610d1c846002610cc0610d106000610ca28585610286565b610cba6103ec3361014c565b016106a2565b610d59610d4f7f945c1c4e99aa89f648fbfe3df471b916f719e16d960fcec0737d4d56bd69683892610279565b9261087960405190565b0390a256fea2646970667358221220af14468eb1145c5b3ccbe35caaa76967d75fc8a8fba25139f5d8bff24481188f64736f6c63430008140033","opcodes":"PUSH1 0x80 PUSH1 0x40 MSTORE CALLVALUE PUSH3 0x30 JUMPI PUSH3 0x1E PUSH3 0x18 PUSH3 0xD3 JUMP JUMPDEST PUSH3 0x156 JUMP JUMPDEST PUSH1 0x40 MLOAD PUSH2 0xD94 PUSH3 0x27C DUP3 CODECOPY PUSH2 0xD94 SWAP1 RETURN JUMPDEST PUSH1 0x0 DUP1 REVERT JUMPDEST PUSH4 0x4E487B71 PUSH1 0xE0 SHL PUSH1 0x0 MSTORE PUSH1 0x41 PUSH1 0x4 MSTORE PUSH1 0x24 PUSH1 0x0 REVERT JUMPDEST SWAP1 PUSH1 0x1F ADD PUSH1 0x1F NOT AND DUP2 ADD SWAP1 DUP2 LT PUSH1 0x1 PUSH1 0x1 PUSH1 0x40 SHL SUB DUP3 GT OR PUSH3 0x6D JUMPI PUSH1 0x40 MSTORE JUMP JUMPDEST PUSH3 0x35 JUMP JUMPDEST SWAP1 PUSH3 0x8A PUSH3 0x82 PUSH1 0x40 MLOAD SWAP1 JUMP JUMPDEST SWAP3 DUP4 PUSH3 0x4B JUMP JUMPDEST JUMP JUMPDEST PUSH1 0x1 PUSH1 0x1 PUSH1 0xA0 SHL SUB AND SWAP1 JUMP JUMPDEST SWAP1 JUMP JUMPDEST PUSH1 0x1 PUSH1 0x1 PUSH1 0xA0 SHL SUB DUP2 AND SUB PUSH3 0x30 JUMPI JUMP JUMPDEST SWAP1 POP MLOAD SWAP1 PUSH3 0x8A DUP3 PUSH3 0x9B JUMP JUMPDEST SWAP1 PUSH1 0x20 DUP3 DUP3 SUB SLT PUSH3 0x30 JUMPI PUSH3 0x98 SWAP2 PUSH3 0xAD JUMP JUMPDEST PUSH3 0x98 PUSH3 0x1010 DUP1 CODESIZE SUB DUP1 PUSH3 0xEA DUP2 PUSH3 0x73 JUMP JUMPDEST SWAP3 DUP4 CODECOPY DUP2 ADD SWAP1 PUSH3 0xBC JUMP JUMPDEST PUSH3 0x98 SWAP1 PUSH3 0x8C SWAP1 PUSH1 0x1 PUSH1 0x1 PUSH1 0xA0 SHL SUB AND DUP3 JUMP JUMPDEST PUSH3 0x98 SWAP1 PUSH3 0xF6 JUMP JUMPDEST PUSH3 0x98 SWAP1 PUSH3 0x10C JUMP JUMPDEST SWAP1 PUSH3 0x136 PUSH3 0x98 PUSH3 0x152 SWAP3 PUSH3 0x117 JUMP JUMPDEST DUP3 SLOAD PUSH1 0x1 PUSH1 0x1 PUSH1 0xA0 SHL SUB NOT AND PUSH1 0x1 PUSH1 0x1 PUSH1 0xA0 SHL SUB SWAP2 SWAP1 SWAP2 AND OR SWAP1 JUMP JUMPDEST SWAP1 SSTORE JUMP JUMPDEST PUSH3 0x170 PUSH3 0x8A SWAP2 PUSH3 0x16A CALLER PUSH3 0x1A6 JUMP JUMPDEST PUSH3 0x117 JUMP JUMPDEST PUSH1 0x1 PUSH3 0x122 JUMP JUMPDEST PUSH3 0x8C PUSH3 0x98 PUSH3 0x98 SWAP3 SWAP1 JUMP JUMPDEST PUSH3 0x98 SWAP1 PUSH3 0x178 JUMP JUMPDEST PUSH1 0x1 PUSH1 0x1 PUSH1 0xA0 SHL SUB SWAP1 SWAP2 AND DUP2 MSTORE PUSH1 0x20 ADD SWAP1 JUMP JUMPDEST PUSH3 0x1B2 PUSH1 0x0 PUSH3 0x188 JUMP JUMPDEST PUSH1 0x1 PUSH1 0x1 PUSH1 0xA0 SHL SUB DUP2 AND PUSH1 0x1 PUSH1 0x1 PUSH1 0xA0 SHL SUB DUP4 AND EQ PUSH3 0x1D8 JUMPI POP PUSH3 0x8A SWAP1 PUSH3 0x219 JUMP JUMPDEST PUSH3 0x1FE SWAP1 PUSH3 0x1E7 PUSH1 0x40 MLOAD SWAP1 JUMP JUMPDEST PUSH4 0x1E4FBDF7 PUSH1 0xE0 SHL DUP2 MSTORE SWAP2 DUP3 SWAP2 PUSH1 0x4 DUP4 ADD PUSH3 0x193 JUMP JUMPDEST SUB SWAP1 REVERT JUMPDEST PUSH3 0x98 SWAP1 PUSH3 0x8C JUMP JUMPDEST PUSH3 0x98 SWAP1 SLOAD PUSH3 0x202 JUMP JUMPDEST PUSH3 0x225 PUSH1 0x0 PUSH3 0x20D JUMP JUMPDEST SWAP1 PUSH3 0x233 DUP2 PUSH1 0x0 PUSH3 0x122 JUMP JUMPDEST PUSH3 0x26A PUSH3 0x263 PUSH32 0x8BE0079C531659141344CD1FD0A4F28419497F9722A3DAAFE3B4186F6B6457E0 SWAP4 PUSH3 0x117 JUMP JUMPDEST SWAP2 PUSH3 0x117 JUMP JUMPDEST SWAP2 PUSH3 0x275 PUSH1 0x40 MLOAD SWAP1 JUMP JUMPDEST PUSH1 0x0 SWAP1 LOG3 JUMP INVALID PUSH1 0x80 PUSH1 0x40 MSTORE PUSH1 0x4 CALLDATASIZE LT ISZERO PUSH2 0x12 JUMPI PUSH1 0x0 DUP1 REVERT JUMPDEST PUSH1 0x0 CALLDATALOAD PUSH1 0xE0 SHR DUP1 PUSH4 0x305A67A8 EQ PUSH2 0xA2 JUMPI DUP1 PUSH4 0x4FBF3929 EQ PUSH2 0x9D JUMPI DUP1 PUSH4 0x66DEA358 EQ PUSH2 0x98 JUMPI DUP1 PUSH4 0x715018A6 EQ PUSH2 0x93 JUMPI DUP1 PUSH4 0x7211DDE4 EQ PUSH2 0x8E JUMPI DUP1 PUSH4 0x82367B2D EQ PUSH2 0x89 JUMPI DUP1 PUSH4 0x8DA5CB5B EQ PUSH2 0x84 JUMPI DUP1 PUSH4 0xDE74E57B EQ PUSH2 0x7F JUMPI PUSH4 0xF2FDE38B SUB PUSH2 0xA7 JUMPI PUSH2 0x374 JUMP JUMPDEST PUSH2 0x320 JUMP JUMPDEST PUSH2 0x252 JUMP JUMPDEST PUSH2 0x220 JUMP JUMPDEST PUSH2 0x20D JUMP JUMPDEST PUSH2 0x1F5 JUMP JUMPDEST PUSH2 0x1CE JUMP JUMPDEST PUSH2 0x11F JUMP JUMPDEST PUSH2 0xDB JUMP JUMPDEST PUSH1 0x0 DUP1 REVERT JUMPDEST DUP1 JUMPDEST SUB PUSH2 0xA7 JUMPI JUMP JUMPDEST SWAP1 POP CALLDATALOAD SWAP1 PUSH2 0xC2 DUP3 PUSH2 0xAC JUMP JUMPDEST JUMP JUMPDEST SWAP1 PUSH1 0x20 DUP3 DUP3 SUB SLT PUSH2 0xA7 JUMPI PUSH2 0xD8 SWAP2 PUSH2 0xB5 JUMP JUMPDEST SWAP1 JUMP JUMPDEST CALLVALUE PUSH2 0xA7 JUMPI PUSH2 0xF3 PUSH2 0xEE CALLDATASIZE PUSH1 0x4 PUSH2 0xC4 JUMP JUMPDEST PUSH2 0xC89 JUMP JUMPDEST PUSH1 0x40 MLOAD STOP JUMPDEST SUB SWAP1 RETURN JUMPDEST SWAP2 SWAP1 PUSH1 0x40 DUP4 DUP3 SUB SLT PUSH2 0xA7 JUMPI PUSH2 0xD8 SWAP1 PUSH2 0x116 DUP2 DUP6 PUSH2 0xB5 JUMP JUMPDEST SWAP4 PUSH1 0x20 ADD PUSH2 0xB5 JUMP JUMPDEST CALLVALUE PUSH2 0xA7 JUMPI PUSH2 0xF3 PUSH2 0x132 CALLDATASIZE PUSH1 0x4 PUSH2 0xFC JUMP JUMPDEST SWAP1 PUSH2 0x72C JUMP JUMPDEST PUSH1 0x0 SWAP2 SUB SLT PUSH2 0xA7 JUMPI JUMP JUMPDEST PUSH2 0xD8 SWAP2 PUSH1 0x8 MUL SHR JUMPDEST PUSH20 0xFFFFFFFFFFFFFFFFFFFFFFFFFFFFFFFFFFFFFFFF AND SWAP1 JUMP JUMPDEST SWAP1 PUSH2 0xD8 SWAP2 SLOAD PUSH2 0x143 JUMP JUMPDEST PUSH2 0xD8 PUSH1 0x0 PUSH1 0x1 PUSH2 0x165 JUMP JUMPDEST PUSH2 0x14C PUSH2 0xD8 PUSH2 0xD8 SWAP3 PUSH20 0xFFFFFFFFFFFFFFFFFFFFFFFFFFFFFFFFFFFFFFFF AND SWAP1 JUMP JUMPDEST PUSH2 0xD8 SWAP1 PUSH2 0x17C JUMP JUMPDEST PUSH2 0xD8 SWAP1 PUSH2 0x19F JUMP JUMPDEST PUSH2 0x1BA SWAP1 PUSH2 0x1A8 JUMP JUMPDEST SWAP1 MSTORE JUMP JUMPDEST PUSH1 0x20 DUP2 ADD SWAP3 SWAP2 PUSH2 0xC2 SWAP2 SWAP1 PUSH2 0x1B1 JUMP JUMPDEST CALLVALUE PUSH2 0xA7 JUMPI PUSH2 0x1DE CALLDATASIZE PUSH1 0x4 PUSH2 0x138 JUMP JUMPDEST PUSH2 0xF8 PUSH2 0x1E9 PUSH2 0x170 JUMP JUMPDEST PUSH1 0x40 MLOAD SWAP2 DUP3 SWAP2 DUP3 PUSH2 0x1BE JUMP JUMPDEST CALLVALUE PUSH2 0xA7 JUMPI PUSH2 0x205 CALLDATASIZE PUSH1 0x4 PUSH2 0x138 JUMP JUMPDEST PUSH2 0xF3 PUSH2 0x3CE JUMP JUMPDEST PUSH2 0xF3 PUSH2 0x21B CALLDATASIZE PUSH1 0x4 PUSH2 0xC4 JUMP JUMPDEST PUSH2 0xAFB JUMP JUMPDEST CALLVALUE PUSH2 0xA7 JUMPI PUSH2 0xF3 PUSH2 0x233 CALLDATASIZE PUSH1 0x4 PUSH2 0xFC JUMP JUMPDEST SWAP1 PUSH2 0xCF2 JUMP JUMPDEST PUSH2 0x1BA SWAP1 PUSH2 0x14C JUMP JUMPDEST PUSH1 0x20 DUP2 ADD SWAP3 SWAP2 PUSH2 0xC2 SWAP2 SWAP1 PUSH2 0x239 JUMP JUMPDEST CALLVALUE PUSH2 0xA7 JUMPI PUSH2 0x262 CALLDATASIZE PUSH1 0x4 PUSH2 0x138 JUMP JUMPDEST PUSH2 0xF8 PUSH2 0x26D PUSH2 0x38C JUMP JUMPDEST PUSH1 0x40 MLOAD SWAP2 DUP3 SWAP2 DUP3 PUSH2 0x242 JUMP JUMPDEST PUSH2 0xD8 PUSH2 0xD8 PUSH2 0xD8 SWAP3 SWAP1 JUMP JUMPDEST SWAP1 PUSH2 0x290 SWAP1 PUSH2 0x279 JUMP JUMPDEST PUSH1 0x0 MSTORE PUSH1 0x20 MSTORE PUSH1 0x40 PUSH1 0x0 KECCAK256 SWAP1 JUMP JUMPDEST PUSH2 0xD8 SWAP1 PUSH2 0x14C JUMP JUMPDEST PUSH2 0xD8 SWAP1 SLOAD PUSH2 0x29E JUMP JUMPDEST PUSH2 0xD8 SWAP1 DUP2 JUMP JUMPDEST PUSH2 0xD8 SWAP1 SLOAD PUSH2 0x2B1 JUMP JUMPDEST PUSH2 0x2CD SWAP1 PUSH1 0x2 PUSH2 0x286 JUMP JUMPDEST PUSH2 0x2D6 DUP2 PUSH2 0x2A7 JUMP JUMPDEST SWAP2 PUSH2 0xD8 PUSH1 0x2 PUSH2 0x2E8 PUSH1 0x1 DUP6 ADD PUSH2 0x2B8 JUMP JUMPDEST SWAP4 ADD SLOAD PUSH1 0xFF AND SWAP1 JUMP JUMPDEST PUSH1 0x40 SWAP1 PUSH2 0x318 PUSH2 0xC2 SWAP5 SWAP7 SWAP6 SWAP4 SWAP7 PUSH2 0x311 PUSH1 0x60 DUP5 ADD SWAP9 PUSH1 0x0 DUP6 ADD SWAP1 PUSH2 0x239 JUMP JUMPDEST PUSH1 0x20 DUP4 ADD MSTORE JUMP JUMPDEST ADD SWAP1 ISZERO ISZERO SWAP1 MSTORE JUMP JUMPDEST CALLVALUE PUSH2 0xA7 JUMPI PUSH2 0xF8 PUSH2 0x33B PUSH2 0x336 CALLDATASIZE PUSH1 0x4 PUSH2 0xC4 JUMP JUMPDEST PUSH2 0x2C2 JUMP JUMPDEST PUSH1 0x40 MLOAD SWAP2 SWAP4 SWAP2 SWAP4 DUP5 SWAP4 DUP5 PUSH2 0x2F1 JUMP JUMPDEST PUSH2 0xAE DUP2 PUSH2 0x14C JUMP JUMPDEST SWAP1 POP CALLDATALOAD SWAP1 PUSH2 0xC2 DUP3 PUSH2 0x34A JUMP JUMPDEST SWAP1 PUSH1 0x20 DUP3 DUP3 SUB SLT PUSH2 0xA7 JUMPI PUSH2 0xD8 SWAP2 PUSH2 0x353 JUMP JUMPDEST CALLVALUE PUSH2 0xA7 JUMPI PUSH2 0xF3 PUSH2 0x387 CALLDATASIZE PUSH1 0x4 PUSH2 0x360 JUMP JUMPDEST PUSH2 0x4AD JUMP JUMPDEST PUSH2 0xD8 PUSH1 0x0 PUSH2 0x2A7 JUMP JUMPDEST PUSH2 0x39E PUSH2 0x3D6 JUMP JUMPDEST PUSH2 0xC2 PUSH2 0x3BC JUMP JUMPDEST PUSH2 0x14C PUSH2 0xD8 PUSH2 0xD8 SWAP3 SWAP1 JUMP JUMPDEST PUSH2 0xD8 SWAP1 PUSH2 0x3A6 JUMP JUMPDEST PUSH2 0xC2 PUSH2 0x3C9 PUSH1 0x0 PUSH2 0x3B3 JUMP JUMPDEST PUSH2 0x4F3 JUMP JUMPDEST PUSH2 0xC2 PUSH2 0x396 JUMP JUMPDEST PUSH2 0x3DE PUSH2 0x38C JUMP JUMPDEST CALLER SWAP1 PUSH2 0x3F2 PUSH2 0x3EC DUP4 PUSH2 0x14C JUMP JUMPDEST SWAP2 PUSH2 0x14C JUMP JUMPDEST SUB PUSH2 0x3FA JUMPI POP JUMP JUMPDEST PUSH2 0x436 SWAP1 PUSH2 0x407 PUSH1 0x40 MLOAD SWAP1 JUMP JUMPDEST SWAP2 DUP3 SWAP2 PUSH32 0x118CDAA700000000000000000000000000000000000000000000000000000000 DUP4 MSTORE PUSH1 0x4 DUP4 ADD PUSH2 0x242 JUMP JUMPDEST SUB SWAP1 REVERT JUMPDEST PUSH2 0xC2 SWAP1 PUSH2 0x446 PUSH2 0x3D6 JUMP JUMPDEST PUSH2 0x450 PUSH1 0x0 PUSH2 0x3B3 JUMP JUMPDEST PUSH2 0x459 DUP2 PUSH2 0x14C JUMP JUMPDEST PUSH2 0x462 DUP4 PUSH2 0x14C JUMP JUMPDEST EQ PUSH2 0x471 JUMPI POP PUSH2 0xC2 SWAP1 PUSH2 0x4F3 JUMP JUMPDEST PUSH2 0x436 SWAP1 PUSH2 0x47E PUSH1 0x40 MLOAD SWAP1 JUMP JUMPDEST SWAP2 DUP3 SWAP2 PUSH32 0x1E4FBDF700000000000000000000000000000000000000000000000000000000 DUP4 MSTORE PUSH1 0x4 DUP4 ADD PUSH2 0x242 JUMP JUMPDEST PUSH2 0xC2 SWAP1 PUSH2 0x43A JUMP JUMPDEST SWAP1 PUSH20 0xFFFFFFFFFFFFFFFFFFFFFFFFFFFFFFFFFFFFFFFF SWAP1 JUMPDEST SWAP2 DUP2 NOT AND SWAP2 AND OR SWAP1 JUMP JUMPDEST SWAP1 PUSH2 0x4E8 PUSH2 0xD8 PUSH2 0x4EF SWAP3 PUSH2 0x1A8 JUMP JUMPDEST DUP3 SLOAD PUSH2 0x4B6 JUMP JUMPDEST SWAP1 SSTORE JUMP JUMPDEST PUSH2 0x4FD PUSH1 0x0 PUSH2 0x2A7 JUMP JUMPDEST SWAP1 PUSH2 0x509 DUP2 PUSH1 0x0 PUSH2 0x4D8 JUMP JUMPDEST PUSH2 0x53C PUSH2 0x536 PUSH32 0x8BE0079C531659141344CD1FD0A4F28419497F9722A3DAAFE3B4186F6B6457E0 SWAP4 PUSH2 0x1A8 JUMP JUMPDEST SWAP2 PUSH2 0x1A8 JUMP JUMPDEST SWAP2 PUSH2 0x546 PUSH1 0x40 MLOAD SWAP1 JUMP JUMPDEST DUP1 DUP1 JUMPDEST SUB SWAP1 LOG3 JUMP JUMPDEST PUSH4 0x4E487B71 PUSH1 0xE0 SHL PUSH1 0x0 MSTORE PUSH1 0x41 PUSH1 0x4 MSTORE PUSH1 0x24 PUSH1 0x0 REVERT JUMPDEST SWAP1 PUSH1 0x1F ADD PUSH1 0x1F NOT AND DUP2 ADD SWAP1 DUP2 LT PUSH8 0xFFFFFFFFFFFFFFFF DUP3 GT OR PUSH2 0x586 JUMPI PUSH1 0x40 MSTORE JUMP JUMPDEST PUSH2 0x54E JUMP JUMPDEST SWAP1 POP MLOAD SWAP1 PUSH2 0xC2 DUP3 PUSH2 0x34A JUMP JUMPDEST SWAP1 PUSH1 0x20 DUP3 DUP3 SUB SLT PUSH2 0xA7 JUMPI PUSH2 0xD8 SWAP2 PUSH2 0x58B JUMP JUMPDEST PUSH1 0x40 MLOAD RETURNDATASIZE PUSH1 0x0 DUP3 RETURNDATACOPY RETURNDATASIZE SWAP1 REVERT JUMPDEST ISZERO PUSH2 0x5BF JUMPI JUMP JUMPDEST PUSH1 0x40 MLOAD PUSH3 0x461BCD PUSH1 0xE5 SHL DUP2 MSTORE PUSH1 0x20 PUSH1 0x4 DUP3 ADD MSTORE PUSH1 0xF PUSH1 0x24 DUP3 ADD MSTORE PUSH32 0x4E6F7420746F6B656E206F776E65720000000000000000000000000000000000 PUSH1 0x44 DUP3 ADD MSTORE PUSH1 0x64 SWAP1 REVERT JUMPDEST ISZERO PUSH2 0x60B JUMPI JUMP JUMPDEST PUSH1 0x40 MLOAD PUSH3 0x461BCD PUSH1 0xE5 SHL DUP2 MSTORE PUSH1 0x20 PUSH1 0x4 DUP3 ADD MSTORE PUSH1 0x13 PUSH1 0x24 DUP3 ADD MSTORE PUSH32 0x4D61726B6574206E6F7420617070726F76656400000000000000000000000000 PUSH1 0x44 DUP3 ADD MSTORE PUSH1 0x64 SWAP1 REVERT JUMPDEST SWAP1 PUSH2 0xC2 PUSH2 0x65D PUSH1 0x40 MLOAD SWAP1 JUMP JUMPDEST SWAP3 DUP4 PUSH2 0x564 JUMP JUMPDEST PUSH2 0xD8 PUSH1 0x60 PUSH2 0x650 JUMP JUMPDEST SWAP1 PUSH2 0x1BA SWAP1 PUSH2 0x14C JUMP JUMPDEST PUSH4 0x4E487B71 PUSH1 0xE0 SHL PUSH1 0x0 MSTORE PUSH1 0x0 PUSH1 0x4 MSTORE PUSH1 0x24 PUSH1 0x0 REVERT JUMPDEST PUSH2 0xD8 SWAP1 MLOAD PUSH2 0x14C JUMP JUMPDEST SWAP1 PUSH1 0x0 NOT SWAP1 PUSH2 0x4CE JUMP JUMPDEST SWAP1 PUSH2 0x6B2 PUSH2 0xD8 PUSH2 0x4EF SWAP3 PUSH2 0x279 JUMP JUMPDEST DUP3 SLOAD PUSH2 0x698 JUMP JUMPDEST SWAP1 PUSH1 0xFF SWAP1 PUSH2 0x4CE JUMP JUMPDEST SWAP1 PUSH2 0x6D2 PUSH2 0xD8 PUSH2 0x4EF SWAP3 ISZERO ISZERO SWAP1 JUMP JUMPDEST DUP3 SLOAD PUSH2 0x6B9 JUMP JUMPDEST PUSH2 0xC2 SWAP2 SWAP1 PUSH2 0x71C SWAP1 PUSH1 0x40 SWAP1 PUSH1 0x2 SWAP1 PUSH2 0x6FB DUP2 PUSH2 0x6F5 DUP8 PUSH2 0x68E JUMP JUMPDEST SWAP1 PUSH2 0x4D8 JUMP JUMPDEST PUSH2 0x713 PUSH1 0x1 DUP3 ADD PUSH2 0x70D PUSH1 0x20 DUP9 ADD MLOAD SWAP1 JUMP JUMPDEST SWAP1 PUSH2 0x6A2 JUMP JUMPDEST ADD SWAP3 ADD MLOAD ISZERO ISZERO SWAP1 JUMP JUMPDEST SWAP1 PUSH2 0x6C2 JUMP JUMPDEST SWAP1 PUSH2 0xC2 SWAP2 PUSH2 0x6D9 JUMP JUMPDEST PUSH2 0x75C SWAP1 PUSH1 0x20 PUSH2 0x744 PUSH2 0x73F PUSH1 0x1 PUSH2 0x2A7 JUMP JUMPDEST PUSH2 0x1A8 JUMP JUMPDEST PUSH4 0x6352211E SWAP1 PUSH2 0x753 PUSH1 0x40 MLOAD SWAP1 JUMP JUMPDEST SWAP5 DUP6 SWAP3 PUSH1 0xE0 SHL SWAP1 JUMP JUMPDEST DUP3 MSTORE PUSH1 0x4 DUP3 ADD DUP5 SWAP1 MSTORE PUSH1 0x24 SWAP1 DUP3 SWAP1 GAS STATICCALL SWAP2 DUP3 ISZERO PUSH2 0x8B4 JUMPI PUSH1 0x0 SWAP3 PUSH2 0x8B9 JUMPI JUMPDEST POP PUSH2 0x793 CALLER SWAP3 PUSH2 0x78D PUSH2 0x3EC DUP6 PUSH2 0x14C JUMP JUMPDEST EQ PUSH2 0x5B8 JUMP JUMPDEST PUSH2 0x7BD PUSH1 0x20 PUSH2 0x7A5 PUSH2 0x73F PUSH1 0x1 PUSH2 0x2A7 JUMP JUMPDEST PUSH4 0x81812FC SWAP1 PUSH2 0x7B4 PUSH1 0x40 MLOAD SWAP1 JUMP JUMPDEST SWAP4 DUP5 SWAP3 PUSH1 0xE0 SHL SWAP1 JUMP JUMPDEST DUP3 MSTORE PUSH1 0x4 DUP3 ADD DUP6 SWAP1 MSTORE PUSH1 0x24 SWAP1 DUP3 SWAP1 GAS STATICCALL DUP1 ISZERO PUSH2 0x8B4 JUMPI PUSH2 0x7FA SWAP2 PUSH1 0x0 SWAP2 PUSH2 0x886 JUMPI JUMPDEST POP PUSH2 0x7F4 PUSH2 0x3EC PUSH2 0x7EF ADDRESS PUSH2 0x1A8 JUMP JUMPDEST PUSH2 0x14C JUMP JUMPDEST EQ PUSH2 0x604 JUMP JUMPDEST PUSH2 0x839 PUSH1 0x1 PUSH2 0x829 PUSH2 0x80A PUSH2 0x664 JUMP JUMPDEST SWAP2 PUSH2 0x815 DUP7 DUP5 PUSH2 0x66E JUMP JUMPDEST PUSH2 0x820 DUP8 PUSH1 0x20 DUP6 ADD MSTORE JUMP JUMPDEST ISZERO ISZERO PUSH1 0x40 DUP4 ADD MSTORE JUMP JUMPDEST PUSH2 0x834 DUP4 PUSH1 0x2 PUSH2 0x286 JUMP JUMPDEST PUSH2 0x722 JUMP JUMPDEST PUSH2 0x549 PUSH2 0x86F PUSH2 0x869 PUSH32 0x4AC0E51FCCBCFF90E2EFA701B77C9CCCFF85E9345E1D32C94E7E785993B195C4 SWAP4 PUSH2 0x279 JUMP JUMPDEST SWAP4 PUSH2 0x1A8 JUMP JUMPDEST SWAP4 PUSH2 0x879 PUSH1 0x40 MLOAD SWAP1 JUMP JUMPDEST SWAP2 DUP3 SWAP2 DUP3 SWAP1 DUP2 MSTORE PUSH1 0x20 ADD SWAP1 JUMP JUMPDEST PUSH2 0x8A7 SWAP2 POP PUSH1 0x20 RETURNDATASIZE DUP2 GT PUSH2 0x8AD JUMPI JUMPDEST PUSH2 0x89F DUP2 DUP4 PUSH2 0x564 JUMP JUMPDEST DUP2 ADD SWAP1 PUSH2 0x598 JUMP JUMPDEST CODESIZE PUSH2 0x7DF JUMP JUMPDEST POP RETURNDATASIZE PUSH2 0x895 JUMP JUMPDEST PUSH2 0x5AC JUMP JUMPDEST PUSH2 0x8D2 SWAP2 SWAP3 POP PUSH1 0x20 RETURNDATASIZE DUP2 GT PUSH2 0x8AD JUMPI PUSH2 0x89F DUP2 DUP4 PUSH2 0x564 JUMP JUMPDEST SWAP1 CODESIZE PUSH2 0x77B JUMP JUMPDEST SWAP1 PUSH2 0xC2 PUSH2 0x91B PUSH1 0x2 PUSH2 0x8EA PUSH2 0x664 JUMP JUMPDEST SWAP5 PUSH2 0x8FD PUSH2 0x8F7 DUP3 PUSH2 0x2A7 JUMP JUMPDEST DUP8 PUSH2 0x66E JUMP JUMPDEST PUSH2 0x913 PUSH2 0x90C PUSH1 0x1 DUP4 ADD PUSH2 0x2B8 JUMP JUMPDEST PUSH1 0x20 DUP9 ADD MSTORE JUMP JUMPDEST ADD SLOAD PUSH1 0xFF AND SWAP1 JUMP JUMPDEST ISZERO ISZERO PUSH1 0x40 DUP5 ADD MSTORE JUMP JUMPDEST PUSH2 0xD8 SWAP1 PUSH2 0x8D9 JUMP JUMPDEST ISZERO PUSH2 0x934 JUMPI JUMP JUMPDEST PUSH1 0x40 MLOAD PUSH3 0x461BCD PUSH1 0xE5 SHL DUP2 MSTORE PUSH1 0x20 PUSH1 0x4 DUP3 ADD MSTORE PUSH1 0x12 PUSH1 0x24 DUP3 ADD MSTORE PUSH32 0x4C697374696E67206E6F74206163746976650000000000000000000000000000 PUSH1 0x44 DUP3 ADD MSTORE PUSH1 0x64 SWAP1 REVERT JUMPDEST ISZERO PUSH2 0x980 JUMPI JUMP JUMPDEST PUSH1 0x40 MLOAD PUSH3 0x461BCD PUSH1 0xE5 SHL DUP2 MSTORE PUSH1 0x20 PUSH1 0x4 DUP3 ADD MSTORE PUSH1 0xF PUSH1 0x24 DUP3 ADD MSTORE PUSH32 0x496E636F72726563742070726963650000000000000000000000000000000000 PUSH1 0x44 DUP3 ADD MSTORE PUSH1 0x64 SWAP1 REVERT JUMPDEST SWAP2 PUSH1 0x0 NOT PUSH1 0x8 SWAP3 SWAP1 SWAP3 MUL SWAP2 DUP3 SHL SWAP2 SHL PUSH2 0x4CE JUMP JUMPDEST SWAP2 SWAP1 PUSH2 0x9EA PUSH2 0xD8 PUSH2 0x4EF SWAP4 PUSH2 0x279 JUMP JUMPDEST SWAP1 DUP4 SLOAD PUSH2 0x9C5 JUMP JUMPDEST PUSH2 0xC2 SWAP2 PUSH1 0x0 SWAP2 PUSH2 0x9D9 JUMP JUMPDEST PUSH1 0x0 DUP1 DUP3 SSTORE SWAP1 PUSH1 0x2 SWAP1 PUSH2 0xA14 DUP4 PUSH1 0x1 DUP4 ADD PUSH2 0x9F2 JUMP JUMPDEST ADD SSTORE JUMP JUMPDEST SWAP1 PUSH1 0x0 SUB PUSH2 0xA29 JUMPI PUSH2 0xC2 SWAP1 PUSH2 0x9FE JUMP JUMPDEST PUSH2 0x678 JUMP JUMPDEST PUSH1 0x40 SWAP1 PUSH2 0xA58 PUSH2 0xC2 SWAP5 SWAP7 SWAP6 SWAP4 SWAP7 PUSH2 0xA4E PUSH1 0x60 DUP5 ADD SWAP9 PUSH1 0x0 DUP6 ADD SWAP1 PUSH2 0x239 JUMP JUMPDEST PUSH1 0x20 DUP4 ADD SWAP1 PUSH2 0x239 JUMP JUMPDEST ADD MSTORE JUMP JUMPDEST PUSH8 0xFFFFFFFFFFFFFFFF DUP2 GT PUSH2 0x586 JUMPI PUSH1 0x20 SWAP1 PUSH1 0x1F ADD PUSH1 0x1F NOT AND ADD SWAP1 JUMP JUMPDEST SWAP1 PUSH2 0xA8B PUSH2 0xA86 DUP4 PUSH2 0xA5C JUMP JUMPDEST PUSH2 0x650 JUMP JUMPDEST SWAP2 DUP3 MSTORE JUMP JUMPDEST RETURNDATASIZE ISZERO PUSH2 0xAAA JUMPI PUSH2 0xA9F RETURNDATASIZE PUSH2 0xA79 JUMP JUMPDEST SWAP1 RETURNDATASIZE PUSH1 0x0 PUSH1 0x20 DUP5 ADD RETURNDATACOPY JUMP JUMPDEST PUSH1 0x60 SWAP1 JUMP JUMPDEST ISZERO PUSH2 0xAB6 JUMPI JUMP JUMPDEST PUSH1 0x40 MLOAD PUSH3 0x461BCD PUSH1 0xE5 SHL DUP2 MSTORE PUSH1 0x20 PUSH1 0x4 DUP3 ADD MSTORE PUSH1 0x14 PUSH1 0x24 DUP3 ADD MSTORE PUSH32 0x4661696C656420746F2073656E64204574686572000000000000000000000000 PUSH1 0x44 DUP3 ADD MSTORE PUSH1 0x64 SWAP1 REVERT JUMPDEST PUSH1 0x2 SWAP1 PUSH2 0xB10 PUSH2 0xB0B DUP3 DUP5 PUSH2 0x286 JUMP JUMPDEST PUSH2 0x924 JUMP JUMPDEST SWAP2 PUSH2 0xB26 PUSH2 0xB21 PUSH1 0x40 DUP6 ADD MLOAD ISZERO ISZERO SWAP1 JUMP JUMPDEST PUSH2 0x92D JUMP JUMPDEST PUSH2 0xB5E PUSH1 0x0 PUSH2 0xB59 DUP5 PUSH2 0xB53 DUP4 CALLVALUE SWAP9 PUSH2 0xB4D PUSH2 0xB46 PUSH2 0xD8 PUSH1 0x20 DUP5 ADD MLOAD SWAP1 JUMP JUMPDEST DUP12 EQ PUSH2 0x979 JUMP JUMPDEST ADD PUSH2 0x68E JUMP JUMPDEST SWAP5 PUSH2 0x286 JUMP JUMPDEST PUSH2 0xA18 JUMP JUMPDEST PUSH2 0xB6B PUSH2 0x73F PUSH1 0x1 PUSH2 0x2A7 JUMP JUMPDEST CALLER SWAP2 PUSH4 0x23B872DD SWAP2 DUP1 EXTCODESIZE ISZERO PUSH2 0xA7 JUMPI PUSH2 0xB8A SWAP3 PUSH1 0x0 SWAP2 PUSH2 0x753 PUSH1 0x40 MLOAD SWAP1 JUMP JUMPDEST DUP3 MSTORE DUP2 DUP4 DUP2 PUSH2 0xB9E DUP11 DUP11 DUP10 PUSH1 0x4 DUP6 ADD PUSH2 0xA2E JUMP JUMPDEST SUB SWAP3 GAS CALL SWAP2 DUP3 ISZERO PUSH2 0x8B4 JUMPI PUSH2 0xBB8 SWAP3 PUSH2 0xC1F JUMPI JUMPDEST POP PUSH2 0x1A8 JUMP JUMPDEST SWAP2 PUSH2 0xBE0 PUSH1 0x0 DUP1 PUSH2 0xBC8 DUP7 PUSH2 0x1A8 JUMP JUMPDEST PUSH1 0x40 MLOAD PUSH1 0x0 SWAP2 DUP10 SWAP1 GAS CALL PUSH2 0xBDA PUSH2 0xA90 JUMP JUMPDEST POP PUSH2 0xAAF JUMP JUMPDEST PUSH2 0xC1A PUSH2 0xC10 PUSH2 0x869 PUSH32 0x7E47A1E6C94FA983CA28D7705E8A571D166221513A37DA6B741DD937D16DFB11 SWAP4 PUSH2 0x279 JUMP JUMPDEST SWAP5 PUSH2 0x879 PUSH1 0x40 MLOAD SWAP1 JUMP JUMPDEST SUB SWAP1 LOG4 JUMP JUMPDEST PUSH2 0xC37 SWAP1 PUSH1 0x0 PUSH2 0xC2F DUP2 DUP4 PUSH2 0x564 JUMP JUMPDEST DUP2 ADD SWAP1 PUSH2 0x138 JUMP JUMPDEST CODESIZE PUSH2 0xBB2 JUMP JUMPDEST ISZERO PUSH2 0xC44 JUMPI JUMP JUMPDEST PUSH1 0x40 MLOAD PUSH3 0x461BCD PUSH1 0xE5 SHL DUP2 MSTORE PUSH1 0x20 PUSH1 0x4 DUP3 ADD MSTORE PUSH1 0xE PUSH1 0x24 DUP3 ADD MSTORE PUSH32 0x4E6F74207468652073656C6C6572000000000000000000000000000000000000 PUSH1 0x44 DUP3 ADD MSTORE PUSH1 0x64 SWAP1 REVERT JUMPDEST PUSH1 0x2 PUSH2 0xCC5 PUSH1 0x0 PUSH2 0xB59 DUP5 PUSH2 0xCA8 DUP4 PUSH2 0xCA2 DUP4 DUP9 PUSH2 0x286 JUMP JUMPDEST ADD PUSH2 0x2A7 JUMP JUMPDEST SWAP5 PUSH2 0xCC0 CALLER SWAP7 PUSH2 0xCBA PUSH2 0x3EC DUP10 PUSH2 0x14C JUMP JUMPDEST EQ PUSH2 0xC3D JUMP JUMPDEST PUSH2 0x286 JUMP JUMPDEST PUSH2 0x53C PUSH2 0x536 PUSH32 0xBB7BE15645F4EDA9D65591C3A81B5E39256151F91BC25180315DE259167C2E23 SWAP4 PUSH2 0x279 JUMP JUMPDEST PUSH2 0xD22 DUP3 PUSH1 0x1 PUSH2 0xD1C DUP5 PUSH1 0x2 PUSH2 0xCC0 PUSH2 0xD10 PUSH1 0x0 PUSH2 0xCA2 DUP6 DUP6 PUSH2 0x286 JUMP JUMPDEST PUSH2 0xCBA PUSH2 0x3EC CALLER PUSH2 0x14C JUMP JUMPDEST ADD PUSH2 0x6A2 JUMP JUMPDEST PUSH2 0xD59 PUSH2 0xD4F PUSH32 0x945C1C4E99AA89F648FBFE3DF471B916F719E16D960FCEC0737D4D56BD696838 SWAP3 PUSH2 0x279 JUMP JUMPDEST SWAP3 PUSH2 0x879 PUSH1 0x40 MLOAD SWAP1 JUMP JUMPDEST SUB SWAP1 LOG2 JUMP INVALID LOG2 PUSH5 0x6970667358 0x22 SLT KECCAK256 0xAF EQ CHAINID DUP15 0xB1 EQ 0x5C JUMPDEST EXTCODECOPY 0xCB 0xE3 0x5C 0xAA 0xA7 PUSH10 0x67D75FC8A8FBA25139F5 0xD8 0xBF CALLCODE PREVRANDAO DUP2 XOR DUP16 PUSH5 0x736F6C6343 STOP ADDMOD EQ STOP CALLER "},"methodIdentifiers":{"buyCredit(uint256)":"7211dde4","cancelListing(uint256)":"305a67a8","carbonCreditToken()":"66dea358","listCredit(uint256,uint256)":"4fbf3929","listings(uint256)":"de74e57b","owner()":"8da5cb5b","renounceOwnership()":"715018a6","transferOwnership(address)":"f2fde38b","updatePrice(uint256,uint256)":"82367b2d"}}}}}