{
  "_format": "hh-sol-artifact-1",
  "contractName": "Verification",
  "sourceName": "contracts/verification.sol",
  "abi": [
    {
      "inputs": [
        {
          "internalType": "address",
          "name": "_carbonCredit",
          "type": "address"
        }
      ],
      "stateMutability": "nonpayable",
      "type": "constructor"
    },
    {
      "inputs": [
        {
          "internalType": "address",
          "name": "owner",
          "type": "address"
        }
      ],
      "name": "OwnableInvalidOwner",
      "type": "error"
    },
    {
      "inputs": [
        {
          "internalType": "address",
          "name": "account",
          "type": "address"
        }
      ],
      "name": "OwnableUnauthorizedAccount",
      "type": "error"
    },
    {
      "anonymous": false,
      "inputs": [
        {
          "indexed": true,
          "internalType": "uint256",
          "name": "tokenId",
          "type": "uint256"
        },
        {
          "indexed": true,
          "internalType": "address",
          "name": "verifier",
          "type": "address"
        },
        {
          "indexed": false,
          "internalType": "string",
          "name": "metadataURI",
          "type": "string"
        }
      ],
      "name": "CreditVerified",
      "type": "event"
    },
    {
      "anonymous": false,
      "inputs": [
        {
          "indexed": true,
          "internalType": "address",
          "name": "previousOwner",
          "type": "address"
        },
        {
          "indexed": true,
          "internalType": "address",
          "name": "newOwner",
          "type": "address"
        }
      ],
      "name": "OwnershipTransferred",
      "type": "event"
    },
    {
      "anonymous": false,
      "inputs": [
        {
          "indexed": true,
          "internalType": "address",
          "name": "account",
          "type": "address"
        }
      ],
      "name": "VerifierAdded",
      "type": "event"
    },
    {
      "anonymous": false,
      "inputs": [
        {
          "indexed": true,
          "internalType": "address",
          "name": "account",
          "type": "address"
        }
      ],
      "name": "VerifierRemoved",
      "type": "event"
    },
    {
      "inputs": [
        {
          "internalType": "address",
          "name": "account",
          "type": "address"
        }
      ],
      "name": "addVerifier",
      "outputs": [],
      "stateMutability": "nonpayable",
      "type": "function"
    },
    {
      "inputs": [],
      "name": "carbonCredit",
      "outputs": [
        {
          "internalType": "contract CarbonCredit",
          "name": "",
          "type": "address"
        }
      ],
      "stateMutability": "view",
      "type": "function"
    },
    {
      "inputs": [
        {
          "internalType": "uint256",
          "name": "tokenId",
          "type": "uint256"
        }
      ],
      "name": "getVerificationData",
      "outputs": [
        {
          "components": [
            {
              "internalType": "address",
              "name": "verifier",
              "type": "address"
            },
            {
              "internalType": "uint256",
              "name": "timestamp",
              "type": "uint256"
            },
            {
              "internalType": "string",
              "name": "metadataURI",
              "type": "string"
            }
          ],
          "internalType": "struct Verification.VerificationData",
          "name": "",
          "type": "tuple"
        }
      ],
      "stateMutability": "view",
      "type": "function"
    },
    {
      "inputs": [
        {
          "internalType": "address",
          "name": "account",
          "type": "address"
        }
      ],
      "name": "isVerifier",
      "outputs": [
        {
          "internalType": "bool",
          "name": "",
          "type": "bool"
        }
      ],
      "stateMutability": "view",
      "type": "function"
    },
    {
      "inputs": [],
      "name": "owner",
      "outputs": [
        {
          "internalType": "address",
          "name": "",
          "type": "address"
        }
      ],
      "stateMutability": "view",
      "type": "function"
    },
    {
      "inputs": [
        {
          "internalType": "address",
          "name": "account",
          "type": "address"
        }
      ],
      "name": "removeVerifier",
      "outputs": [],
      "stateMutability": "nonpayable",
      "type": "function"
    },
    {
      "inputs": [],
      "name": "renounceOwnership",
      "outputs": [],
      "stateMutability": "nonpayable",
      "type": "function"
    },
    {
      "inputs": [
        {
          "internalType": "address",
          "name": "newOwner",
          "type": "address"
        }
      ],
      "name": "transferOwnership",
      "outputs": [],
      "stateMutability": "nonpayable",
      "type": "function"
    },
    {
      "inputs": [
        {
          "internalType": "uint256",
          "name": "",
          "type": "uint256"
        }
      ],
      "name": "verificationRecords",
      "outputs": [
        {
          "internalType": "address",
          "name": "verifier",
          "type": "address"
        },
        {
          "internalType": "uint256",
          "name": "timestamp",
          "type": "uint256"
        },
        {
          "internalType": "string",
          "name": "metadataURI",
          "type": "string"
        }
      ],
      "stateMutability": "view",
      "type": "function"
    },
    {
      "inputs": [
        {
          "internalType": "address",
          "name": "",
          "type": "address"
        }
      ],
      "name": "verifiers",
      "outputs": [
        {
          "internalType": "bool",
          "name": "",
          "type": "bool"
        }
      ],
      "stateMutability": "view",
      "type": "function"
    },
    {
      "inputs": [
        {
          "internalType": "uint256",
          "name": "tokenId",
          "type": "uint256"
        },
        {
          "internalType": "string",
          "name": "verificationMetadataURI",
          "type": "string"
        }
      ],
      "name": "verifyCredit",
      "outputs": [],
      "stateMutability": "nonpayable",
      "type": "function"
    }
  ],
  "bytecode": "0x60806040523462000030576200001e62000018620000d3565b62000196565b604051610df1620002d78239610df190f35b600080fd5b634e487b7160e01b600052604160045260246000fd5b90601f01601f191681019081106001600160401b038211176200006d57604052565b62000035565b906200008a6200008260405190565b92836200004b565b565b6001600160a01b031690565b90565b6001600160a01b038116036200003057565b905051906200008a826200009b565b9060208282031262000030576200009891620000ad565b62000098620010c880380380620000ea8162000073565b928339810190620000bc565b62000098906200008c906001600160a01b031682565b6200009890620000f6565b62000098906200010c565b906001600160a01b03905b9181191691161790565b906200014b62000098620001539262000117565b825462000122565b9055565b90620001639062000117565b600052602052604060002090565b9060ff906200012d565b906200018e620000986200015392151590565b825462000171565b6200008a90620001be620001b63392620001b08462000201565b62000117565b600162000137565b620001cd600191600362000157565b6200017b565b6200008c62000098620000989290565b6200009890620001d3565b6001600160a01b03909116815260200190565b6200020d6000620001e3565b6001600160a01b0381166001600160a01b038316146200023357506200008a9062000274565b62000259906200024260405190565b631e4fbdf760e01b815291829160048301620001ee565b0390fd5b62000098906200008c565b6200009890546200025d565b62000280600062000268565b906200028e81600062000137565b620002c5620002be7f8be0079c531659141344cd1fd0a4f28419497f9722a3daafe3b4186f6b6457e09362000117565b9162000117565b91620002d060405190565b600090a356fe6080604052600436101561001257600080fd5b60003560e01c80630343b1e7146100c257806333105218146100bd5780634f775b93146100b8578063637bf795146100b35780636c824487146100ae578063715018a6146100a95780638da5cb5b146100a45780639000b3d61461009f578063bfc87a841461009a578063ca2dfd0a146100955763f2fde38b036100c757610686565b61066e565b610644565b61049e565b610469565b610451565b610436565b6103c6565b610331565b61020a565b6101af565b600080fd5b805b036100c757565b905035906100e2826100cc565b565b906020828203126100c7576100f8916100d5565b90565b6001600160a01b031690565b9052565b60005b83811061011e5750506000910152565b818101518382015260200161010e565b61014f61015860209361016293610143815190565b80835293849260200190565b9586910161010b565b601f01601f191690565b0190565b80516001600160a01b031682526100f891606081019160409061018e60208201516020850152565b015190604081840391015261012e565b60208082526100f892910190610166565b346100c7576101d66101ca6101c53660046100e4565b610d88565b6040519182918261019e565b0390f35b6001600160a01b0381166100ce565b905035906100e2826101da565b906020828203126100c7576100f8916101e9565b346100c7576101d66102256102203660046101f6565b610da4565b60405191829182901515815260200190565b634e487b7160e01b600052604160045260246000fd5b90601f01601f1916810190811067ffffffffffffffff82111761026f57604052565b610237565b906100e261028160405190565b928361024d565b67ffffffffffffffff811161026f57602090601f01601f19160190565b90826000939282370152565b909291926102c66102c182610288565b610274565b938185526020850190828401116100c7576100e2926102a5565b9080601f830112156100c7578160206100f8933591016102b1565b9190916040818403126100c75761031283826100d5565b92602082013567ffffffffffffffff81116100c7576100f892016102e0565b346100c75761034a6103443660046102fb565b90610c2b565b604051005b60009103126100c757565b6100f8916008021c6001600160a01b031690565b906100f8915461035a565b6100f86000600161036e565b6100fb6100f86100f8926001600160a01b031690565b6100f890610385565b6100f89061039b565b610107906103a4565b6020810192916100e291906103ad565b346100c7576103d636600461034f565b6101d66103e1610379565b604051918291826103b6565b906103f7906103a4565b600052602052604060002090565b6100f8916008021c5b60ff1690565b906100f89154610405565b6100f8906104316003916000926103ed565b610414565b346100c7576101d661022561044c3660046101f6565b61041f565b346100c75761046136600461034f565b61034a6106e0565b346100c75761047936600461034f565b6101d661048461069e565b604051918291826001600160a01b03909116815260200190565b346100c75761034a6104b13660046101f6565b610cb5565b6100f86100f86100f89290565b906103f7906104b6565b6100f8906100fb565b6100f890546104cd565b6100f89081565b6100f890546104e0565b634e487b7160e01b600052602260045260246000fd5b9060016002830492168015610527575b602083101461052257565b6104f1565b91607f1691610517565b8054600093929161054e61054483610507565b8085529360200190565b91600181169081156105a0575060011461056757505050565b61057a9192939450600052602060002090565b916000925b81841061058c5750500190565b80548484015260209093019260010161057f565b92949550505060ff1916825215156020020190565b906100f891610531565b906100e26105d9926105d060405190565b938480926105b5565b038361024d565b6105eb9060026104c3565b6105f4816104d6565b916100f86002610606600185016104e7565b93016105bf565b6106376100f8949293610630606084019560008501906001600160a01b03169052565b6020830152565b604081840391015261012e565b346100c7576101d661065f61065a3660046100e4565b6105e0565b6040519193919384938461060d565b346100c75761034a6106813660046101f6565b610d04565b346100c75761034a6106993660046101f6565b6107d6565b6100f860006104d6565b6106b06106e8565b6100e26106ce565b6100fb6100f86100f89290565b6100f8906106b8565b6100e26106db60006106c5565b61080f565b6100e26106a8565b6106f061069e565b339081906001600160a01b0316036107055750565b61074f9061071260405190565b9182917f118cdaa7000000000000000000000000000000000000000000000000000000008352600483016001600160a01b03909116815260200190565b0390fd5b6100e29061075f6106e8565b61076960006106c5565b6001600160a01b0381166001600160a01b0383161461078c57506100e29061080f565b61074f9061079960405190565b9182917f1e4fbdf7000000000000000000000000000000000000000000000000000000008352600483016001600160a01b03909116815260200190565b6100e290610753565b906001600160a01b03905b9181191691161790565b906108046100f861080b926103a4565b82546107df565b9055565b61081960006104d6565b906108258160006107f4565b6108586108527f8be0079c531659141344cd1fd0a4f28419497f9722a3daafe3b4186f6b6457e0936103a4565b916103a4565b9161086260405190565b80805b0390a3565b6100f89061040e565b6100f8905461086a565b1561088457565b6040517f08c379a000000000000000000000000000000000000000000000000000000000815260206004820152601860248201527f43616c6c6572206973206e6f74206120766572696669657200000000000000006044820152606490fd5b6100e291906109036108fe6108f93360036103ed565b610873565b61087d565b610b2b565b6040513d6000823e3d90fd5b6100f86060610274565b90600019906107ea565b906109386100f861080b926104b6565b825461091e565b9160001960089290920291821b911b6107ea565b91906109646100f861080b936104b6565b90835461093f565b6100e291600091610953565b818110610983575050565b80610991600060019361096c565b01610978565b9190601f81116109a657505050565b6109b86100e293600052602060002090565b906020601f8401819004830193106109da575b6020601f909101040190610978565b90915081906109cb565b906109ed815190565b9067ffffffffffffffff821161026f57610a1182610a0b8554610507565b85610997565b602090601f8311600114610a4c5761080b929160009183610a41575b5050600019600883021c1916906002021790565b015190503880610a2d565b601f19831691610a6185600052602060002090565b9260005b818110610a9f57509160029391856001969410610a86575b50505002019055565b01516000196008601f8516021c19169055388080610a7d565b91936020600181928787015181550195019201610a65565b906100e2916109e4565b6100e29190610b0a90604090600290610aeb81610ae587516001600160a01b031690565b906107f4565b610b0360018201610afd602088015190565b90610928565b0192015190565b90610ab7565b906100e291610ac1565b60208082526100f89291019061012e565b610b3d610b3860016104d6565b6103a4565b6314fe83f890803b156100c757610b6391600091610b5a60405190565b93849260e01b90565b825260048201859052602490829084905af18015610c2657610c08575b503390610bbf42610ba4610b92610914565b6001600160a01b038616815291610630565b610baf856040830152565b610bba8360026104c3565b610b10565b610865610bf5610bef7f22b374d86dbac4169eef6a342bb371b562c7b328445b558d2af8d09e76ba294a936104b6565b936103a4565b93610bff60405190565b91829182610b1a565b610c20906000610c18818361024d565b81019061034f565b38610b80565b610908565b906100e2916108e3565b6100e290610c416106e8565b610c66565b9060ff906107ea565b90610c5f6100f861080b92151590565b8254610c46565b610c7b6001610c768360036103ed565b610c4f565b610ca57f6d05492139c5ea989514a5d2150c028041e5c087e2a39967f67dc7d2655adb81916103a4565b90610caf60405190565b600090a2565b6100e290610c35565b6100e290610cca6106e8565b610cda6000610c768360036103ed565b610ca57f44a3cd4eb5cc5748f6169df057b1cb2ae4c383e87cd94663c430e095d4cba424916103a4565b6100e290610cbe565b610d15610914565b600080825260208201526060604082015290565b6100f8610d0d565b906100e2610d786002610d42610914565b94610d5c610d4f826104d6565b6001600160a01b03168752565b610d72610d6b600183016104e7565b6020880152565b016105bf565b6040840152565b6100f890610d31565b610d9f6100f891610d97610d29565b5060026104c3565b610d7f565b6108f96100f891610db3600090565b5060036103ed56fea264697066735822122029b6deaf0a0f5c60b2f937536a544bf0da237f1e5c8e939727b0ab4d9a9717a464736f6c63430008140033",
  "linkReferences": {},
  "deployedLinkReferences": {}
}