{
  "_format": "hh-sol-artifact-1",
  "contractName": "CarbonCredit",
  "sourceName": "contracts/CarbonCredit.sol",
  "abi": [
    {
      "inputs": [],
      "stateMutability": "nonpayable",
      "type": "constructor"
    },
    {
      "inputs": [
        {
          "internalType": "address",
          "name": "sender",
          "type": "address"
        },
        {
          "internalType": "uint256",
          "name": "tokenId",
          "type": "uint256"
        },
        {
          "internalType": "address",
          "name": "owner",
          "type": "address"
        }
      ],
      "name": "ERC721IncorrectOwner",
      "type": "error"
    },
    {
      "inputs": [
        {
          "internalType": "address",
          "name": "operator",
          "type": "address"
        },
        {
          "internalType": "uint256",
          "name": "tokenId",
          "type": "uint256"
        }
      ],
      "name": "ERC721InsufficientApproval",
      "type": "error"
    },
    {
      "inputs": [
        {
          "internalType": "address",
          "name": "approver",
          "type": "address"
        }
      ],
      "name": "ERC721InvalidApprover",
      "type": "error"
    },
    {
      "inputs": [
        {
          "internalType": "address",
          "name": "operator",
          "type": "address"
        }
      ],
      "name": "ERC721InvalidOperator",
      "type": "error"
    },
    {
      "inputs": [
        {
          "internalType": "address",
          "name": "owner",
          "type": "address"
        }
      ],
      "name": "ERC721InvalidOwner",
      "type": "error"
    },
    {
      "inputs": [
        {
          "internalType": "address",
          "name": "receiver",
          "type": "address"
        }
      ],
      "name": "ERC721InvalidReceiver",
      "type": "error"
    },
    {
      "inputs": [
        {
          "internalType": "address",
          "name": "sender",
          "type": "address"
        }
      ],
      "name": "ERC721InvalidSender",
      "type": "error"
    },
    {
      "inputs": [
        {
          "internalType": "uint256",
          "name": "tokenId",
          "type": "uint256"
        }
      ],
      "name": "ERC721NonexistentToken",
      "type": "error"
    },
    {
      "inputs": [
        {
          "internalType": "address",
          "name": "owner",
          "type": "address"
        }
      ],
      "name": "OwnableInvalidOwner",
      "type": "error"
    },
    {
      "inputs": [
        {
          "internalType": "address",
          "name": "account",
          "type": "address"
        }
      ],
      "name": "OwnableUnauthorizedAccount",
      "type": "error"
    },
    {
      "anonymous": false,
      "inputs": [
        {
          "indexed": true,
          "internalType": "address",
          "name": "owner",
          "type": "address"
        },
        {
          "indexed": true,
          "internalType": "address",
          "name": "approved",
          "type": "address"
        },
        {
          "indexed": true,
          "internalType": "uint256",
          "name": "tokenId",
          "type": "uint256"
        }
      ],
      "name": "Approval",
      "type": "event"
    },
    {
      "anonymous": false,
      "inputs": [
        {
          "indexed": true,
          "internalType": "address",
          "name": "owner",
          "type": "address"
        },
        {
          "indexed": true,
          "internalType": "address",
          "name": "operator",
          "type": "address"
        },
        {
          "indexed": false,
          "internalType": "bool",
          "name": "approved",
          "type": "bool"
        }
      ],
      "name": "ApprovalForAll",
      "type": "event"
    },
    {
      "anonymous": false,
      "inputs": [
        {
          "indexed": true,
          "internalType": "uint256",
          "name": "tokenId",
          "type": "uint256"
        },
        {
          "indexed": true,
          "internalType": "address",
          "name": "owner",
          "type": "address"
        },
        {
          "indexed": false,
          "internalType": "uint256",
          "name": "amount",
          "type": "uint256"
        }
      ],
      "name": "CreditMinted",
      "type": "event"
    },
    {
      "anonymous": false,
      "inputs": [
        {
          "indexed": true,
          "internalType": "uint256",
          "name": "tokenId",
          "type": "uint256"
        }
      ],
      "name": "CreditVerified",
      "type": "event"
    },
    {
      "anonymous": false,
      "inputs": [
        {
          "indexed": true,
          "internalType": "address",
          "name": "previousOwner",
          "type": "address"
        },
        {
          "indexed": true,
          "internalType": "address",
          "name": "newOwner",
          "type": "address"
        }
      ],
      "name": "OwnershipTransferred",
      "type": "event"
    },
    {
      "anonymous": false,
      "inputs": [
        {
          "indexed": true,
          "internalType": "address",
          "name": "from",
          "type": "address"
        },
        {
          "indexed": true,
          "internalType": "address",
          "name": "to",
          "type": "address"
        },
        {
          "indexed": true,
          "internalType": "uint256",
          "name": "tokenId",
          "type": "uint256"
        }
      ],
      "name": "Transfer",
      "type": "event"
    },
    {
      "inputs": [
        {
          "internalType": "address",
          "name": "to",
          "type": "address"
        },
        {
          "internalType": "uint256",
          "name": "tokenId",
          "type": "uint256"
        }
      ],
      "name": "approve",
      "outputs": [],
      "stateMutability": "nonpayable",
      "type": "function"
    },
    {
      "inputs": [
        {
          "internalType": "address",
          "name": "owner",
          "type": "address"
        }
      ],
      "name": "balanceOf",
      "outputs": [
        {
          "internalType": "uint256",
          "name": "",
          "type": "uint256"
        }
      ],
      "stateMutability": "view",
      "type": "function"
    },
    {
      "inputs": [
        {
          "internalType": "uint256",
          "name": "",
          "type": "uint256"
        }
      ],
      "name": "credits",
      "outputs": [
        {
          "internalType": "uint256",
          "name": "amount",
          "type": "uint256"
        },
        {
          "internalType": "string",
          "name": "projectType",
          "type": "string"
        },
        {
          "internalType": "uint256",
          "name": "validUntil",
          "type": "uint256"
        },
        {
          "internalType": "bool",
          "name": "verified",
          "type": "bool"
        },
        {
          "internalType": "string",
          "name": "metadataURI",
          "type": "string"
        }
      ],
      "stateMutability": "view",
      "type": "function"
    },
    {
      "inputs": [
        {
          "internalType": "uint256",
          "name": "tokenId",
          "type": "uint256"
        }
      ],
      "name": "getApproved",
      "outputs": [
        {
          "internalType": "address",
          "name": "",
          "type": "address"
        }
      ],
      "stateMutability": "view",
      "type": "function"
    },
    {
      "inputs": [
        {
          "internalType": "uint256",
          "name": "tokenId",
          "type": "uint256"
        }
      ],
      "name": "getCreditDetails",
      "outputs": [
        {
          "components": [
            {
              "internalType": "uint256",
              "name": "amount",
              "type": "uint256"
            },
            {
              "internalType": "string",
              "name": "projectType",
              "type": "string"
            },
            {
              "internalType": "uint256",
              "name": "validUntil",
              "type": "uint256"
            },
            {
              "internalType": "bool",
              "name": "verified",
              "type": "bool"
            },
            {
              "internalType": "string",
              "name": "metadataURI",
              "type": "string"
            }
          ],
          "internalType": "struct CarbonCredit.Credit",
          "name": "",
          "type": "tuple"
        }
      ],
      "stateMutability": "view",
      "type": "function"
    },
    {
      "inputs": [
        {
          "internalType": "address",
          "name": "owner",
          "type": "address"
        },
        {
          "internalType": "address",
          "name": "operator",
          "type": "address"
        }
      ],
      "name": "isApprovedForAll",
      "outputs": [
        {
          "internalType": "bool",
          "name": "",
          "type": "bool"
        }
      ],
      "stateMutability": "view",
      "type": "function"
    },
    {
      "inputs": [
        {
          "internalType": "address",
          "name": "recipient",
          "type": "address"
        },
        {
          "internalType": "uint256",
          "name": "amount",
          "type": "uint256"
        },
        {
          "internalType": "string",
          "name": "projectType",
          "type": "string"
        },
        {
          "internalType": "uint256",
          "name": "validityPeriod",
          "type": "uint256"
        },
        {
          "internalType": "string",
          "name": "metadataURI",
          "type": "string"
        }
      ],
      "name": "mintCredit",
      "outputs": [
        {
          "internalType": "uint256",
          "name": "",
          "type": "uint256"
        }
      ],
      "stateMutability": "nonpayable",
      "type": "function"
    },
    {
      "inputs": [],
      "name": "name",
      "outputs": [
        {
          "internalType": "string",
          "name": "",
          "type": "string"
        }
      ],
      "stateMutability": "view",
      "type": "function"
    },
    {
      "inputs": [],
      "name": "owner",
      "outputs": [
        {
          "internalType": "address",
          "name": "",
          "type": "address"
        }
      ],
      "stateMutability": "view",
      "type": "function"
    },
    {
      "inputs": [
        {
          "internalType": "uint256",
          "name": "tokenId",
          "type": "uint256"
        }
      ],
      "name": "ownerOf",
      "outputs": [
        {
          "internalType": "address",
          "name": "",
          "type": "address"
        }
      ],
      "stateMutability": "view",
      "type": "function"
    },
    {
      "inputs": [],
      "name": "renounceOwnership",
      "outputs": [],
      "stateMutability": "nonpayable",
      "type": "function"
    },
    {
      "inputs": [
        {
          "internalType": "address",
          "name": "from",
          "type": "address"
        },
        {
          "internalType": "address",
          "name": "to",
          "type": "address"
        },
        {
          "internalType": "uint256",
          "name": "tokenId",
          "type": "uint256"
        }
      ],
      "name": "safeTransferFrom",
      "outputs": [],
      "stateMutability": "nonpayable",
      "type": "function"
    },
    {
      "inputs": [
        {
          "internalType": "address",
          "name": "from",
          "type": "address"
        },
        {
          "internalType": "address",
          "name": "to",
          "type": "address"
        },
        {
          "internalType": "uint256",
          "name": "tokenId",
          "type": "uint256"
        },
        {
          "internalType": "bytes",
          "name": "data",
          "type": "bytes"
        }
      ],
      "name": "safeTransferFrom",
      "outputs": [],
      "stateMutability": "nonpayable",
      "type": "function"
    },
    {
      "inputs": [
        {
          "internalType": "address",
          "name": "operator",
          "type": "address"
        },
        {
          "internalType": "bool",
          "name": "approved",
          "type": "bool"
        }
      ],
      "name": "setApprovalForAll",
      "outputs": [],
      "stateMutability": "nonpayable",
      "type": "function"
    },
    {
      "inputs": [
        {
          "internalType": "bytes4",
          "name": "interfaceId",
          "type": "bytes4"
        }
      ],
      "name": "supportsInterface",
      "outputs": [
        {
          "internalType": "bool",
          "name": "",
          "type": "bool"
        }
      ],
      "stateMutability": "view",
      "type": "function"
    },
    {
      "inputs": [],
      "name": "symbol",
      "outputs": [
        {
          "internalType": "string",
          "name": "",
          "type": "string"
        }
      ],
      "stateMutability": "view",
      "type": "function"
    },
    {
      "inputs": [
        {
          "internalType": "uint256",
          "name": "tokenId",
          "type": "uint256"
        }
      ],
      "name": "tokenURI",
      "outputs": [
        {
          "internalType": "string",
          "name": "",
          "type": "string"
        }
      ],
      "stateMutability": "view",
      "type": "function"
    },
    {
      "inputs": [
        {
          "internalType": "address",
          "name": "from",
          "type": "address"
        },
        {
          "internalType": "address",
          "name": "to",
          "type": "address"
        },
        {
          "internalType": "uint256",
          "name": "tokenId",
          "type": "uint256"
        }
      ],
      "name": "transferFrom",
      "outputs": [],
      "stateMutability": "nonpayable",
      "type": "function"
    },
    {
      "inputs": [
        {
          "internalType": "address",
          "name": "newOwner",
          "type": "address"
        }
      ],
      "name": "transferOwnership",
      "outputs": [],
      "stateMutability": "nonpayable",
      "type": "function"
    },
    {
      "inputs": [
        {
          "internalType": "uint256",
          "name": "tokenId",
          "type": "uint256"
        }
      ],
      "name": "verifyCredit",
      "outputs": [],
      "stateMutability": "nonpayable",
      "type": "function"
    }
  ],
  "bytecode": "0x60806040523462000026576200001462000110565b604051611ed5620004cf8239611ed590f35b600080fd5b634e487b7160e01b600052604160045260246000fd5b90601f01601f191681019081106001600160401b038211176200006357604052565b6200002b565b90620000806200007860405190565b928362000041565b565b6001600160401b0381116200006357602090601f01601f19160190565b90620000b5620000af8362000082565b62000069565b918252565b620000c6600d6200009f565b6c10d85c989bdb8810dc99591a5d609a1b602082015290565b620000e9620000ba565b90565b620000f860026200009f565b61434360f01b602082015290565b620000e9620000ec565b62000080336200011f620000df565b6200012962000106565b9162000178565b62000140620000e9620000e99290565b6001600160a01b031690565b620000e99062000130565b620001629062000140565b9052565b60208101929162000080919062000157565b916200018491620003e3565b6200019060006200014c565b6200019b8162000140565b620001a68362000140565b14620001b8575062000080906200046c565b620001de90620001c760405190565b631e4fbdf760e01b81529182916004830162000166565b0390fd5b634e487b7160e01b600052602260045260246000fd5b90600160028304921680156200021b575b60208310146200021557565b620001e2565b91607f169162000209565b9160001960089290920291821b911b5b9181191691161790565b620000e9620000e9620000e99290565b919062000265620000e96200026e9362000240565b90835462000226565b9055565b620000809160009162000250565b8181106200028c575050565b806200029c600060019362000272565b0162000280565b9190601f8111620002b357505050565b620002c76200008093600052602060002090565b906020601f840181900483019310620002eb575b6020601f90910104019062000280565b9091508190620002db565b9062000300815190565b906001600160401b03821162000063576200032882620003218554620001f8565b85620002a3565b602090601f831160011462000367576200026e9291600091836200035b575b5050600019600883021c1916906002021790565b01519050388062000347565b601f198316916200037d85600052602060002090565b9260005b818110620003be57509160029391856001969410620003a4575b50505002019055565b01516000196008601f8516021c191690553880806200039b565b9193602060018192878701518155019501920162000381565b906200008091620002f6565b90620003f562000080926000620003d7565b6001620003d7565b620000e99062000140565b620000e99054620003fd565b906001600160a01b039062000236565b620000e99062000140906001600160a01b031682565b620000e99062000424565b620000e9906200043a565b9062000464620000e96200026e9262000445565b825462000414565b62000478600662000408565b906200048681600662000450565b620004bd620004b67f8be0079c531659141344cd1fd0a4f28419497f9722a3daafe3b4186f6b6457e09362000445565b9162000445565b91620004c860405190565b600090a356fe6080604052600436101561001257600080fd5b60003560e01c806301ffc9a714610152578063036a1c221461014d57806306fdde0314610148578063081812fc14610143578063095ea7b31461013e578063099c84631461013957806314fe83f81461013457806323b872dd1461012f57806342842e0e1461012a5780636352211e1461012557806370a0823114610120578063715018a61461011b5780638da5cb5b1461011657806395d89b4114610111578063a22cb4651461010c578063b88d4fde14610107578063c87b56dd14610102578063e985e9c5146100fd578063f2fde38b146100f85763f85aafbd036101575761095c565b6108e4565b6108c8565b61088a565b61086e565b61077e565b61072b565b610706565b6106ee565b6106d3565b6106a4565b61068b565b610672565b61062a565b6105f8565b610534565b6104c0565b61048d565b610440565b610195565b600080fd5b6001600160e01b031981165b0361015757565b9050359061017c8261015c565b565b90602082820312610157576101929161016f565b90565b34610157576101c36101b06101ab36600461017e565b610b7a565b6040515b91829182901515815260200190565b0390f35b80610168565b9050359061017c826101c7565b9060208282031261015757610192916101cd565b6101926101926101929290565b90610205906101ee565b600052602052604060002090565b6101929081565b6101929054610213565b634e487b7160e01b600052602260045260246000fd5b906001600283049216801561025a575b602083101461025557565b610224565b91607f169161024a565b805460009392916102816102778361023a565b8085529360200190565b91600181169081156102d3575060011461029a57505050565b6102ad9192939450600052602060002090565b916000925b8184106102bf5750500190565b8054848401526020909301926001016102b2565b92949550505060ff1916825215156020020190565b9061019291610264565b634e487b7160e01b600052604160045260246000fd5b90601f01601f1916810190811067ffffffffffffffff82111761032a57604052565b6102f2565b9061017c6103499261034060405190565b938480926102e8565b0383610308565b61035b9060086101fb565b6103648161021a565b916103716001830161032f565b9161037e6002820161021a565b916101926004610392600385015460ff1690565b930161032f565b60005b8381106103ac5750506000910152565b818101518382015260200161039c565b6103dd6103e66020936103f0936103d1815190565b80835293849260200190565b95869101610399565b601f01601f191690565b0190565b919361042a6104226104339361019298969761041560a08801926000890152565b86820360208801526103bc565b956040850152565b15156060830152565b60808184039101526103bc565b34610157576101c361045b6104563660046101da565b610350565b9161046895939560405190565b958695866103f4565b600091031261015757565b6020808252610192929101906103bc565b346101575761049d366004610471565b6101c36104a8610c94565b6040519182918261047c565b6001600160a01b031690565b34610157576101c36104db6104d63660046101da565b610d8b565b604051918291826001600160a01b03909116815260200190565b6001600160a01b038116610168565b9050359061017c826104f5565b9190604083820312610157576101929061052b8185610504565b936020016101cd565b346101575761054d610547366004610511565b90610d80565b604051005b909182601f830112156101575781359167ffffffffffffffff831161015757602001926001830284011161015757565b60a081830312610157576105968282610504565b926105a483602084016101cd565b92604083013567ffffffffffffffff811161015757816105c5918501610552565b9290936105d583606083016101cd565b92608082013567ffffffffffffffff8111610157576105f49201610552565b9091565b34610157576101c361061a61060e366004610582565b95949094939193611bf8565b6040519182918290815260200190565b346101575761054d61063d3660046101da565b611dbd565b90916060828403126101575761019261065b8484610504565b936106698160208601610504565b936040016101cd565b346101575761054d610685366004610642565b91610e06565b346101575761054d61069e366004610642565b91610edb565b34610157576101c36104db6106ba3660046101da565b610c82565b906020828203126101575761019291610504565b34610157576101c361061a6106e93660046106bf565b610c01565b34610157576106fe366004610471565b61054d6109bb565b3461015757610716366004610471565b6101c36104db6006546001600160a01b031690565b346101575761073b366004610471565b6101c36104a8610c9e565b801515610168565b9050359061017c82610746565b919060408382031261015757610192906107758185610504565b9360200161074e565b346101575761054d61079136600461075b565b90610d9e565b9061017c6107a460405190565b9283610308565b67ffffffffffffffff811161032a57602090601f01601f19160190565b90826000939282370152565b909291926107e96107e4826107ab565b610797565b938185526020850190828401116101575761017c926107c8565b9080601f8301121561015757816020610192933591016107d4565b90608082820312610157576108338183610504565b926108418260208501610504565b9261084f83604083016101cd565b92606082013567ffffffffffffffff8111610157576101929201610803565b346101575761054d61088136600461081e565b92919091610eeb565b34610157576101c36104a86108a03660046101da565b610d2d565b919060408382031261015757610192906108bf8185610504565b93602001610504565b34610157576101c36101b06108de3660046108a5565b90610da9565b346101575761054d6108f73660046106bf565b610abc565b8051825261019291608061091f60a08301602085015184820360208601526103bc565b9261092f60408201516040850152565b60608181015115159084015201519060808184039101526103bc565b6020808252610192929101906108fc565b34610157576101c36109776109723660046101da565b611e77565b6040519182918261094b565b61098b6109c3565b61017c6109a9565b6104b46101926101929290565b61019290610993565b61017c6109b660006109a0565b610b1d565b61017c610983565b6006546001600160a01b031633906109e3825b916001600160a01b031690565b036109eb5750565b610a35906109f860405190565b9182917f118cdaa7000000000000000000000000000000000000000000000000000000008352600483016001600160a01b03909116815260200190565b0390fd5b61017c90610a456109c3565b610a4f60006109a0565b6001600160a01b0381166001600160a01b03831614610a72575061017c90610b1d565b610a3590610a7f60405190565b9182917f1e4fbdf7000000000000000000000000000000000000000000000000000000008352600483016001600160a01b03909116815260200190565b61017c90610a39565b906001600160a01b03905b9181191691161790565b6104b4610192610192926001600160a01b031690565b61019290610ada565b61019290610af0565b90610b12610192610b1992610af9565b8254610ac5565b9055565b6006546001600160a01b031690610b35816006610b02565b610b68610b627f8be0079c531659141344cd1fd0a4f28419497f9722a3daafe3b4186f6b6457e093610af9565b91610af9565b91610b7260405190565b80805b0390a3565b7f80ac58cd000000000000000000000000000000000000000000000000000000006001600160e01b0319821614908115610bc3575b8115610bb9575090565b61019291506116fd565b6001600160e01b031981167f5b5e139f00000000000000000000000000000000000000000000000000000000149150610baf565b9061020590610af9565b610c0b60006109a0565b6001600160a01b0381166001600160a01b03831614610c385750610c33610192916003610bf7565b61021a565b610a3590610c4560405190565b9182917f89c62b64000000000000000000000000000000000000000000000000000000008352600483016001600160a01b03909116815260200190565b61019290611445565b6101929061032f565b6101926000610c8b565b6101926001610c8b565b90610cb56107e4836107ab565b918252565b6101926000610ca8565b610192610cba565b6103f0610ce492602092610cde815190565b94859290565b93849101610399565b610cfb906101929392610ccc565b90610ccc565b610d21929161017c91610d1360405190565b948592602084019283610ced565b90810382520383610308565b610d3681611445565b50610d3f610d78565b8051600090610d54610d50836101ee565b9190565b11159050610d6e57610d6861019292611665565b90610d01565b5050610192610cc4565b610192610cc4565b61017c913391611207565b61019290610d9881611445565b50610f02565b61017c919033611387565b61019291610dc4610dc992610dbc600090565b506005610bf7565b610bf7565b5460ff1690565b6001600160a01b03909116815260608101939261017c929091604091610df7906020830152565b01906001600160a01b03169052565b90610e1160006109a0565b6001600160a01b0381166001600160a01b03831614610e915750610e3790833391610f47565b6001600160a01b0382166001600160a01b03821603610e5557505050565b610a3590610e6260405190565b9384937f64283d7b00000000000000000000000000000000000000000000000000000000855260048501610dd0565b610a3590610e9e60405190565b9182917f64a0ae92000000000000000000000000000000000000000000000000000000008352600483016001600160a01b03909116815260200190565b909161017c92610ee9610cc4565b925b9061017c939291610efd838383610e06565b6114ed565b610f1961019291610f11600090565b5060046101fb565b546001600160a01b031690565b9060001990610ad0565b90610f40610192610b19926101ee565b8254610f26565b90610fa5610f5482611093565b936000610f60816109a0565b91846001600160a01b0384166001600160a01b03831603611082575b50506001600160a01b0382166001600160a01b03871603611047575b506001600160a01b031690565b6001600160a01b03831603611017575b610fc982610fc48360026101fb565b610b02565b7fddf252ad1be2c89b69c2b068fc378daa952ba7f163c4a11628f55a4df523b3ef91611006611000610ffa86610af9565b92610af9565b926101ee565b9261101060405190565b600090a490565b61104261102460016101ee565b61103c611032856003610bf7565b916103f08361021a565b90610f30565b610fb5565b61105390828581611211565b61107c61106060016101ee565b61103c61106e886003610bf7565b916110788361021a565b0390565b38610f98565b61108c91886110c7565b3884610f7c565b610f19610192916110a2600090565b5060026101fb565b6001600160a01b03909116815260408101929161017c9160200152565b6110d96110d5848484611172565b1590565b6110e257505050565b6110f26109d66104b460006109a0565b0361113757610a358261110460405190565b9182917f7e2732890000000000000000000000000000000000000000000000000000000083526004830190815260200190565b610a3561114360405190565b9283927f177e802f000000000000000000000000000000000000000000000000000000008452600484016110aa565b906111806104b460006109a0565b6001600160a01b03821614159283611199575b50505090565b919250906001600160a01b0382166001600160a01b038416149283156111f3575b5082156111cc575b5050388080611193565b6111eb9192506111de6109d691610f02565b926001600160a01b031690565b1438806111c2565b6112009193508290610da9565b91386111ba565b909161017c926001925b92919091808115611348575b611233575b505090610fc461017c9260046101fb565b61123c83611445565b9161124a6104b460006109a0565b6001600160a01b03821614158061132c575b80611319575b6112cf575091610fc49161017c949361127e575b509192611222565b6112a87f8c5be1e5ebec7d5bd14f71427d1e84f3dd0314c0f7b2291e5b200ac8c7c3b92591610af9565b6112b185610af9565b906112bb846101ee565b926112c560405190565b600090a438611276565b610a35906112dc60405190565b9182917fa9fbf51f000000000000000000000000000000000000000000000000000000008352600483016001600160a01b03909116815260200190565b506113276110d58285610da9565b611262565b506001600160a01b0381166001600160a01b038416141561125c565b506113566104b460006109a0565b6001600160a01b038316141561121d565b9060ff90610ad0565b90611380610192610b1992151590565b8254611367565b6113946104b460006109a0565b6001600160a01b038316146113fb576113bb836113b684610dc4856005610bf7565b611370565b610b756113f16113eb7f17307eab39ab6107e8899845ad3d59bd9653f200f220920489ca2b5937696c3193610af9565b93610af9565b936101b460405190565b610a358261140860405190565b9182917f5b08ba18000000000000000000000000000000000000000000000000000000008352600483016001600160a01b03909116815260200190565b61144e81611093565b9061145c6104b460006109a0565b6001600160a01b0383161461146f575090565b610a359061110460405190565b9050519061017c8261015c565b90602082820312610157576101929161147c565b6001600160a01b039182168152911660208201526040810191909152608060608201819052610192929101906103bc565b3d156114e8576114dd3d610ca8565b903d6000602084013e565b606090565b9091823b93600094611501610d50876101ee565b1161150e575b5050505050565b906020916115528661152a61152588999a98610af9565b610af9565b9261155d63150b7a029161153b3390565b9661154560405190565b998a988997889660e01b90565b86526004860161149d565b03925af18491816115e8575b506115a25750506115786114ce565b91611587610d50611000855190565b0361159957610a3590610e9e60405190565b50805190602001fd5b9092506115d87f150b7a02000000000000000000000000000000000000000000000000000000005b916001600160e01b03191690565b03610e9157503880808080611507565b61160a91925060203d8111611611575b6116028183610308565b810190611489565b9038611569565b503d6115f8565b369037565b9061017c61163361162d84610ca8565b936107ab565b601f190160208401611618565b634e487b7160e01b600052601260045260246000fd5b8115611660570490565b611640565b61166e8161172a565b9061167e6001926103f0846101ee565b91806116898461161d565b936020018401905b61169b5750505090565b6116dc9060001901927f3031323334353637383961626364656600000000000000000000000000000000600a82061a84536116d6600a6101ee565b90611656565b90816116eb610d5060006101ee565b146116f857909181611691565b611193565b6117267f01ffc9a7000000000000000000000000000000000000000000000000000000006115ca565b1490565b61173460006101ee565b907a184f03e93ff9f4daa797ed6e38ed64bf6a1f01000000000000000061175a816101ee565b8210156118ac575b506d04ee2d6d415b85acef810000000061177b816101ee565b82101561188a575b50662386f26fc10000611795816101ee565b821015611868575b506305f5e1006117ac816101ee565b821015611846575b506127106117c1816101ee565b821015611824575b5060646117d5816101ee565b821015611802575b506117eb610d50600a6101ee565b10156117f45790565b610192906103f060016101ee565b61181d916116d6611812926101ee565b916103f060026101ee565b90386117dd565b61183f916116d6611834926101ee565b916103f060046101ee565b90386117c9565b611861916116d6611856926101ee565b916103f060086101ee565b90386117b4565b611883916116d6611878926101ee565b916103f060106101ee565b903861179d565b6118a5916116d661189a926101ee565b916103f060206101ee565b9038611783565b6118c7916116d66118bc926101ee565b916103f060406101ee565b9038611762565b90610192979695949392916118e16109c3565b611b24565b634e487b7160e01b600052601160045260246000fd5b600019811461190b5760010190565b6118e6565b9190820180921161190b57565b61019260a0610797565b6101929136916107d4565b9160001960089290920291821b911b610ad0565b9190611957610192610b19936101ee565b908354611932565b61017c91600091611946565b818110611976575050565b80611984600060019361195f565b0161196b565b9190601f811161199957505050565b6119ab61017c93600052602060002090565b906020601f8401819004830193106119cd575b6020601f90910104019061196b565b90915081906119be565b906119e0815190565b9067ffffffffffffffff821161032a57611a04826119fe855461023a565b8561198a565b602090601f8311600114611a3f57610b19929160009183611a34575b5050600019600883021c1916906002021790565b015190503880611a20565b601f19831691611a5485600052602060002090565b9260005b818110611a9257509160029391856001969410611a79575b50505002019055565b01516000196008601f8516021c19169055388080611a70565b91936020600181928787015181550195019201611a58565b9061017c916119d7565b61017c9190611ae190608090600490611acf8161103c875190565b611ae760018201611ae1602088015190565b90611aaa565b611af96002820161103c604088015190565b611b1360038201611b0d6060880151151590565b90611370565b0192015190565b9061017c91611ab4565b509395909491611b34600761021a565b96611b3e886118fc565b611b49906007610f30565b611b538887611c09565b611b5d9042611910565b600091611b6861191d565b95611b738985890152565b611b7c91611927565b6020860152604085015215156060840152611b9691611927565b6080820152611ba68460086101fb565b90611bb091611b1a565b7f3d33d1076da5ff846213366be62cdb31e30a7c72f55e923f3a76a7623330af12611bda846101ee565b91611be490610af9565b92611bee60405190565b908152602090a390565b6101929695949392919060006118ce565b61017c91611c15610cc4565b919061017c9291611c268282611c30565b610efd60006109a0565b90611c3b60006109a0565b916001600160a01b0383166001600160a01b03821614611cc457611c60918391610f47565b611c726001600160a01b0383166109d6565b03611c7a5750565b610a3590611c8760405190565b9182917f73c6ac6e000000000000000000000000000000000000000000000000000000008352600483016001600160a01b03909116815260200190565b610a3583610e9e60405190565b61017c90611cdd6109c3565b611d48565b15611ce957565b6040517f08c379a000000000000000000000000000000000000000000000000000000000815260206004820152601460248201527f546f6b656e20646f6573206e6f742065786973740000000000000000000000006044820152606490fd5b611d6b611d5482611093565b611d646109d66104b460006109a0565b1415611ce2565b611d8360016003611d7d8460086101fb565b01611370565b611dad7f4f4019213d198a6b2698d51c79895fa6c7e5a5c79e4f5c04f3285b44c24d18d6916101ee565b90611db760405190565b600090a2565b61017c90611cd1565b611dce61191d565b906000825260208080808086016060815201600081520160008152016060905250565b610192611dc6565b9061017c611e676004611e0a61191d565b94611e1b611e178261021a565b8752565b611e31611e2a6001830161032f565b6020880152565b611e47611e406002830161021a565b6040880152565b611e61611e58600383015460ff1690565b15156060880152565b0161032f565b6080840152565b61019290611df9565b611e9a61019291611e86611df1565b50611e93611d5482611093565b60086101fb565b611e6e56fea2646970667358221220946ec484bc8cc4f3183ba2f21bbfda047afe742dcb9ccbbdc782c7c0bd16d1bd64736f6c63430008140033",
  "linkReferences": {},
  "deployedLinkReferences": {}
}