{
  "_format": "hh-sol-artifact-1",
  "contractName": "CarbonCreditMarket",
  "sourceName": "contracts/CarbonCreditMarket.sol",
  "abi": [
    {
      "inputs": [
        {
          "internalType": "address",
          "name": "_carbonCreditToken",
          "type": "address"
        }
      ],
      "stateMutability": "nonpayable",
      "type": "constructor"
    },
    {
      "inputs": [
        {
          "internalType": "address",
          "name": "owner",
          "type": "address"
        }
      ],
      "name": "OwnableInvalidOwner",
      "type": "error"
    },
    {
      "inputs": [
        {
          "internalType": "address",
          "name": "account",
          "type": "address"
        }
      ],
      "name": "OwnableUnauthorizedAccount",
      "type": "error"
    },
    {
      "anonymous": false,
      "inputs": [
        {
          "indexed": true,
          "internalType": "uint256",
          "name": "tokenId",
          "type": "uint256"
        },
        {
          "indexed": true,
          "internalType": "address",
          "name": "seller",
          "type": "address"
        },
        {
          "indexed": false,
          "internalType": "uint256",
          "name": "price",
          "type": "uint256"
        }
      ],
      "name": "CreditListed",
      "type": "event"
    },
    {
      "anonymous": false,
      "inputs": [
        {
          "indexed": true,
          "internalType": "uint256",
          "name": "tokenId",
          "type": "uint256"
        },
        {
          "indexed": true,
          "internalType": "address",
          "name": "seller",
          "type": "address"
        },
        {
          "indexed": true,
          "internalType": "address",
          "name": "buyer",
          "type": "address"
        },
        {
          "indexed": false,
          "internalType": "uint256",
          "name": "price",
          "type": "uint256"
        }
      ],
      "name": "CreditSold",
      "type": "event"
    },
    {
      "anonymous": false,
      "inputs": [
        {
          "indexed": true,
          "internalType": "uint256",
          "name": "tokenId",
          "type": "uint256"
        },
        {
          "indexed": true,
          "internalType": "address",
          "name": "seller",
          "type": "address"
        }
      ],
      "name": "ListingCanceled",
      "type": "event"
    },
    {
      "anonymous": false,
      "inputs": [
        {
          "indexed": true,
          "internalType": "address",
          "name": "previousOwner",
          "type": "address"
        },
        {
          "indexed": true,
          "internalType": "address",
          "name": "newOwner",
          "type": "address"
        }
      ],
      "name": "OwnershipTransferred",
      "type": "event"
    },
    {
      "anonymous": false,
      "inputs": [
        {
          "indexed": true,
          "internalType": "uint256",
          "name": "tokenId",
          "type": "uint256"
        },
        {
          "indexed": false,
          "internalType": "uint256",
          "name": "newPrice",
          "type": "uint256"
        }
      ],
      "name": "PriceUpdated",
      "type": "event"
    },
    {
      "inputs": [
        {
          "internalType": "uint256",
          "name": "tokenId",
          "type": "uint256"
        }
      ],
      "name": "buyCredit",
      "outputs": [],
      "stateMutability": "payable",
      "type": "function"
    },
    {
      "inputs": [
        {
          "internalType": "uint256",
          "name": "tokenId",
          "type": "uint256"
        }
      ],
      "name": "cancelListing",
      "outputs": [],
      "stateMutability": "nonpayable",
      "type": "function"
    },
    {
      "inputs": [],
      "name": "carbonCreditToken",
      "outputs": [
        {
          "internalType": "contract IERC721",
          "name": "",
          "type": "address"
        }
      ],
      "stateMutability": "view",
      "type": "function"
    },
    {
      "inputs": [
        {
          "internalType": "uint256",
          "name": "tokenId",
          "type": "uint256"
        },
        {
          "internalType": "uint256",
          "name": "price",
          "type": "uint256"
        }
      ],
      "name": "listCredit",
      "outputs": [],
      "stateMutability": "nonpayable",
      "type": "function"
    },
    {
      "inputs": [
        {
          "internalType": "uint256",
          "name": "",
          "type": "uint256"
        }
      ],
      "name": "listings",
      "outputs": [
        {
          "internalType": "address",
          "name": "seller",
          "type": "address"
        },
        {
          "internalType": "uint256",
          "name": "price",
          "type": "uint256"
        },
        {
          "internalType": "bool",
          "name": "isActive",
          "type": "bool"
        }
      ],
      "stateMutability": "view",
      "type": "function"
    },
    {
      "inputs": [],
      "name": "owner",
      "outputs": [
        {
          "internalType": "address",
          "name": "",
          "type": "address"
        }
      ],
      "stateMutability": "view",
      "type": "function"
    },
    {
      "inputs": [],
      "name": "renounceOwnership",
      "outputs": [],
      "stateMutability": "nonpayable",
      "type": "function"
    },
    {
      "inputs": [
        {
          "internalType": "address",
          "name": "newOwner",
          "type": "address"
        }
      ],
      "name": "transferOwnership",
      "outputs": [],
      "stateMutability": "nonpayable",
      "type": "function"
    },
    {
      "inputs": [
        {
          "internalType": "uint256",
          "name": "tokenId",
          "type": "uint256"
        },
        {
          "internalType": "uint256",
          "name": "newPrice",
          "type": "uint256"
        }
      ],
      "name": "updatePrice",
      "outputs": [],
      "stateMutability": "nonpayable",
      "type": "function"
    }
  ],
  "bytecode": "0x60806040523462000030576200001e62000018620000d3565b62000156565b604051610d946200027c8239610d9490f35b600080fd5b634e487b7160e01b600052604160045260246000fd5b90601f01601f191681019081106001600160401b038211176200006d57604052565b62000035565b906200008a6200008260405190565b92836200004b565b565b6001600160a01b031690565b90565b6001600160a01b038116036200003057565b905051906200008a826200009b565b9060208282031262000030576200009891620000ad565b620000986200101080380380620000ea8162000073565b928339810190620000bc565b62000098906200008c906001600160a01b031682565b6200009890620000f6565b62000098906200010c565b906200013662000098620001529262000117565b82546001600160a01b0319166001600160a01b03919091161790565b9055565b620001706200008a916200016a33620001a6565b62000117565b600162000122565b6200008c62000098620000989290565b620000989062000178565b6001600160a01b03909116815260200190565b620001b2600062000188565b6001600160a01b0381166001600160a01b03831614620001d857506200008a9062000219565b620001fe90620001e760405190565b631e4fbdf760e01b81529182916004830162000193565b0390fd5b62000098906200008c565b62000098905462000202565b6200022560006200020d565b906200023381600062000122565b6200026a620002637f8be0079c531659141344cd1fd0a4f28419497f9722a3daafe3b4186f6b6457e09362000117565b9162000117565b916200027560405190565b600090a356fe6080604052600436101561001257600080fd5b60003560e01c8063305a67a8146100a25780634fbf39291461009d57806366dea35814610098578063715018a6146100935780637211dde41461008e57806382367b2d146100895780638da5cb5b14610084578063de74e57b1461007f5763f2fde38b036100a757610374565b610320565b610252565b610220565b61020d565b6101f5565b6101ce565b61011f565b6100db565b600080fd5b805b036100a757565b905035906100c2826100ac565b565b906020828203126100a7576100d8916100b5565b90565b346100a7576100f36100ee3660046100c4565b610c89565b604051005b0390f35b91906040838203126100a7576100d89061011681856100b5565b936020016100b5565b346100a7576100f36101323660046100fc565b9061072c565b60009103126100a757565b6100d8916008021c5b73ffffffffffffffffffffffffffffffffffffffff1690565b906100d89154610143565b6100d860006001610165565b61014c6100d86100d89273ffffffffffffffffffffffffffffffffffffffff1690565b6100d89061017c565b6100d89061019f565b6101ba906101a8565b9052565b6020810192916100c291906101b1565b346100a7576101de366004610138565b6100f86101e9610170565b604051918291826101be565b346100a757610205366004610138565b6100f36103ce565b6100f361021b3660046100c4565b610afb565b346100a7576100f36102333660046100fc565b90610cf2565b6101ba9061014c565b6020810192916100c29190610239565b346100a757610262366004610138565b6100f861026d61038c565b60405191829182610242565b6100d86100d86100d89290565b9061029090610279565b600052602052604060002090565b6100d89061014c565b6100d8905461029e565b6100d89081565b6100d890546102b1565b6102cd906002610286565b6102d6816102a7565b916100d860026102e8600185016102b8565b93015460ff1690565b6040906103186100c2949695939661031160608401986000850190610239565b6020830152565b019015159052565b346100a7576100f861033b6103363660046100c4565b6102c2565b604051919391938493846102f1565b6100ae8161014c565b905035906100c28261034a565b906020828203126100a7576100d891610353565b346100a7576100f3610387366004610360565b6104ad565b6100d860006102a7565b61039e6103d6565b6100c26103bc565b61014c6100d86100d89290565b6100d8906103a6565b6100c26103c960006103b3565b6104f3565b6100c2610396565b6103de61038c565b33906103f26103ec8361014c565b9161014c565b036103fa5750565b6104369061040760405190565b9182917f118cdaa700000000000000000000000000000000000000000000000000000000835260048301610242565b0390fd5b6100c2906104466103d6565b61045060006103b3565b6104598161014c565b6104628361014c565b1461047157506100c2906104f3565b6104369061047e60405190565b9182917f1e4fbdf700000000000000000000000000000000000000000000000000000000835260048301610242565b6100c29061043a565b9073ffffffffffffffffffffffffffffffffffffffff905b9181191691161790565b906104e86100d86104ef926101a8565b82546104b6565b9055565b6104fd60006102a7565b906105098160006104d8565b61053c6105367f8be0079c531659141344cd1fd0a4f28419497f9722a3daafe3b4186f6b6457e0936101a8565b916101a8565b9161054660405190565b80805b0390a3565b634e487b7160e01b600052604160045260246000fd5b90601f01601f1916810190811067ffffffffffffffff82111761058657604052565b61054e565b905051906100c28261034a565b906020828203126100a7576100d89161058b565b6040513d6000823e3d90fd5b156105bf57565b60405162461bcd60e51b815260206004820152600f60248201527f4e6f7420746f6b656e206f776e657200000000000000000000000000000000006044820152606490fd5b1561060b57565b60405162461bcd60e51b815260206004820152601360248201527f4d61726b6574206e6f7420617070726f766564000000000000000000000000006044820152606490fd5b906100c261065d60405190565b9283610564565b6100d86060610650565b906101ba9061014c565b634e487b7160e01b600052600060045260246000fd5b6100d8905161014c565b90600019906104ce565b906106b26100d86104ef92610279565b8254610698565b9060ff906104ce565b906106d26100d86104ef92151590565b82546106b9565b6100c2919061071c906040906002906106fb816106f58761068e565b906104d8565b6107136001820161070d602088015190565b906106a2565b01920151151590565b906106c2565b906100c2916106d9565b61075c90602061074461073f60016102a7565b6101a8565b636352211e9061075360405190565b94859260e01b90565b82526004820184905260249082905afa9182156108b4576000926108b9575b50610793339261078d6103ec8561014c565b146105b8565b6107bd60206107a561073f60016102a7565b63081812fc906107b460405190565b93849260e01b90565b82526004820185905260249082905afa80156108b4576107fa91600091610886575b506107f46103ec6107ef306101a8565b61014c565b14610604565b610839600161082961080a610664565b91610815868461066e565b610820876020850152565b15156040830152565b610834836002610286565b610722565b61054961086f6108697f4ac0e51fccbcff90e2efa701b77c9cccff85e9345e1d32c94e7e785993b195c493610279565b936101a8565b9361087960405190565b9182918290815260200190565b6108a7915060203d81116108ad575b61089f8183610564565b810190610598565b386107df565b503d610895565b6105ac565b6108d291925060203d81116108ad5761089f8183610564565b903861077b565b906100c261091b60026108ea610664565b946108fd6108f7826102a7565b8761066e565b61091361090c600183016102b8565b6020880152565b015460ff1690565b15156040840152565b6100d8906108d9565b1561093457565b60405162461bcd60e51b815260206004820152601260248201527f4c697374696e67206e6f742061637469766500000000000000000000000000006044820152606490fd5b1561098057565b60405162461bcd60e51b815260206004820152600f60248201527f496e636f727265637420707269636500000000000000000000000000000000006044820152606490fd5b9160001960089290920291821b911b6104ce565b91906109ea6100d86104ef93610279565b9083546109c5565b6100c2916000916109d9565b600080825590600290610a1483600183016109f2565b0155565b90600003610a29576100c2906109fe565b610678565b604090610a586100c29496959396610a4e60608401986000850190610239565b6020830190610239565b0152565b67ffffffffffffffff811161058657602090601f01601f19160190565b90610a8b610a8683610a5c565b610650565b918252565b3d15610aaa57610a9f3d610a79565b903d6000602084013e565b606090565b15610ab657565b60405162461bcd60e51b815260206004820152601460248201527f4661696c656420746f2073656e642045746865720000000000000000000000006044820152606490fd5b600290610b10610b0b8284610286565b610924565b91610b26610b216040850151151590565b61092d565b610b5e6000610b5984610b53833498610b4d610b466100d8602084015190565b8b14610979565b0161068e565b94610286565b610a18565b610b6b61073f60016102a7565b33916323b872dd91803b156100a757610b8a9260009161075360405190565b8252818381610b9e8a8a8960048501610a2e565b03925af19182156108b457610bb892610c1f575b506101a8565b91610be0600080610bc8866101a8565b60405160009189905af1610bda610a90565b50610aaf565b610c1a610c106108697f7e47a1e6c94fa983ca28d7705e8a571d166221513a37da6b741dd937d16dfb1193610279565b9461087960405190565b0390a4565b610c37906000610c2f8183610564565b810190610138565b38610bb2565b15610c4457565b60405162461bcd60e51b815260206004820152600e60248201527f4e6f74207468652073656c6c65720000000000000000000000000000000000006044820152606490fd5b6002610cc56000610b5984610ca883610ca28388610286565b016102a7565b94610cc03396610cba6103ec8961014c565b14610c3d565b610286565b61053c6105367fbb7be15645f4eda9d65591c3a81b5e39256151f91bc25180315de259167c2e2393610279565b610d22826001610d1c846002610cc0610d106000610ca28585610286565b610cba6103ec3361014c565b016106a2565b610d59610d4f7f945c1c4e99aa89f648fbfe3df471b916f719e16d960fcec0737d4d56bd69683892610279565b9261087960405190565b0390a256fea2646970667358221220af14468eb1145c5b3ccbe35caaa76967d75fc8a8fba25139f5d8bff24481188f64736f6c63430008140033",
  "linkReferences": {},
  "deployedLinkReferences": {}
}